:020000040800F2
:10000000D8110020C1010008BF980008C34B0008A8
:10001000BD980008A90F000865B3000800000000A3
:10002000000000000000000000000000D59E000855
:100030000113000800000000B39C0008899F00081D
:10004000DB010008DB010008DB010008DB01000820
:10005000DB010008DB010008DB010008DB01000810
:100060008D14000893140008DB010008DB01000870
:1000700075120008DB01000881120008DB0100088E
:10008000DB010008DB010008DB010008DB010008E0
:10009000DB010008DB010008DB01000899140008FF
:1000A000DB010008DB010008DB010008DB010008C0
:1000B000E19F0008DB010008DB010008DB0100080C
:1000C000DB010008DB010008DB010008DB010008A0
:1000D000DB010008DB010008EDB20008F9B20008FE
:1000E000DB010008DB010008DB010008DB01000880
:1000F000DB010008DB010008DB010008DB01000870
:10010000DB010008DB010008DB010008DB0100085F
:10011000DB010008DB010008DB010008DB0100084F
:10012000DB010008DB010008DB010008DB0100083F
:10013000DB010008DB010008DB010008DB0100082F
:10014000DB010008DB010008DB010008DB0100081F
:10015000DB010008DB010008DB010008DB0100080F
:10016000DB010008DB010008DB010008DB010008FF
:10017000DB010008DB010008DB01000800000000D3
:10018000DB010008DB010008DB010008DB010008DF
:10019000DB010008DB010008DB010008DB010008CF
:1001A000DB010008DB010008DB010008DFF80CD0F0
:1001B00000F09EFC00480047B9D60008D811002086
:1001C0000648804706480047FEE7FEE7FEE7FEE7F1
:1001D000FEE7FEE7FEE7FEE7FEE7FEE78D9F00088D
:1001E000AD0100082DE9F0410024061B254671F100
:1001F000000605DA01240027D0EB070067EB0101B8
:10020000161E73F1000605DA0027D2EB070201255E
:1002100067EB030300F0BEFA86460E4617469C467F
:10022000AC4204D00025D0EB050E65EB010624B1ED
:100230000020D2EB000760EB030C704631463A46D3
:100240006346BDE8F08140EA01039B0703D009E063
:1002500008C9121F08C0042AFAD203E011F8013BB2
:1002600000F8013B521EF9D27047D2B201E000F80B
:10027000012B491EFBD270470022F6E710B513464A
:100280000A4604461946FFF7F0FF204610BD10B598
:10029000002200E0521C835C8C5CA34201D1002B45
:1002A000F8D1D8B2E1B2401A10BD70B506460BF0D5
:1002B000ABF8046805460A220021304600F0CCFA6B
:1002C0002C6070BD2DE9FE4F804681EA0300C00F0F
:1002D0000C46009021F0004123F00045B8EB0200ED
:1002E000A94105D24046214690461C460B4602468F
:1002F00023F00040104347D0270DC7F30A00C3F393
:100300000A510290401A019040286BDAC3F313009F
:1003100040F4801B0098924620B10023D2EB030AE0
:1003200063EB0B0B01985946C0F14002504600F0B8
:1003300062FA06460D4650465946019A00F07AFA8E
:1003400010EB08006141002487EA115284EAE77348
:100350001A4340D0009A62B3019A012A4FEA075229
:1003600015DC001B61EB02014FF0004202EA07526C
:10037000CDE90042001C41F5801132462B4600F0C9
:10038000E9FA03B0BDE8F08F40462146F9E7001BCB
:1003900061EB0201001C41F5801300185B4120183D
:1003A000A2F5001747EB030140EAD570B6196D417D
:1003B00011E06D084FEA360645EAC0754FEA07526C
:1003C000001B61EB0201001C41F5801149084FEA56
:1003D00030000019514132462B4603B0BDE8F04FC2
:1003E00000F0A9BA0098012240000023D0EB0202DD
:1003F00063EBE073009821464FEAE074B8EB00002D
:1004000061EB0401E9E783F000435BE781F0004121
:1004100058E72DE9FE4F81EA030404F0004421F07F
:10042000004100944FF0000B23F0004350EA010418
:100430005ED052EA03045BD0C3F30A54C1F30A55F9
:100440002C44A4F2F3340194A0FB0254C1F3130131
:1004500041F48011C3F3130343F4801301FB0244FE
:1004600000FB034E840A970A44EA815447EA835703
:10047000A4FB076802958D0A05FB07854FEA932CBC
:1004800004FB0C542705029D4FEA065847EA16372D
:10049000B5EB08056EEB070C870E920E47EA811745
:1004A00042EA8312A7FB0201B6EB0B0164EB0004E6
:1004B0002B0D43EA0C335E1844EB1C50DA465146D0
:1004C000E7FB0201C5F313044FEA0B3343EA14536D
:1004D0004FEA0432019C43EA0603A4F10C0402949F
:1004E000009CCDE900B400F035FA03B0BDE8F08F10
:1004F00000200146F9E72DE9F04D81EA030404F0FC
:10050000004B21F0004514464FF0000A23F0004153
:1005100050EA050220D054EA01021DD0C5F30A5763
:100520000246C5F31303C1F31300C1F30A5640F4A6
:10053000801543F48013A7EB0608101BD64608F27B
:10054000FD3873EB050002D308F1010801E09218B1
:100550005B41B8F1000F03DA00200146BDE8F08DE1
:1005600000204FF48011064684460EE0171B73EB03
:10057000050705D3121B63EB050306434CEA010C88
:1005800049084FEA300092185B4150EA0107EDD16B
:1005900052EA030012D082EA040083EA050108430C
:1005A00005D0101BAB4106D20122002306E0002239
:1005B0004FF0004302E06FF0010253101AEB060007
:1005C0004CEB085110EB0A0041EB0B01BDE8F04D7C
:1005D00000F0B1B90EB5C10F80EAE0700844CA0757
:1005E000002140F233438DE80E000A460B4600F02E
:1005F000B1F903B000BD0EB540F2334102910021C4
:10060000CDE900110A460B4600F0A4F903B000BD85
:100610003EB5CA17CB0F002450405140C01861416D
:10062000DA0740F233430094CDE901232246234602
:1006300000F090F903B030BD70B5C1F30A5201F07B
:1006400000450024C1F3130140F2FF3341F480114F
:100650009A4201DA002070BD40F233439A42A2F27E
:10066000334203DC524200F0D5F800E090402C43C6
:10067000F1D0404270BDC1F30A5210B5C1F313016D
:1006800040F2FF3341F480119A4201DA002010BD9C
:1006900040F233439A42A2F2334203DC524200F06A
:1006A000B9F810BD904010BD00F0004230F000409D
:1006B0000AD0C10D01F56071C0F3160042EA015184
:1006C000C2084007114370470020014670470000F0
:1006D00030B5041E71F1000404DB4FF000444042C9
:1006E00064EB0101141E73F1000405DB1C464FF09E
:1006F0000043524263EB04038B4208BF824230BD89
:1007000030B5041E71F1000404DB4FF00044404298
:1007100064EB0101141E73F1000405DB1C464FF06D
:100720000043524263EB0403994208BF904230BD3C
:1007300001F0004330B421F0004150EA010206D03C
:100740000A0DA2F56072C1F31301002A02DC30BC6D
:1007500000207047440F44EAC104C100E01830BCD7
:1007600000EBC25000F0B0B830B50B460146002097
:100770002022012409E021FA02F59D4205D303FA63
:1007800002F5491B04FA02F52844151EA2F10102E4
:10079000F1DC30BD2DE9F05F0546002092469B4616
:1007A00088460646814640241BE028464146474687
:1007B000224600F02FF853465A46C01A914110D3F2
:1007C00011461846224600F016F82D1A67EB01086C
:1007D0004F4622460120002100F00DF817EB0009DA
:1007E0004E41201EA4F10104DFDC484631462A4672
:1007F0004346BDE8F09F202A04DB203A00FA02F1CC
:10080000002070479140C2F1200320FA03F31943FE
:1008100090407047202A04DB203A21FA02F00021A0
:10082000704721FA02F3D040C2F120029140084300
:1008300019467047202A06DBCB17203A41FA02F00E
:1008400043EAE07306E041FA02F3D040C2F120022D
:1008500091400843194670472DE9F04791460F46ED
:1008600080460446002614F8015B2DB100F052F9D1
:100870000068405DC007F6D12B2D02D02D2D18D079
:10088000641E4A463946204600F048F927B13968C7
:10089000A14201D1C7F8008071054FF002040BD5C9
:1008A0004042002803DD0AF0AFFD0460A007BDE868
:1008B000F08746F48066E4E70028F8DA0AF0A4FD41
:1008C00004606FF00040F2E70029A8BF7047401CA9
:1008D000490008BF20F00100704710B4B0FA80FC56
:1008E00000FA0CF050EA010404BF10BC704749B193
:1008F000CCF1200421FA04F411FA0CF118BF012103
:1009000021430843A3EB0C01CB1D4FEA00614FEAE2
:10091000102042BF002010BC704700EBC3501044B1
:100920000029A4BF10BC7047401C490008BF20F03C
:10093000010010BC704710B5141E73F1000408DAF2
:10094000401C41F1000192185B411A4301D120F093
:10095000010010BD2DE9F04D92469B4611B1B1FA50
:1009600081F202E0B0FA80F220329046FFF743FFB6
:1009700004460F4640EA0A0041EA0B0153465A4634
:10098000084313D0114653EA010019D0C8F14002C0
:100990005046FFF73FFF05460E4650465946424631
:1009A000FFF729FF084305D0012004E0204639461F
:1009B000BDE8F08D0020054346EAE0762C4337433E
:1009C0000A986305E40AA0EB08000022FD0A44EA45
:1009D00047540A3002D500200146E9E70105101905
:1009E0006941DDE9084500196941BDE8F04DA2E71C
:1009F00070B521F0004303430CD0C1F30A55002425
:100A0000D5EB040564EB0403D617AD1AB34102DB42
:100A10000020014670BD201841EB025170BD2DE948
:100A2000F04D00231A461B1A8A4103DB00200146C1
:100A3000BDE8F08DC1F30A52C1F3130141F48015F2
:100A40004FF0000BD10702D100186D41521E002754
:100A5000044640F2FF11384601EB620A3E468046EA
:100A6000024600204FF48011FFF7D4FEC2197141F5
:100A7000BB1846EB0100B4EB030C75EB000C04D380
:100A8000E41A65EB000517460E46241908F101002B
:100A90006D4180463428E3DDF91946EB0600091B59
:100AA000A84103D24FF0FF32134601E00022134663
:100AB0001BEB070046EB0A51BDE8F04DFFF73BBFCB
:100AC000C1F30A52C1F3130140F2FF3341F4801124
:100AD0009A4202DA00200146704740F233439A42BC
:100AE000A2F2334202DC5242FFF794BEFFF783BE0C
:100AF000064C074D06E0E06840F0010394E807006B
:100B000098471034AC42F6D3FFF754FB042E01088B
:100B1000242E0108004870473C2D01082DE9F05FA4
:100B200082460078002715468B460AF10104B94633
:100B3000302801D09DB113E014F8010B012778286B
:100B400003D0582801D045B10AE00DB1102D07D1CE
:100B50000027102514F8010B02E0082500E00A2503
:100B60000026B0460EE005FB080005FB06F1012754
:100B700001EB10461FFA80F8B6F5803F00D3B94666
:100B800014F8010B294600F018F80028EBDABBF145
:100B9000000F05D00FB1641E00E05446CBF80040B2
:100BA000B9F1000F06D00AF02FFC02210160C81E27
:100BB000BDE8F09F48EA0640FAE73A2800D230380C
:100BC00020F02002412A01D3A2F13700884201D34C
:100BD0004FF0FF30704770B58C1810F8015B15F0BE
:100BE000070301D110F8013B2A1106D110F8012B9F
:100BF00003E010F8016B01F8016B5B1EF9D12B07C4
:100C000005D40023521E0DD401F8013BFAE710F879
:100C1000013BCB1A921C03E013F8015B01F8015B66
:100C2000521EF9D5A142D8D3002070BD03F0EEBF0B
:100C30002DE9F0410D460146002004464E1908E01A
:100C40000702301B401E80B200F007F8641C3844D5
:100C5000E4B2AC42F4D3BDE8F08110B5044604F030
:100C600071F8200AA02101EB4000C0B204F036F870
:100C700004F0B4F8E0B204F031F804F0AFF804F096
:100C800061F8A12004F02AF804F0A8F8002003F08D
:100C9000EDFF044604F07CF8204610BD2DE9F0413C
:100CA00016460D460746002409E0E00025FA00F04C
:100CB000C1B2381980B200F006F8641CE4B2B44244
:100CC000F3D3BDE8F08170B50D46044604F03AF860
:100CD000200AA02101EB4000C0B203F0FFFF04F0A6
:100CE0007DF8E0B203F0FAFF04F078F8284603F04C
:100CF000F5FF04F073F804F04BF8BDE870400A20EB
:100D00000CF05CBB2DE9F04F2DED068B85B0142067
:100D100001F0B3FA5548008800287DD1DFF85091E2
:100D200099F80000022877D1524C4FF00008C4F81F
:100D3000008000F0E7FA50480068FA38206014207C
:100D400001F09BFA4DA021680AF036FB2068FFF7FE
:100D500041FC4E4D8B464BEC180B95ED000B82463B
:100D60009FED4B9B51EC100B53EC192BFFF751FBF4
:100D700053EC182BFFF747FBFFF75EFC002800DA67
:100D8000404200EE100A00274FEA0704B8EEC0AA5E
:100D900004EB440005EBC0004BEC18AB90ED000BEE
:100DA00053EC192B51EC100BFFF733FB064653ECB9
:100DB000182B0091FFF727FBFFF73EFC002800DA15
:100DC000404200EE100AB8EEC00AB4EECA0AF1EED4
:100DD00010FA14D800994BEC10AB41EC116B27467C
:100DE00053EC102B51EC110BFFF70DFBFFF724FC1C
:100DF000002800DA404200EE100AB8EEC0AA641CD7
:100E0000E4B2222CC4D907EB470005EBC00494EDF3
:100E1000040B8DED020B00E022E094ED020B1EA00E
:100E20008DED000B94ED000B53EC102B0AF0C4FA7F
:100E300000F0A6F894ED020B51EC100BFFF71BFC31
:100E4000C0B20CF0EFFA1E4D28780028FCD04446C2
:100E500089F80080642001F010FA00F037F82C7057
:100E600005B0BDEC068BBDE8F08F00002A00002025
:100E700000000020200000201C0000206469737422
:100E8000616E63653A2025640A0000003800002086
:100E90000000000000408F4064697374616E6365F8
:100EA0003A2025662020616E676C653A2025662011
:100EB00020766F6C746167653A2025660A00000031
:100EC0002E000020142001F0D8B9000010B54FF614
:100ED000FF7004F003FF1E200AF046FA002008F01D
:100EE000E9FE03491E20088002490020088010BD49
:100EF000300000202A00002010B54FF6FF7004F0EB
:100F0000EDFE0A48002404701E200AF02DFA00208D
:100F100008F0D0FE06480749002204601E20088021
:100F2000BDE810400421044801F01FBB0000002070
:100F30001800002030000020001002400E4810B5BC
:100F4000016886B041F00401016000680B4C00F0BC
:100F500004000590022000900120019002900320DF
:100F600003906946204601F011FA01220221204631
:100F700001F0FBFA06B010BD303802400008024014
:100F800010B5084C00220221204601F0EEFA322072
:100F900001F073F920460122BDE81040022101F062
:100FA000E4BA000000080240FEE7000070B50E4CF5
:100FB0000025C4F898520D48016821F0C001016075
:100FC000016841F0400101600948C0F88C520220DC
:100FD00004F526740CF000FA0120206002200CF0C9
:100FE000FBF9256070BD00000080434200200240F4
:100FF00000004442154810B5016886B041F08001F8
:101000000160016801F080010591016841F480717F
:1010100001600068012400F4807005904020CDE953
:1010200000040320CDE902406946094801F0AEF909
:10103000082000906946074801F0A8F90648C0F862
:101040008C420648C0F8984206B010BD30380240C5
:10105000001C024000200240000044420080434245
:1010600070B50E4C0025C4F898520D48016821F067
:10107000C0010160016841F040010160094801269A
:10108000C0F88C62022004F526740CF0A5F92660E5
:1010900002200CF0A1F9256070BD000000804342E1
:1010A00000200240000044422DE9F04782461948E2
:1010B0000024016821F0C0010160016801601E2068
:1010C0000CF08AF90025144EDFF850902F464FF0AF
:1010D000010800BFC6F8987202200CF07DF9C6F82E
:1010E00098826006040ED9F80C0208B1641CE4B2C0
:1010F00002200CF071F96D1CEDB2082DEAD3BAF1A3
:10110000000F04D0FFF752FF2046BDE8F087FFF73D
:10111000A7FFF9E70020024000804342000044425C
:101120002DE9F04706461548016821F0C00101602D
:10113000016841F040010160114D0027C5F8987227
:10114000DFF840803C464FF00109F109C8F88C12E5
:101150007006060E02200CF03FF9C5F898920220A6
:101160000CF03AF9C5F8987202200CF035F9641CBD
:10117000E4B2082CE9D3BDE8F0870000002002406B
:10118000008043420000444270B50F48016821F0DE
:10119000C0010160016841F0400101600B4C012079
:1011A000C4F88C020A4DC5F898021E2004F5237479
:1011B00005F526750CF010F90026266002200CF0CB
:1011C0000BF92E6070BD0000002002400000444278
:1011D0000080434270B50F48016821F0C0010160F2
:1011E000016841F0400101600B4C0020C4F89802F6
:1011F0000A4DC5F88C021E2004F5267405F52375EA
:101200000CF0EAF80126266002200CF0E5F82E60CA
:1012100070BD0000002002400080434200004442B4
:1012200070B511480024016821F0C0010160016817
:1012300001600E4E0120C6F88C020D4DC5F89802D3
:1012400007E0641CE4B2FA2C03D9FFF7C3FF0120C6
:1012500070BD02200CF0C0F8D6F80C020028F0D1C6
:10126000C5F8980270BD0000002002400000444212
:1012700000804342014800F0CDBE0000C0080020BD
:10128000014800F0C7BE00001809002001681823BB
:10129000CAB2103AB2FBF3F2054B6FF30901032A0D
:1012A0009B5C436500D9091D016508467047000035
:1012B0000EE3000830B50468256825F48025256014
:1012C000046863608368402B036803D099600068FA
:1012D000C26030BD9A600068C16030BD10B50122A7
:1012E000202104480CF0E9FF0349486003490860E5
:1012F00010BD0000CC0A00206C0600202400002055
:10130000704700002DE9F04F4FF4C8712DED028BAE
:10131000E5B06846FEF7B0FF00273D464FF47A730C
:1013200040225449544803F0D7FA0024DFF844A17E
:10133000DFF84891A3461AF804105646642916D1DE
:1013400006EB040898F801003A2810D198F802003A
:1013500020280CD149480CF0A5FF98F80110474807
:101360000CF0A0FF98F8021044480CF09BFF99F88D
:101370000010642974D199F801003A2870D1315DC8
:101380006D2911D0301940786D2869D03B480CF098
:1013900089FF99F80010642962D199F801003A2870
:1013A0005ED1305D6D285BD106EB040898F8010032
:1013B0006D2855D1315D31480CF074FF98F801105B
:1013C0002E480CF06FFF2D480CF061FF2B480CF0FD
:1013D0005EFF2A480CF05BFF4E4625E028466D1C58
:1013E000FFF709F941EC110B9FED250B0AF024FCE6
:1013F000706EB0EE408AF0EE608A305C3038FFF7F5
:10140000E9F853EC182BFFF704F841EC180B3846B9
:10141000FFF7F1F853EC182BFEF754FFFFF72BF909
:1014200087B216480CF033FF706E305C2028D5D19F
:10143000642269461148FEF706FF1348C6F864B0F7
:101440000025076030782F46642809D170783A2843
:1014500006D13F2C04D1642269460848FEF7F3FE0A
:10146000641CA4B2402CFFF466AF65B0BDEC028BE7
:10147000BDE8F08F800700208008002018070020BA
:1014800000000000000024401C000020042000F0A8
:1014900071BF082000F06EBF402000F06BBF00005D
:1014A00070B5B3F5804F05D06FF0704140F8221051
:1014B000002070BD50F82240084B8E891C40D1E9B5
:1014C000003543EA05138D6889692D0245EA064512
:1014D0002B430B43234340F82230E9E70000F0CFD1
:1014E000F0B50C6850F82430194A1340D1E90125B1
:1014F000D1E903672A433E4332434E6932438E6942
:101500003243CE6932430E6A32434E6A32438E6AA8
:101510003243CE6A3243CE6B32430E6B32434E6B54
:1015200032431A43082D01D142F0400240F82420F2
:101530004A6BB2F5801F08D10A6832B14FF480724D
:101540000A6104490268114301600020F0BD0000F7
:101550008000E0FF00011000F0B500EB820462683B
:1015600002F04045D1E9002342EA03128B688E89DC
:101570001B0243EA06431A430E8A0D4B03EB065641
:1015800032430E7D5F0107EB066632438E693243BC
:101590002A4362600268D20207D54268098A22F4AF
:1015A000700203EB0151114341600020F0BD0000C7
:1015B0000000F0FF30B5D1E901231A43D1E903352A
:1015C0002B431A434B690C681A438B691A43D1E9C0
:1015D0000735012C496A04686FF30E0405D01A43DD
:1015E0002A430A432243026008E02B4321430B4372
:1015F000416803606FF30E010A434260002030BD72
:10160000426942EA4101416100207047F8B5144641
:101610000546D1E9000210438A686FF01F03C968CC
:1016200003EB421242EA412108430090286100F096
:10163000A1FF064609E0601C07D024B100F09AFF24
:10164000801BA04201D90320F8BDA8698006F2D40E
:101650000020F8BDF0B56FF00F05D1E9003405EBBF
:1016600004145B1E2E0123438C682F0306EB042415
:101670004FEA054C23430D8A8E8ACC68097E4FF0D1
:101680007F4E07EB05450CEB06560EEB0161012A78
:101690000CD082683F1107EB043423432B433343C0
:1016A00002F070420B43134383600FE0C2682B4388
:1016B0000B4302F070428168134301F07042210332
:1016C000A1F5805131431143C36081600020F0BD1A
:1016D00010B5142000F0D1FD01490120088010BD93
:1016E0002C00002070B54A4888B00024016841F001
:1016F00080010160016801F080010791016841F4F7
:1017000080710160006802A900F480700790802059
:10171000012581E83100032005903E4800F036FEA7
:101720002802CDE9020502A93B4800F02FFEFFF791
:1017300061FC3A4EC6F8A042142006F528760BF05C
:101740003DFE356032200BF039FE8DF8004002225C
:101750006946A12000F072F89DF80010302903D1ED
:101760009DF80100032831D09DF8010001282DD0FB
:1017700002282BD00422694648F2401000F09AFA61
:101780008DF80440694626A009F016FE2748009906
:1017900048F24005C0F8021002208DF80000012236
:1017A0006946284600F0E2FB01226946E81D00F088
:1017B00081FA0A200BF002FE8DF8004001226946F2
:1017C000284600F0D3FB08B0002070BDC0B200EB8B
:1017D000012117A009F0F0FD01226946002000F068
:1017E0008DF901226946A42000F088F916208DF8B1
:1017F000000001226946802000F080F90C208DF85D
:10180000000001226946882000F078F9DBE700003B
:1018100030380240001C02400020024000004442D8
:101820004354502049443A25730D0A001006002005
:101830004354502049443A25780D0A002DE9F041DF
:1018400015460E460446FFF79FFC7020FFF768FC24
:10185000FFF7E6FCE0B2FFF763FCFFF7E1FCFFF700
:1018600093FC7120FFF75CFCFFF7DAFC00246F1E8D
:1018700009E0BC4201D0012000E00020FFF714FC89
:101880003055641CE4B2AC42F3D3BDE8F041FFF73D
:10189000A1BC00002DE9F14783B00026924D8DF8E0
:1018A00004604FF00A096878904C401CC0B2B0FB4D
:1018B000F9F209FB12013746687009B10A2871D2A2
:1018C00089488BA1801CFEF7E2FC4FF0010203A9BE
:1018D00010B30220FFF7B2FF9DF80C00010761D0A2
:1018E000297800F00F028A425CD8FF209040C04364
:1018F00094F8348040F0C00084F8340004EB4100D8
:10190000A2894281218CC18303200BF057FD8DF801
:101910000460DFF8E0A192E048F24E18404600F083
:10192000C9F99DF80C000106D6D5297800F00F0002
:101930008842D1D88DF80460012201A9404600F008
:1019400015FBC9E794F8341001228240114271D08E
:10195000654867A1801CFEF79AFC20B366489DF895
:101960000410042230F811006946FFF767FF94F86D
:1019700044009DF80010C0079DF8010001F00F0120
:1019800000EB012145D09DF8040004EB40000184E8
:101990009DF802209DF8031002F00F0201EB0221D6
:1019A000818147E067E054489DF804100A30042222
:1019B00030F81100694600F07DF994F844009DF874
:1019C0000310C0079DF8020000EB012112D0BAF805
:1019D0000220521A9DF8041004EB41010A849DF87C
:1019E00000209DF80130BAF8000002EB0322801AB3
:1019F00088811FE09DF8040004EB400081819DF880
:101A000000109DF8012001EB0222BAF80210891A99
:101A10000FE0BAF80000411A9DF8040004EB400002
:101A200081819DF802209DF8031002F00F0201EB66
:101A3000022101849DF80400401C8DF804009DF8EB
:101A4000040029788842FFF47DAFA189BAF800200C
:101A50000127914204D8218CBAF80200814209D9A9
:101A60009DF80C0000F00F00012812D9E089A08138
:101A7000608C20846E701C481DA1801CFEF707FC42
:101A800001009DF80C104FF6FF700FD0C90625D04D
:101A90001BE0287804EB40004189A181C08B2084A1
:101AA00080208DF80C0084F83480E4E701F08F0189
:101AB000802913D009E000BF21F0800003E0A0815D
:101AC000208401F0E00084F834006878F02801D91F
:101AD00085F8019004B03846BDE8F08794F83410DA
:101AE0000A06ECD5E8E700001006002020060020DA
:101AF00039313100C0090020562A01082DE9F04192
:101B000016460F4604460025FFF73EFB7020FFF700
:101B100007FBFFF785FBE0B2FFF702FBFFF780FB57
:101B2000002408E0385DFFF7FBFAFFF779FB0500BA
:101B300003D1641CE4B2B442F4D3FFF74BFB284654
:101B4000BDE8F08110B50948002404704FF6FF701D
:101B500004F0C4F8064804801E2009F005FC0020AB
:101B600008F0A8F803491E20088010BD00000020DE
:101B70002C000020300000202DE9F0433E4889B0C1
:101B80000024016841F080010160016801F08001DA
:101B90000791016841F4807101600068802600F4BB
:101BA0008070079001AA012503270096DFF8CC90EA
:101BB00082E8B0006946484600F0E8FB2802CDE91B
:101BC000000569462E4800F0E1FBFFF713FADFF845
:101BD000B480C8F8A0420A200BF0F0FBC8F8A0526D
:101BE0000A200BF0EBFBCDE90064CDE90247694622
:101BF000484600F0CBFB64200BF0E0FB042205A973
:101C000048F2401000F056F88DF8184005A91EA0C3
:101C100009F0D2FB1FA105A8FEF739FB40BB02204B
:101C20008DF8140048F24005012205A9284600F06D
:101C30009DF9012205A9E81D00F03CF89DF814105B
:101C400060290BD215A009F0B7FB19488088A0F5D0
:101C5000AA41103902D1012000F060F90A200BF0EE
:101C6000ADFB8DF81440012205A9284600F07EF94D
:101C700009B00020BDE8F08330380240001C02406B
:101C800000200240000044424354502049443A2579
:101C9000730D0A0039313437000000004465666175
:101CA000756C74205665723A25640D0A00000000B8
:101CB000C00900202DE9F04115460E460446FFF705
:101CC00063FA2820FFF72CFAFFF7AAFA200AFFF799
:101CD00027FAFFF7A5FAE0B2FFF722FAFFF7A0FA1A
:101CE000FFF752FA2920FFF71BFAFFF799FA0024B1
:101CF0006F1E09E0BC4201D0012000E00020FFF788
:101D0000D3F93055641CE4B2AC42F3D3BDE8F041E2
:101D1000FFF760BA2DE9F14F7C4F002482B038788C
:101D20007B4D401CC0B20A21B0FBF1F201FB120155
:101D3000A146387009B10A287AD248F24E1601221B
:101D400002A93046FFF7B6FF9DF808004FF00008E3
:101D500001060AD500F00F00062806D28DF804808F
:101D6000012201A9304600F001F99DF808000107A1
:101D70005ED000F00F0106295AD2FF2088408DF86E
:101D80000400C04395F834A040F0C00085F834004A
:101D9000A889A882288CDFF87CB12885012600BF9D
:101DA00095F8341006FA04F0014269D05A4804222A
:101DB000694630F81400FFF77DFFBBF80400A0F57A
:101DC000AA41103908D0A0F5864142391AD0A0F5B1
:101DD000864184392DD053E095F84400C0072CD0BB
:101DE0009DF800009DF8011000EB012105EB440077
:101DF00001849DF802109DF8032001EB0221C1F53A
:101E000048713CE095F84400C00716D19DF80000E9
:101E10009DF8011000EB012105EB440001849DF8C1
:101E200002109DF8032001EB0221C1F5887126E024
:101E300043E095F84400C00710D09DF800009DF8DD
:101E4000011000EB012105EB440081819DF8021097
:101E50009DF8032001EB0221018411E09DF80000B0
:101E60009DF8011000EB012105EB440001849DF871
:101E700002109DF8032001EB0221C1F5F071818170
:101E8000641CE4B2052C8BD3A989BBF800204FF069
:101E900001092E46914204D8318CBBF802008142E0
:101EA00009D99DF8080000F00F0001280CD9F0892D
:101EB000B081708C288487F800809DF8080000F0BD
:101EC0008F0080280AD018E0B08AB081308D30842D
:101ED00080208DF8080085F834A0EEE795F83400EE
:101EE000010602D520F0800005E04FF6FF71A981C0
:101EF000298400F0E00085F834003878F02801D912
:101F00000A2038704846BDE8FE8F00001706002002
:101F100020060020C0090020222B010808B500215E
:101F20008DF800108DF801000F4800BF435C9DF84C
:101F30000020491C1A44C9B28DF80020B829F5D3F5
:101F4000D0B2C043401C8DF80000B822064948F2C8
:101F5000470000F00BF80222694648F2FF0000F04B
:101F600005F8002008BD00006A2A01082DE9F041AB
:101F700016460F4604460025FFF706F92820FFF70E
:101F8000CFF8FFF74DF9200AFFF7CAF8FFF748F935
:101F9000E0B2FFF7C5F8FFF743F9002408E0385D29
:101FA000FFF7BEF8FFF73CF9050003D1641CE4B26B
:101FB000B442F4D3FFF70EF92846BDE8F0810000E3
:101FC0002DE9F04104460068016821F0010101603B
:101FD00000F0D0FA054600264FF47A7710E000BFF3
:101FE00000F0C8FA401BB8420AD954F84C0F40F030
:101FF000200044F81809032026706070BDE8F081C5
:1020000020680068C007EBD104F8346F01206070CD
:102010000020F3E72DE9F041056D0446296890F8AA
:102020005420082000FA02F211424FF004074FF04A
:10203000000617D021680A68520713D50A6822F0F3
:1020400004020A6094F854108840A860E06C40F0E4
:102050000100E06484F8357084F83460A16C09B143
:1020600020468847296894F85420514800FA02F223
:10207000114217D021684A69120613D54A6922F025
:1020800080024A6194F854108840A860E06C40F0E7
:102090000200E06484F8357084F83460A16C09B102
:1020A000204688472968424894F85420C01C00FA0A
:1020B00002F2114217D021680A68920713D50A6804
:1020C00022F002020A6094F854108840A860E06C84
:1020D00040F00400E06484F8357084F83460A16C4A
:1020E00009B1204688472A6894F85410102000FA55
:1020F00001F31A421BD021680A68120717D50A6833
:1021000057034FF0310228D5AB60206801680903FE
:1021100003D400BF84F8352005E00068000302D531
:10212000412084F83500216C09B1204688472B688E
:1021300094F85410202000FA01F2134236D021689E
:102140000B68DB0632D50B685B031CD5AA602068E0
:10215000016809030DD4616C0FE00B68DB0503D443
:102160000B6823F008030B6094F854108840A860B3
:10217000D0E70068000319D5E16B002916D020468E
:10218000BDE8F04108470A68D20503D40A6822F086
:1021900010020A6094F854108840A860E06CE06473
:1021A000112084F8350084F83460E5E7BDE8F0815B
:1021B0000100800070B504001AD00220636A84F820
:1021C00035002268116818480140D4E90105284308
:1021D000D4E903563543284365692843A569284354
:1021E000E5692843256A28430843042B02D005E00B
:1021F000012070BDD4E90B13194308431060226815
:102200005069616A20F007000843042901D1A16ADE
:10221000084350612046FFF739F80020E0640120B0
:1022200084F83500002070BD3F8010F070B5044682
:1022300090F8340001281ED0012084F834000220D8
:1022400084F835002068056825F001050560204602
:10225000FFF730F82068016841F01E010160206836
:10226000416941F0800141612068016841F001014C
:102270000160002070BD022070BD31B500F07AF918
:10228000044600F077F90099001B8842F9D338BD65
:1022900070B5314D314C082817D004285BD132205D
:1022A0000BF08CF80421284600F056F9002852D192
:1022B000FFF728F82A4801682AA009F07DF820468F
:1022C000BDE87040042100F04CB932200BF076F8E4
:1022D0000821284600F040F900283CD100220821BE
:1022E000204600F042F900220421204600F03DF98A
:1022F00032200BF063F84FF47A7528460BF05EF845
:1023000001220821204600F030F900220421204655
:1023100000F02BF940F6AC500BF050F800220821E9
:10232000204600F022F94FF416700BF047F8012216
:102330000421204600F019F928460BF03FF800224E
:102340000821204600F011F92046BDE87040002227
:10235000042100F00AB970BD001C024000100240C8
:102360001C00002064697374616E63653A20256403
:102370000A000000044910B50A68024202D0086051
:10238000FFF786FF10BD0000143C01402DE9F84F17
:10239000DFF890B100224FF001084FF0030A4FF030
:1023A0000F090BF1040E00BF0B6808FA02F423407A
:1023B000A3426ED14D68022D01D0122D0ED1D50849
:1023C00000EB850CDCF820505607F70E09FA07F6EB
:1023D000B5430E69BE402E43CCF820600668550018
:1023E0000F790AFA05FC07F0030726EA0C06AF404E
:1023F000374307604E68012E05D0022E03D0112E00
:1024000001D0122E0ED18768CE6827EA0C07AE40A5
:102410003E4386604668A6430C79C4F3001494409A
:1024200034434460C4688E6824EA0C04AE402643FA
:10243000C6604C68E4006FD53B4C256845F4804588
:102440002560246822F0030504F480440094374C8E
:102450002E19D6F8084895072F0F09FA07F5AC434F
:10246000334DA84201D100252EE0324DA84201D1C2
:10247000012529E0304DA84201D1022524E02F4D4D
:10248000A84201D103251FE02D4DA84202D1042509
:102490001AE041E02B4DA84201D1052514E02A4D58
:1024A000A84201D106250FE0284DA84201D10725F9
:1024B0000AE0274DA84201D1082505E0254DA84294
:1024C00001D1092500E00A25BD402543C6F808587A
:1024D000DBF800405D464E689C43F60300D51C4384
:1024E0002C60DEF8004075464E689C43B60300D56C
:1024F0001C432C600B4D08352C684E689C43F6023B
:1025000000D51C432C60074D0C352C684E689C434D
:10251000B60200D51C432C60521C102AFFF444AFB5
:10252000BDE8F88F003C01404438024000300140D3
:10253000000002400004024000080240000C02407B
:10254000001002400014024000180240001C02402B
:1025500000200240002402400069084000D0012011
:10256000704742694A40426170470AB181617047D1
:102570000904FBE70148006870470000F8050020E7
:1025800002480168491C016070470000F8050020FE
:102590000B4810B5016841F400710160016841F415
:1025A00080610160016841F480710160052000F0E4
:1025B000BFF90F2000F006F800F08AF9002010BDE6
:1025C000003C024010B5044600F064FC4FF47A7100
:1025D000B0FBF1F001F016FA00222146501E00F087
:1025E00087F9002010BD2DE9F041044690F8A000C5
:1025F00016460F4601281DD0012584F8A050022060
:1026000084F8A10006EB860000EBC60004EB800016
:1026100034223830FDF717FE32463946204606F0A0
:1026200051FC2068456284F8A150002084F8A00085
:10263000BDE8F0810220FBE770B5040004D094F8F7
:10264000A100002510B106E0012070BD84F8A05063
:10265000204600F06FF8022084F8A100206881690C
:1026600021F070418161D4E901010843D4E90312EA
:102670001143084321688A691043886121688A6888
:102680002B4802408A60A18A0A0421688B68A669E7
:10269000334313438B602168CA680240CA60A18B30
:1026A0000A042168CB68266A33431343CB60216850
:1026B0000A6902400A61A18C0A0421680B69A66AB2
:1026C000334313430B6121684A6902404A6122681F
:1026D000A08D5169236B194341EA0041516194F87F
:1026E00035002168020294F83600CB6A03F07F437C
:1026F000CB622168CB6A94F8346042EA00403343ED
:102700000343CB622068416B41F0040141632068C0
:10271000416B41F0020141632068816941F0010190
:102720008161C4F8A450012084F8A100002070BD8C
:1027300000F800F030B5364887B00025016841F058
:1027400080610160006800F08060059030481438B6
:10275000016841F400010160016801F40001059184
:10276000016841F002010160016801F00201059178
:10277000016841F020010160016801F0200105912C
:10278000016841F040010160016801F040010591DC
:10279000016841F080010160016801F0800105914C
:1027A000016841F4807101600068032400F48070C6
:1027B0000590202000900120CDE902040190694697
:1027C0001448FFF7E3FD4FF4806000900220CDE94C
:1027D00001050E20CDE9034069460F48FFF7D6FDFD
:1027E0004FF40C60009069460C48FFF7CFFD4FF4A2
:1027F0007E40009069460A48FFF7C8FD40F2F76046
:10280000009069460748FFF7C1FD07B030BD0000E2
:102810004438024000040240001402400018024004
:10282000001C02400020024070B5044690F8A00051
:102830000E46012820D0012584F8A050022084F8FB
:10284000A10003EB830000EBC30004EB800141F81F
:10285000386F886A3044C1E90102C86A1044C86010
:102860001A46204606F02EFB2068456284F8A150E7
:10287000002084F8A00070BD022070BD2DE9F04159
:10288000044690F8A0000F4601281FD0012584F8C7
:10289000A050022084F8A10003EB830000EBC300EA
:1028A00004EB80010026E1E90E672046C1E90262DF
:1028B000C1E90A721A4606F005FB2068456284F8F1
:1028C000A15084F8A0600020BDE8F0810220FBE761
:1028D00008B50020009008BD00F01F0201219140C2
:1028E0004009800000F1E020C0F8001170470000AE
:1028F000F0B40E4B1B680C46C3F30223C3F107056B
:10290000042D00D90425191D072901D2002300E058
:10291000DB1E012606FA05F1491E214099409E4022
:10292000761E16403143F0BC06F0CABF0CED00E045
:10293000064900F0070208684FF6FF03184040EA16
:102940000220034A10430860704700000CED00E0CD
:102950000000FA052DE9F8431E48016841F0805156
:1029600001600068012600F080500090300490FA69
:10297000A0F0194FB0FA80F047F82060FFF7FAFD99
:1029800005464FF47A78154C05E000BFFFF7F2FDDD
:10299000401B404515D86068C003F7D54FF40030A0
:1029A00090FAA0F0B0FA80F047F82060FFF7E2FD5F
:1029B0000546464608E000BFFFF7DCFD401BB0427D
:1029C00002D90320BDE8F88360688003F4D50020B5
:1029D000F8E700004038024000000E42007000405E
:1029E0002DE9F84F044600689E4E9F4DC10747F6FB
:1029F000C07A4FF0E0474FF0010B4FF0000901D1D2
:102A000080074CD59949C1F86890FFF7B3FD80461F
:102A100006E000BFFFF7AEFDA0EB080064287CD8FD
:102A200028680001F6D42078C10791480DD09AFAA1
:102A3000AAF26168B2FA82F2914097FAA7F3A2680B
:102A4000B3FA83F39A40114301602178890716D5C0
:102A5000016897FAA7F201F0E041B2FA82F2D140A0
:102A60006268237B920142EA036242EA01710160DB
:102A70003068E16920F01F00491E084330607B493F
:102A8000C1F868B0FFF776FD804605E0FFF772FDFC
:102A9000A0EB0800642840D828680001F6D520681B
:102AA000410701D4000776D57049C1F87090FFF74F
:102AB00061FD804606E000BFFFF75CFDA0EB08006B
:102AC00064282AD82868C0438000F5D520784FF0C4
:102AD00070684107674828D5016897FAA7F201F0A6
:102AE000E041B2FA82F2D1409AFAAAF32269B3FA2B
:102AF00083F39A4098FAA8FC6369BCFA8CFC03FA49
:102B00000CF31A4397FAA7F3B3FA83F399400A43F5
:102B10000260316821F4F85100E07AE0226A6FF037
:102B2000FF0303EB0222114331602178090721D50D
:102B300001689AFAAAF301F0706298FAA8F1B1FA62
:102B400081F1CA402169B3FA83F3994098FAA8F356
:102B5000B3FA83F39A40114397FAA7F3A269B3FA41
:102B600083F39A40114301603068616A20F4403079
:102B7000084330603D49C1F870B0FFF7FBFC0646E2
:102B800005E000BFFFF7F6FC801B642841D82868E9
:102B9000C0438000F6D42078800651D532484E4696
:102BA0004030016841F0805101600068324F00F010
:102BB00080500090386840F480703860FFF7DAFC8D
:102BC000054604E0FFF7D6FC401B642821D838688E
:102BD000C005F7D5264D143D2868218D00F44070BE
:102BE00001F4407188422BD02868244920F44070B9
:102BF000C1F800B00E602860800710D5FFF7BAFC5E
:102C0000064641F2883707E0FFF7B4FC801BB84264
:102C100002D90320BDE8F88F28688007F4D5A16A9F
:102C20001148C1F301220830032A13D0016821F4AE
:102C3000F81101602868218DC1F30B010843286059
:102C40002078C00604D50E4994F82C00C1F8E001A4
:102C50000020DFE702680B4B22F4F81219400A4308
:102C60000260E7E78C38024000380240000047422B
:102C7000843802408838024000700040400E4742CD
:102C800000104742FFFCFF0F2DE9F05FDFF8FCA1C9
:102C900004460F46DAF80000DFF8F48100F00F0177
:102CA0007B4807F0FF0941F2883508F10808B9426E
:102CB00062D28AF80090DAF8001001F00F01B942F0
:102CC0007ED12178890707D5D8F80020A36822F0A3
:102CD000F0021A43C8F800202178C9072ED0616895
:102CE00001291AD002291BD0032919D000688007B6
:102CF000002865DAD8F80000464620F003000843B3
:102D0000C8F80000FFF736FC07466068012810D0BD
:102D100002281AD003281ED029E000688003E7E7C4
:102D200000688001E4E700BFFFF724FCC01BA84255
:102D300059D83068C0F381000128F5D189E000BF7F
:102D4000FFF718FCC01BA8424DD83068C0F38100C3
:102D50000228F5D17DE03068FFF70CFCC01BA842CB
:102D6000F9D940E0FFF706FCC01BA8423BD8306809
:102D700010F00C0FF6D16CE02178890707D5D8F850
:102D80000020A36822F0F0021A43C8F8002021783E
:102D9000C9074CD06168012928D0022929D003290C
:102DA00027D000688007002849DAD8F8002022F0F0
:102DB00003020A43C8F80020FFF7DCFB064600E0E8
:102DC0003DE0606801281DD0022829D0032838D0B2
:102DD000AB464546286810F00C0F28D0FFF7CAFB19
:102DE000811B5945F6D90320BDE8F09F0068800398
:102DF000D9E700688001D6E7FFF7BCFB811B594586
:102E000002D9F0E7AB4645462868C0F381000128A7
:102E1000F2D10CE0FFF7AEFB811B594502D9E2E786
:102E2000AB4645462868C0F381000228F2D18AF8F3
:102E30000090DAF8000000F00F00B84209D001203D
:102E4000D2E744462068FFF795FB801BA842F9D9DA
:102E5000C9E72078400707D5D8F80010E26821F4C8
:102E6000E0511143C8F800102078000708D5D8F8C1
:102E70000010226921F4604141EAC201C8F8001043
:102E80000F20FFF79FFB0020AEE70000003C024050
:102E90000038024010B500F043F808490968F022F4
:102EA00092FAA2F201F0F001B2FA82F2D140044AA1
:102EB000515CC8400349086010BD0000083802405A
:102EC000FEE20008E405002010B5FFF7E3FF074924
:102ED00009684FF4E05292FAA2F201F4E051B2FA1A
:102EE00082F2D140024A515CC84010BD083802400D
:102EF000FEE2000810B5FFF7CDFF074909684FF45F
:102F0000604292FAA2F201F46041B2FA82F2D14038
:102F1000024A515CC84010BD08380240FEE2000879
:102F200030B51948006810F00C01184812D0184C40
:102F300004290ED008290DD11349091F0A6802F08F
:102F40003F030A68550247F6C07204D5B4FBF3F09C
:102F500003E0204630BDB0FBF3F00B680968134076
:102F600092FAA2F2B2FA82F2D34058434FF44032BE
:102F700092FAA2F201F44031B2FA82F2D140491C35
:102F80004900B0FBF1F030BD083802400024F400E5
:102F900040787D012DE9F84F04460078DFF81C8366
:102FA000C74DC0074FF000064BD0D8F80010404680
:102FB000C1F38101012908D00068C0F38100022813
:102FC0000AD1281D0068400206D52868800338D53C
:102FD0006068002871D034E0DFF8E4A20AF1020A48
:102FE0008AF80060FFF7C6FA814641F2883705E0AB
:102FF000FFF7C0FAA0EB0900B8427DD8286880032B
:10300000F6D420798AF80000606868B1FFF7B2FA58
:10301000814605E0FFF7AEFAA0EB0900B842ECD814
:1030200028688003F6D50CE0FFF7A4FA814605E096
:10303000FFF7A0FAA0EB0900B842DED828688003A9
:10304000F6D420789F4F80074FF0010B45D5D8F874
:103050000010404611F00C0F4FF0F80A09D000683C
:10306000C0F3810002280BD19448001F0068400281
:1030700006D42868800714D5E06801281DD110E027
:10308000E068D8B1C7F800B0FFF774FA814605E0F0
:10309000FFF770FAA0EB09006428AED82868800713
:1030A000F6D528689AFAAAF22169B2FA82F220F0DB
:1030B000F8009140084328600FE0FCE03E60FFF715
:1030C00059FA814606E000BFFFF754FAA0EB090069
:1030D000642811D828688007F6D42078000729D5FD
:1030E000DFF8D8A1784861690AF16C0A99B1C0F893
:1030F00000B0FFF73FFA00E086E0814606E000BF3F
:10310000FFF738FAA0EB090064287DD8DAF8000050
:103110008007F5D50EE00660FFF72CFA814605E042
:10312000FFF728FAA0EB090064286DD8DAF8000050
:103130008007F5D4207840075AD5604838300168B8
:1031400041F0805101600068DFF880A100F08050FC
:103150000090DAF8001041F48071CAF80010FFF70F
:1031600009FA814606E000BFFFF704FAA0EB090068
:10317000642849D8DAF80000C005F5D5DFF83C919D
:1031800009F1680989F80060FFF7F4F941F2883A1B
:10319000009005E0FFF7EEF90099411A514533D848
:1031A000D9F800008007F5D4207A89F80000A068DB
:1031B00078B1FFF7DFF9009006E000BFFFF7DAF91A
:1031C0000099411A51456ED8D9F800008007F5D50D
:1031D0000EE0FFF7CFF9009006E000BFFFF7CAF955
:1031E0000099411A51455ED8D9F800008007F5D4FE
:1031F000A069E8B3D8F80010C1F3810102295AD0C0
:1032000002283E6605D000E04DE0FFF7B3F9044622
:103210004CE0FFF7AFF9064605E000BFFFF7AAF95B
:10322000801B64283FD828688001F7D4D4E90701BF
:10323000084347F6C07292FAA2F2616AB2FA82F2C9
:103240009140A26A4FF0FF3303EB52024FF4403338
:1032500093FAA3F3B3FA83F39A40114308434FF070
:10326000706292FAA2F2E16AB2FA82F2914000E050
:103270001FE008431149091F0860C7F860B0FFF755
:1032800079F9044605E000BFFFF774F9001B6428D4
:1032900009D828688001F7D50BE000BFFFF76AF96D
:1032A000001B642802D90320BDE8F88F286880013C
:1032B000F4D40020F8E70120F6E7000008380240C7
:1032C0000038024000004742800E47420070004034
:1032D00070B50D46040003D094F82C0010B107E03F
:1032E000012070BD002084F82D00204600F012F867
:1032F000022084F82C00211D2068FEF75BF9D4E938
:1033000000022946FEF7A6F9012084F82C000020CF
:1033100070BD0000304800B5016887B041F0010180
:103320000160006800F0010005902B480838016832
:1033300041F004010160016801F004010591016898
:1033400041F008010160016801F008010591016880
:1033500041F010010160016801F010010591016860
:1033600041F020010160016801F020010591016830
:1033700041F0400101600068694600F0400005909E
:103380000D20009002200190012002900320039064
:103390000C2004901148FEF7F9FF4CF203700090E6
:1033A00069460F48FEF7F2FF4FF6837000906946BA
:1033B0000C48FEF7EBFF4FF63F00009069460A48C5
:1033C000FEF7E4FF48F23710009069460748FEF721
:1033D000DDFF07B000BD00003838024000080240A1
:1033E000000C02400010024000140240001802408D
:1033F00010B5044690F82C00022809D0022084F869
:103400002C002068FEF7FCF8012084F82C00002036
:1034100010BD000070B5044690F82C000D4602283F
:103420000DD0022084F82C002068FEF7EFF8286801
:10343000022805D05FF0010084F82C00002070BD48
:103440000520F9E770B5040004D094F85100002578
:1034500010B106E0012070BD84F85050204600F005
:1034600033F8022084F851002068016821F04001FF
:103470000160D4E901010843D4E903121143084370
:1034800061690843218B01F400710843E169084335
:10349000216A0843A16A084321680860A0690421E1
:1034A00001EA1040616A0843216848602168E06AC7
:1034B00008612068C16921F40061C161656501206E
:1034C00084F85100002070BD10B586B00446142168
:1034D0006846FCF7D1FE13492068884220D1124883
:1034E0000021026842F480520260006800F48050BB
:1034F00005900D481438026842F00102026000682D
:1035000000F001000590E02000900220CDE90101CB
:10351000032003900520049069460448FEF736FF17
:1035200006B010BD003001404438024000000240A7
:103530002DE9F843044690F85100984601286FD1D0
:1035400031B32AB394F85000012869D0012684F8D9
:103550005060122084F85100002565652163A28621
:10356000E286E564A564A587E587A06A7703B8428B
:1035700009D12068016821F40051016020680168C8
:1035800041F400510160A068B0F5004F03D007E09E
:103590000120BDE8F8832068016841F480410160A2
:1035A00020680168490603D4016841F040010160C8
:1035B000E0680028606804D0D8B1E08E012818D0F7
:1035C00021E010B1E08E012808D1206B411C21635D
:1035D00021680078C860E08E401EE0860004000C80
:1035E0001FD0434600220221204606F021FCA8B944
:1035F000EBE7206B21680088C860206B801C20638B
:10360000E08E401EE0860004000C0AD043460022F3
:103610000221204606F00CFC0028EAD00320B8E77F
:1036200026E0A06AB84204D12068016841F48051C4
:103630000160434600220221204606F0F9FB30B922
:10364000434601228021204606F0F2FB20B1606D46
:1036500040F020006065E1E7A06818B92068C16803
:103660008068009084F8516084F85050002090E702
:1036700002208EE72DE9F843044690F85100DDF86A
:103680002080012801D022287ED169B162B15BB1CE
:1036900094F85000012877D0012684F8506094F8FF
:1036A0005100012803D005E00120BDE8F883322055
:1036B00084F8510000256565A263A387E387216331
:1036C000A386E386A564E564A06A4FF40057B84278
:1036D00009D12068016821F4005101602068016867
:1036E00041F40051016020680168490603D4016873
:1036F00041F040010160E0684FF48271B0F5006F65
:10370000606807D0002867D088426ED1E08E01281B
:1037100062D06AE020B188420CD1E08E012809D144
:10372000206B21680088C860206B801C2063E08EBD
:10373000401EE086E08E80B9A06AB84244D120687D
:10374000016841F4805101603EE02068C068A16BCF
:103750000880A06B801CA0639EE0434600220221EB
:10376000204606F065FB002874D1206B2168008894
:10377000C860206B801C2063E08E401E0004000C9B
:10378000E08609D1A06A00E0C7E0B84204D1206811
:10379000016841F480510160434600220121204626
:1037A00006F046FB00286FD12068C068A16B088036
:1037B000A06B801CA063E08F401EE087E08E002895
:1037C000CBD1606800286AD14346002201212046FF
:1037D00006F02EFBF0BBB8E7206B411C216321688B
:1037E0000078C860E08E401EE086E08E98B9A06A3E
:1037F000B84204D12068016841F480510160434619
:1038000000220121204606F013FB18BB2068C06887
:10381000A16B087040E0434600220221204606F0DA
:1038200007FBB8B9206B411C216321680078C86090
:10383000E08E401E0004000CE08607D1A06AB8426A
:1038400004D12068016841F48051016000224346A0
:10385000012100E018E0204606F0EAFAA0B920684D
:10386000C168A06B421CA2630170E08F401EE0871C
:10387000E08E0028CFD1606888B94346002201213C
:10388000204606F0D5FA08B103200EE72068C1688B
:10389000A06B421CA2630170E08F401EE087A06A0B
:1038A000B84210D1434600220121204606F0C0FA5A
:1038B00018B1606D40F002000FE02068C068ADF8FC
:1038C0000000BDF80000434601228021204606F09A
:1038D000AFFA20B1606D40F020006065D4E784F855
:1038E000516020688168A26AC1F30011BA4210D108
:1038F00079B1616D41F002016165016821F4005107
:1039000001602068016841F40051016084F8505062
:10391000CAE684F850500020C7E60220C5E670B51C
:1039200015460E46040003D094F8490010B107E094
:10393000012070BD002084F84800204600F01AF8ED
:1039400004F108012068FDF7CBFD3146A26820682C
:10395000FDF702FED4E901022946236BFDF7A0FD25
:10396000A168206850F8212042F0010240F821208F
:10397000002070BD1A4800B5016887B041F0010110
:103980000160006800F001000590154808380168E2
:1039900041F008010160016801F00801059101682A
:1039A00041F0100101600068694600F010000590C8
:1039B0004EF2B3700090022001900120029003208B
:1039C00003900C2004900748FEF7E0FC4FF680704F
:1039D000009069460448FEF7D9FC07B000BD00001E
:1039E00038380240000C0240001002404FF0E02145
:1039F0000428086903D020F004000861704740F0F3
:103A00000400FAE710B5401EB0F1807F01D3012019
:103A100010BD4FF0E02460610F21601705F050FFEA
:103A20000020A06107202061002010BD7047704772
:103A300030B590F83820012A20D0012280F83820B3
:103A4000022380F8393003685C6824F070045C60FD
:103A500003685C680D682C435C6003689C6824F014
:103A600080049C6003689C6849680C439C6080F8F3
:103A70003920002180F83810084630BD022030BDC2
:103A800010B5040003D094F8390010B107E001200C
:103A900010BD002084F83800204600F00DF8022008
:103AA00084F83900211D206806F0A0FA012084F86E
:103AB0003900002010BD000038B51E4B02681E49B9
:103AC0009A4207D10A6842F080020A600A6802F04E
:103AD00080020092184A194C0368121DA34207D1B4
:103AE000136843F400331360126802F4003209E0F3
:103AF000134CA34207D1136843F480231360126868
:103B000002F4802200920068B0F1804F11D1086861
:103B100040F0010008600868002200F001000090F9
:103B200011461C20FEF7E4FEBDE838401C20FEF7DD
:103B3000D3BE38BD001C0040403802400044014064
:103B4000004801400168CA6842F00102CA6000688A
:103B5000016841F0010101600020704770B5044622
:103B600090F83800012817D0012584F83850022039
:103B700084F839002068826822F0770222F47F42BC
:103B800082600868502837D00DDC202859D005DC29
:103B900088B3102841D151E0022070BD302853D0A5
:103BA00040283AD13FE060282ED070280BD0B0F5E5
:103BB000805F03D0B0F5005F2FD110E020688168EE
:103BC00021F0070115E0CB68D1E90121206806F05A
:103BD00078FA2168886840F0770088601DE0CB683B
:103BE000D1E90121206806F06CFA2068816841F46F
:103BF0008041816011E01EE0CA684968206806F0D3
:103C000029FB5021206806E0CA684968206806F050
:103C100032FB6021206806F05EFA84F839500020FB
:103C200084F8380070BDCA684968206806F012FB45
:103C300040212068EFE700212068ECE71021206890
:103C4000E9E720212068E6E730212068E3E77047B4
:103C500070B50446006801694FF00005C943890743
:103C600015D4C168C943890711D4E91E0161012037
:103C70002076206880698007204602D0FFF7E7FFA2
:103C800004E000F0EFF8204600F071F92576206896
:103C90000169C943490717D4C168C943490713D407
:103CA0006FF004010161022020762068806910F421
:103CB000407F204602D0FFF7CAFF04E000F0D2F8B0
:103CC000204600F054F9257620680169C9430907A8
:103CD00016D4C168C943090712D46FF00801016105
:103CE000042020762068C0698007204602D0FFF7B4
:103CF000AEFF04E000F0B6F8204600F038F9257673
:103D000020680169C943C90617D4C168C943C906F7
:103D100013D46FF010010161082020762068C0697B
:103D200010F4407F204602D0FFF791FF04E000F03E
:103D300099F8204600F01BF9257620680169C943EF
:103D4000C90708D1C168C943C90704D1891E0161E7
:103D5000204600F029F920680169C943090609D401
:103D6000C168C943090605D46FF08001016120468E
:103D7000FFF75CFE20680169C943490609D4C168A0
:103D8000C943490605D46FF040010161204600F0A7
:103D9000EDFB20680169C94389060BD4C168C9439A
:103DA000890607D46FF0200101612046BDE870400C
:103DB000FFF73DBE70BD00002DE9F04186B007461B
:103DC00014216846FCF758FA214938680025214C2F
:103DD0000226DFF88480884212D1206840F020005B
:103DE0002060206800F02000059088150090CDE943
:103DF00001650920CDE9035069464046FEF7C6FA41
:103E0000164A39680320914209D1216841F0200106
:103E10002160216801F02001059140210BE0104A4A
:103E2000914211D1216841F020012160216801F007
:103E30002001059180210091CDE90165CDE9035074
:103E400069464046FEF7A2FA06B0BDE8F0810000E0
:103E5000001C004030380240001402400044014081
:103E600000480140704770B5044690F838000D4690
:103E700001280DD0012684F83860022084F839002A
:103E800042B1042A18D0082A2AD00C2A4DD139E090
:103E9000022070BD206806F027F92068816941F092
:103EA000080181612068816921F004018161206835
:103EB00081692A69114311E0206806F041F9206800
:103EC000816941F4006181612068816921F4806128
:103ED0008161206881692A6941EA0221816124E0C7
:103EE000206806F05FF92068C16941F00801C161EE
:103EF0002068C16921F00401C1612068C1692A6993
:103F0000114311E0206806F07DF92068C16941F491
:103F10000061C1612068C16921F48061C1612068CC
:103F2000C1692A6941EA0221C16184F8396000202F
:103F300084F8380070BD10B5040003D094F839003F
:103F400010B107E0012010BD002084F838002046A1
:103F500000F00CF8022084F83900211D206806F0DA
:103F600045F8012084F83900002010BD70477047E3
:103F700010B504460068012206F098F80849206848
:103F8000884202D00749884203D1416C41F4004184
:103F900041642068016841F001010160002010BD0A
:103FA00000000140000401402DE9F04F2DED088B89
:103FB00085B0FE4988427DD1FD4DDFF8F883A888A1
:103FC000401C81B2A980E888401CE8802889401CF8
:103FD00028816889401C68819FEDF78B4FF00009AC
:103FE000322968D3F648A5F804904E460078032895
:103FF00061D12878DFF8CCA301287DD1F24C20686C
:10400000B0B9002208215046FEF7AFFA0022042181
:104010005046FEF7AAFA1E2009F0D0F90122082125
:104020005046FEF7A2FA002204215046FEF79DFA00
:104030002068A346401C2060B8F80020521CA8F855
:10404000002007F091F920683C2800D12E70DF4C49
:1040500053EC182B94ED000B51EC100BFCF7D3F93B
:10406000DB4E41EC190B3068FCF7B4FA53EC192B1A
:10407000FCF746FB7DD894ED000BB0EE481AF0EE4D
:10408000681A53EC112B51EC100BFCF71BF941ECA7
:10409000190B3068FCF79EFA53EC192BFCF718FB50
:1040A00067D82878012864D19BF800006870FDF774
:1040B00029F901E037E2DBE0C648C74C0268C7488F
:1040C000FA3A2260B8F80030697807F075F920688C
:1040D000FCF780FAC24ECDE9000141EC190B96EDD8
:1040E000660B9FEDC0AB51EC100B53EC1A2BFCF799
:1040F00090F953EC192B00E064E0FCF784F9FCF72D
:104100009BFA002800DA404200EE100A0027112432
:10411000B8EEC0BADDE9000141EC190B04EB440034
:1041200006EBC00053EC1A2B90ED000B51EC100B7A
:10413000FCF76FF9834653EC192B0291FCF763F9F6
:10414000FCF77AFA002800DA404200EE100AB8EED6
:10415000C00AB4EECB0AF1EE10FA18D8DDE900017E
:1041600041EC100B0299274641EC11BB53EC102B8C
:1041700000E023E051EC110BFCF745F9FCF75CFA89
:10418000002800DA404200EE100AB8EEC0BA641C03
:10419000E4B2222CBED907EB470006EBC00090ED3D
:1041A000040B8DED020B90ED020B8DED000B90EDED
:1041B000000B8EA053EC102B07F0FEF8804800781F
:1041C000032855D12878002852D17F4C20683C28FC
:1041D00017D1834807EB470100EBC10090ED020BBC
:1041E00051EC100BFCF728FA05F064FD00220821C1
:1041F00056465046FEF7B9F9002204213046FEF734
:10420000B4F920684646401E2060B8F80010491EE8
:10421000A8F8001007F0A8F86878318808388142BB
:104220001AD10022082157465046FEF79EF9012276
:1042300004213846FEF799F9322009F0BFF8328898
:10424000697874A007F0B8F82068401E20603188B3
:10425000491E318007F088F82068002808DC002219
:1042600004215046FEF781F9FCF746FE0120287034
:10427000E8880A282DD3A5F8069009F027F909F057
:1042800041F901F0D7F86648664A674990ED010A9E
:1042900010EE100A90420BDCB5EEC00AF1EE10FAF7
:1042A00006DBBDEEC00A10EE100AC0F1B4000FE04C
:1042B000B5EEC00AF1EE10FA0BD210EE100A5B4A0E
:1042C000904206D8BDEEC00A10EE100AB43040424B
:1042D00008602889282867D3DFF854A1BAF80000BD
:1042E000012861D13A4EA5F8089052A0316807F034
:1042F00063F833480078022856D13068A0F5007181
:104300009A3951D0FCF766F941EC100B2F4805F0B3
:104310006BFCB0EE409AF0EE609A4446B8F80000AC
:10432000FCF769F953EC192BFBF7CCFFFCF7A3F969
:1043300080B2208007F018F83168424EA87846F81D
:104340002010401CC0B2A8700A2801D185F8029044
:104350001E4F002453EC182B97ED000B51EC100B63
:10436000FCF751F841EC190B56F82400FCF732F930
:1043700053EC192BFCF7ACF970D397ED000BB0EEB2
:10438000481AF0EE681A53EC112B51EC100BFBF7A6
:1043900099FF41EC190B56F82400FCF71BF953EC7C
:1043A000192BFCF7ADF94FE058E00000600D00203C
:1043B000CC06002030000020000000000000184063
:1043C000000000200010024018000020E00600203D
:1043D000240000201C00002020000020BC2D01082B
:1043E000380000200000000000408F4064697374B2
:1043F000616E63653A2025662020616E676C653AC0
:104400002025662020766F6C746167653A202566EA
:104410000A0000002A2A202564202564200A0000C2
:10442000000C00200000344334000020000034C39E
:104430002A000020646966666572656E63653A20CD
:1044400025640A00C00C002008D3092C01D1AAF869
:104450000090641CE4B20A2CFFF47CAF6889052844
:1044600061D33348A5F80A90008801285BD1314A0E
:104470003149324804F0E2FE314A3249324804F010
:10448000F6FE01F081F8DFF8C490D9F80800FCF7D7
:104490000BF906460F46D9F80400FCF705F9044667
:1044A0000D46D9F80000FCF7FFF88DE8F00041EC6C
:1044B000100B27A053EC102B06F07EFF99ED020A9B
:1044C000274910EE100A884214D810EE100A254928
:1044D00088420FDCFCEEC00A10EE900AF3EE0E0AE2
:1044E000A8F8000030EE200ABDEEC00A10EE100A57
:1044F00006F03AFF99ED000AB1EE400AB5EEC00AA7
:10450000F1EE10FA0FDB10EE100A174988420ADCB0
:1045100005B0BDEEC00ABDEC088B10EE100ABDE878
:10452000F04F05F0C7BB05B0BDEC088BBDE8F08FC0
:104530002C000020DC050020DA050020D805002032
:10454000E2050020E0050020DE0500200C0C002024
:10455000252E32662C252E32662C252E32660A0038
:104560000000F0C10000F04100004842704710B563
:1045700004460068416921F0800141612068416979
:1045800021F040014161206B08B1FDF719FD606B1E
:1045900008B1FDF715FD012084F83900002010BD99
:1045A0007047000038B5016804460868CA6810F012
:1045B000010F02F4807207D032B108684868009099
:1045C000E06B40F00100E06308684A69C0F3400016
:1045D00002F0010238B132B1086848680090E06B1F
:1045E00040F00400E06308684A69C0F3800002F00C
:1045F000010238B132B1086848680090E06B40F0C1
:104600000200E0630868C0F3C002486900F00100DE
:104610003AB130B1086848680090E06B40F008009B
:10462000E0630868C968C0F3401001F0200118B1C8
:1046300011B1204606F0CEFC21680868C968C0F3B5
:10464000C01001F0800118B111B1204606F0D2FD72
:1046500021680868CA68C0F3801002F04002012592
:1046600070B16AB1CA68204622F04002CA6094F86C
:10467000391032290DD080F8395000BF00F094FA7B
:10468000E06B002804D084F839502046FFF788FFFB
:1046900038BD222180F83910F0E708B501680A68B2
:1046A00049680091FFF763FF05F02CFBBDE8084067
:1046B00005F012BC70B5040004D094F83900002550
:1046C00010B106E0012070BD84F83850204600F09B
:1046D00021F8022084F839002068C16821F40051D3
:1046E000C160204606F0CAFC2068016921F49041AF
:1046F00001612068416921F02A0141612068C16897
:1047000041F40051C160E563012084F839000020C4
:1047100070BD00002DE9F04387B0064614216846BD
:10472000FBF7AAFD634D624930680024DFF88491ED
:10473000143D02274FF0030888421DD1D9F800101C
:1047400041F02001C9F80010D9F8000000F0200065
:104750000590286840F0040028602868029400F062
:1047600004000590C020CDE900070820CDE90380B2
:1047700069465148FDF70AFE504833680721504A00
:10478000834220D1D9F8003043F01003C9F800303B
:10479000D9F8000000F010000590286840F00100F2
:1047A00028602868029400F001000590CDE903819B
:1047B0004FF4C060CDE9000769461046FDF7E6FDFD
:1047C00007B0BDE8F0833B48DFF8F8C0001F634541
:1047D00020D1036843F400330360006800F4003024
:1047E0000590286840F0010028602868029400F0D5
:1047F00001000590CDE903810C20CDE90007694651
:104800001046FDF7C3FD002211462620FEF770F882
:1048100026204AE02C4A9342D2D1026842F48022F8
:104820000260006800F480200590286840F00200D3
:1048300028602868029400F002000590CDE9038109
:104840004FF44060CDE9000769462048FDF79EFD22
:10485000204D1F484FF000682860C5E90184071506
:10486000C5E903476C61AC61EC612C6228466C625F
:10487000FDF7A0FC75631648AE6358353030E5E8A7
:104880000208402091C5134845F814495830AC61DE
:10489000EC612C626C62FDF78DFC356300221146E1
:1048A0002720AE63FEF724F82720FEF715F887E7E8
:1048B000001401404438024000080240001001404A
:1048C0000000024000440040004800400004024054
:1048D00028600240C00800202DE9F047044690F807
:1048E000390099460D46012801D0122858D12DB320
:1048F00022B394F83800012852D0012684F8386099
:104900000027E76394F8390012281AD05FF02200DC
:1049100084F83900A285E2854FF48058E08D4B463B
:10492000401EE085A0684FF0000240454FF0200196
:10493000204616D106F091FCB0B904E00120BDE894
:10494000F0873220E4E7206900282068406803D01F
:10495000C1B225F8011B12E0C0F3080125F8021BC3
:104960000DE006F07AFC08B10320E8E72069002892
:104970002068406801D000F07F0005F8010BE08D51
:104980000028CBD194F83900322805D084F839605A
:1049900084F838700020D2E7122084F83900F7E755
:1049A0000220CCE770B5044690F83900012801D008
:1049B000122832D169B362B394F8380001282CD0A0
:1049C000012084F83800A162A2850025E56394F8EF
:1049D000390012281FD0222084F83900636B104858
:1049E000D863636B0F481864636B0F48986408467C
:1049F0001346666B216802463046091DFDF716FC1A
:104A00002068416941F04001416184F8385000203C
:104A100070BD012070BD3220DEE7022070BD0000B5
:104A20005DAF000893AF00083DAF0008054910B521
:104A3000884205D105F066F9BDE8104005F04CBA92
:104A400010BD000000080020704700002DE9F0476D
:104A5000044690F8390099460D46012801D02228D5
:104A600058D12DB322B394F83800012852D0012632
:104A700084F838600027E76394F8390022281AD0B8
:104A80005FF0120084F83900A284E2844FF4805869
:104A9000E08C4B46401EE084A0684FF00002404589
:104AA0004FF08001204613D106F0D7FB08BB04E08D
:104AB0000120BDE8F0873220E4E728882168C0F3B0
:104AC00008004860206908B16D1C08E0AD1C06E0D4
:104AD00006F0C3FB68B9216815F8010B4860E08C4B
:104AE0000028D5D14B4600224021204606F0B5FBD8
:104AF00008B10320DDE794F83900322806D084F8A5
:104B0000396000BF84F838700020D2E7222084F892
:104B10003900F7E70220CCE770B5044690F8390079
:104B2000012801D0222836D181B37AB394F8380015
:104B3000012830D0012084F838002162A284E28468
:104B40000025E56394F83900222822D05FF0120096
:104B500084F83900236B1148D863236B104818641C
:104B6000236B1048986426681346321D206BFDF7AE
:104B70005DFB21686FF0400008602068416941F0EA
:104B80008001416184F83850002070BDFFE70120AA
:104B9000FBE73220DCE70220F7E700009DAF0008CA
:104BA000CBAF00083DAF00080349884202D103495A
:104BB0000120087070470000000800206C060020EB
:104BC0007047FEE770B50E4C0025C4F894520D48AE
:104BD000016821F440210160016841F480210160F5
:104BE0000948C0F8A452022004F5257408F0F4FB2B
:104BF00001202060022008F0EFFB256070BD00005E
:104C00000000424200140240008042420349012059
:104C1000C1F894020249C1F8A40270470000424260
:104C20000080424270B50E4C0025C4F894520D48E5
:104C3000016821F440210160016841F48021016094
:104C400009480126C0F8A462022004F5257408F082
:104C5000C3FB2660022008F0BFFB256070BD00008A
:104C60000000424200140240008042422DE9F04719
:104C7000824617480024016821F440210160016840
:104C80000160144EDFF85090254627464FF001088A
:104C9000C6F89472022008F09FFBC6F89482600662
:104CA000040ED9F8240208B1641CE4B2012008F013
:104CB00093FB6D1CEDB2082DEAD3BAF1000F04D0BE
:104CC000FFF780FF2046BDE8F087FFF7ABFFF9E76D
:104CD0000014024000004242008042422DE9F047A9
:104CE00006461548016821F440210160016841F43D
:104CF00080210160114D0027C5F89472DFF84080D3
:104D00003C464FF00109F109C8F8A4127006060EDE
:104D1000022008F061FBC5F89492022008F05CFBC9
:104D2000C5F89472022008F057FB641CE4B2082C0A
:104D3000E9D3BDE8F08700000014024000004242C1
:104D40000080424270B50F48016821F440210160A3
:104D5000016841F4802101600B4C0120C4F8A402D9
:104D60000A4DC5F89402042004F5297405F525754B
:104D700008F032FB00262660042008F02DFB2E6090
:104D800070BD000000140240008042420000424218
:104D900070B50F48016821F440210160016841F4B9
:104DA000802101600B4C0020C4F894020A4DC5F824
:104DB000A402042004F5257405F5297508F00CFB00
:104DC000012020602860BDE87040042008F004BB8A
:104DD0000014024000004242008042422DE9F041AE
:104DE00012480024016821F440210160016801603B
:104DF0000F4D0126C5F8A462304608F0EDFA0D4FBC
:104E0000C7F89462012008F0E7FA08E0641CE4B2F5
:104E1000FA2C04D9FFF7BCFF0120BDE8F081D5F8DA
:104E200024020028F2D1C7F89402F6E700140240E9
:104E3000008042420000424200B5B0EE416A2DEDD2
:104E4000068BF0EE605AB0EE404ADFED546A544AE9
:104E500021EEA10A92ED005AD2ED013A02EE020AC9
:104E600092ED023AD2ED034A25EE057A25EE238A29
:104E700025EE039A02EEA20A63EEA37A63EEA49AE9
:104E800063EE038A63EE24AA24EEA4AA08F0FEFBD4
:104E900039EEC91A61EE801A22EE002A62EE800A0B
:104EA000B0EE000A3E4861EE002A38EE2A1A1438A5
:104EB00021EE000A37EE671A31EE681A31EE0A7AEF
:104EC00022EE071A00EEC01A60EEA20A21EE800A56
:104ED00041EEC70A02EE620A90ED027ADFED312A56
:104EE00001EE227A80ED027A90ED032A00EEA22AEA
:104EF00080ED032AD0ED041A40EE221AC0ED041A08
:104F0000D0ED002A02EE814A90ED011A42EEA05A3D
:104F100002EE806A01EE074A41EE025A01EE216A72
:104F200023EEC40A03EE650A04EEC60A00EE265A12
:104F300025EE040A03EE060A04EEE50A40EE263AE0
:104F400025EE250A03EEC60A04EE840A00EE263A90
:104F500025EE060A03EEA50A03EE440A40EE264AB1
:104F600025EE050A03EEA30A03EE030A04EEA40AE3
:104F700008F08CFB65EE000AC2ED000A63EE800AC1
:104F8000C2ED010A63EE000A24EE800AC2ED020AB5
:104F900082ED030ABDEC068B00BD00000AD7233B5F
:104FA000880600200AD7A33B00B5B0EE414A2DED9C
:104FB000068BF0EE603AB0EE403A9FED616A614ACE
:104FC00021EEA10AD2ED006AD2ED015A02EE020AE8
:104FD00092ED025AD2ED034A66EEA67A66EEA58AF3
:104FE00026EE857A02EEA20A25EEA58A65EEA4AA2F
:104FF00025EE059A25EE24AA64EEA49A08F046FB55
:1050000061EE800A7AEEC71AB0EE001A22EE002A8C
:1050100022EE800A21EE817A78EE8A1A49482438F5
:1050200061EE812A37EEC81A60EE071A31EE491A8E
:1050300071EE297A22EE271A40EEE71AD0ED027AB5
:1050400060EEA20A00EE621A9FED3F0A42EE470AA6
:1050500041EE007AC0ED027A90ED037A01EE807A9B
:1050600080ED037AD0ED042A40EE802AC0ED042AB8
:1050700090ED002A02EE013A90ED011A42EE213A3B
:1050800002EE204A01EE273A41EE073A01EE224AAB
:1050900060EE030A20EE231A20EE040A60EEA00A56
:1050A00041EE010AB4EE001A40EE000A25EEC30AF2
:1050B00005EE630A04EEC40A60EE061AB7EE000AB3
:1050C00000EEC10A40EE261A61EE830A45EE040A9C
:1050D00044EEE30A20EE862A61EEA30A00EE252ABA
:1050E00042EE440A44EE830A60EE862A61EE840AA8
:1050F00040EE052A42EE230A42EEC30A20EE863A2B
:1051000000EE243A21EEA10A02EE020A02EEA20A01
:1051100003EE030A08F0BAFA61EE800AC2ED000A53
:1051200062EE000AC2ED010A62EE800A23EE000A76
:10513000C2ED020A82ED030ABDEC068B00BD000041
:105140000AD7A33B980600200AD7233C70B54C4EE3
:1051500004462DED068B96ED000B9FED4A9B51EC1E
:10516000100B53EC192BFBF754F941EC1A0B474881
:1051700090ED000AB8EEC00A9FED458A20EE080ABD
:1051800010EE100AFBF790FA53EC1A2BFBF79AF883
:10519000FBF7CEFA206096ED020B53EC192B51EC85
:1051A000100BFBF736F941EC1A0B3A4890ED000A68
:1051B000B8EEC00A20EE080A10EE100AFBF774FAE7
:1051C00053EC1A2BFBF77EF8FBF7B2FA606096ED12
:1051D000040B53EC192B51EC100BFBF71AF941ECB3
:1051E000190B2D4890ED000AB8EEC00A20EE080A0F
:1051F00010EE100AFBF758FA53EC192BFBF762F884
:10520000FBF796FA0025A06054F82500FBF74CFA4E
:1052100006EBC5026D1CC2E90001032DF4DB1F483B
:105220009FED1F1A90ED000A2048B8EEC00A60EE0C
:10523000010A9FED1C0AC0EE801ADFED1B0A81EE09
:10524000A02A84ED032AD0ED001A1948F8EEE11ADD
:1052500021EE812AC2EE001A81EEA02A84ED042AF2
:10526000D0ED001AF8EEE11A61EE811A81EE801A93
:1052700081EE200A84ED050ABDEC068B70BD0000AE
:10528000D00B0020000000C0CCCCE43FB4060020CE
:105290003333B33EB8060020BC060020A806002029
:1052A000560E49400000344333338341AC0600209E
:1052B000B006002070B5524E04462DED068B96EDDB
:1052C000000B9FED509B51EC100B53EC192BFBF78F
:1052D000A0F841EC1A0B4D48B0F9000000EE100A9E
:1052E000B8EEC00A9FED4A8A20EE080A10EE100AB6
:1052F000FBF7DAF953EC1A2BFAF7E4FFFBF718FA8D
:10530000206096ED020B53EC192B51EC100BFBF7C0
:1053100080F841EC1A0B3F48B0F9000000EE100A8B
:10532000B8EEC00A20EE080A10EE100AFBF7BCF92E
:1053300053EC1A2BFAF7C6FFFBF7FAF9606096ED0B
:10534000040B53EC192B51EC100BFBF762F841ECFA
:10535000190B3148B0F9000000EE100AB8EEC00A8F
:1053600020EE080A10EE100AFBF79EF953EC192BF9
:10537000FAF7A8FFFBF7DCF90025A06054F8250038
:10538000FBF792F906EBC5026D1CC2E90001032D83
:10539000F4DB2248DFED220AB0F9000000EE100A2B
:1053A0002248B8EEC00A20EE201A9FED1E0AC1EE78
:1053B000001A9FED1D1A81EE812A84ED032AB0F9AF
:1053C000000001EE900A1A48F8EEE11A21EEA02A38
:1053D000C2EE001A81EE812A84ED042AB0F90000A1
:1053E00001EE900AF8EEE11A61EEA01AC1EE800A11
:1053F00080EE810A84ED050ABDEC068B70BD0000CD
:10540000E80B0020000000C0CCCCE43FD805002011
:105410003333B33EDA050020DC050020DE05002032
:10542000560E49400000344333338341E0050020E9
:10543000E205002010B54E482DED0E8BFFF786FEDD
:105440004B4800F10C01D0EC031A91EC030AFFF772
:10545000F3FC4848F8EE00DAF0EE009A90ED019A7D
:10546000D0ED000AD0ED038A29EE2DCA20EEA9DA8C
:1054700090ED028A2CEE280A0DEE080A10EE100AB2
:10548000FBF712F941EC100B05F0C2FF9FED3AABB0
:1054900051EC100B53EC1A2BFAF7BBFF9FED38BB06
:1054A00053EC1B2BFBF727F8FBF742F92CEE090A0C
:1054B00068EE29EA2E4CB7EE00EA183C0EEEC80A58
:1054C000206030EE0E0A10EE100AFBF7EDF82EEE1B
:1054D000A80A41EC1C0B0DEE090A10EE100AFBF7AE
:1054E000E3F841EC100BB0EE4C1AF0EE6C1A06F03B
:1054F000ABFA53EC1A2B51EC100BFAF78AFF53EC72
:105500001B2BFAF7F8FFFBF713F928EE2D0A68EECC
:10551000A90A606020EE080A00EEE80A30EE0E0AE2
:1055200010EE100AFBF7C0F829EE290A41EC1C0B1B
:1055300020EE080A0DEE280A10EE100AFBF7B4F868
:1055400041EC100BB0EE4C1AF0EE6C1A06F07CFA3F
:1055500053EC1A2B51EC100BFAF75BFF53EC1B2B9F
:10556000FAF7C9FFFBF7E4F8A060BDEC0E8B10BDA5
:10557000180C002088060020000000000080664013
:10558000000000C0CA21094010B54E482DED0E8B19
:10559000FFF790FE4B4800F10C01D0EC031A91ECA0
:1055A000030AFFF701FD4848F8EE00DAF0EE009A32
:1055B00090ED019AD0ED000AD0ED038A29EE2DCAB4
:1055C00020EEA9DA90ED028A2CEE280A0DEE080AE8
:1055D00010EE100AFBF768F841EC100B05F018FF0D
:1055E0009FED3AAB51EC100B53EC1A2BFAF711FF6D
:1055F0009FED38BB53EC1B2BFAF77DFFFBF798F8B8
:105600002CEE090A68EE29EA2E4CB7EE00EA343C8B
:105610000EEEC80A206030EE0E0A10EE100AFBF7FC
:1056200043F82EEEA80A41EC1C0B0DEE090A10EE11
:10563000100AFBF739F841EC100BB0EE4C1AF0EE03
:105640006C1A06F001FA53EC1A2B51EC100BFAF716
:10565000E0FE53EC1B2BFAF74EFFFBF769F828EE40
:105660002D0A68EEA90A606020EE080A00EEE80A3A
:1056700030EE0E0A10EE100AFBF716F829EE290A92
:1056800041EC1C0B20EE080A0DEE280A10EE100A61
:10569000FBF70AF841EC100BB0EE4C1AF0EE6C1A66
:1056A00006F0D2F953EC1A2B51EC100BFAF7B1FEBD
:1056B00053EC1B2BFAF71FFFFBF73AF8A060BDEC89
:1056C0000E8B10BD400C002098060020000000004A
:1056D00000806640000000C0CA2109401CB54FF69A
:1056E000FF7000F0FBFA104C1F204FF4EB732060AA
:1056F000FA2240F2B3115F2000F0F4FB47F6FF708E
:1057000020600AA11820CDE900017823C8224FF4B7
:10571000DC71642003F0E1F8084901200880BDE84D
:105720001C40142004F0C6BA000600206261636BBE
:1057300020746F20696E6974000000002A00002048
:105740001CB54FF6FF7000F0C9FA134C1F204FF440
:10575000EB732060FA2240F2B3115F2000F0C2FB2D
:1057600047F6FF7020600DA11820CDE900017823D5
:10577000C8224FF4DC71642003F0AFF8002005F07C
:10578000F3FD0A4901200870094900200880BDE89E
:105790001C40142004F08EBA000600206261636B86
:1057A00020746F20696E697400000000CC06002030
:1057B000300000201CB54FF6FF7000F08FFA0E4C41
:1057C0001F204FF4EB732060FA2240F2B3115F20E8
:1057D00000F088FB47F6FF70206008A11820CDE993
:1057E00000017823C8224FF4DC71642003F075F8BF
:1057F0000649012008801CBD000600206261636B21
:1058000020746F20696E6974000000002C00002075
:105810002DE9FC5F4FF6FF7000F060FAF74A0020B8
:10582000F84DC2E90000F64A1F264FF48C78C2E911
:1058300000004346B422F0218C202E6000F052FB81
:105840004346DC22F021B42000F04CFB4FF482747C
:1058500043462246F021DC2000F044FB4FF4A079BF
:105860004B46B42241468C2000F03CFB4B46DC22E8
:105870004146B42000F036FB4B4622464146DC2030
:1058800000F030FB4FF4B47A5346B42249468C20E2
:1058900000F028FB5346DC224946B42000F022FBEE
:1058A000534622464946DC2000F01CFB4FF4C87BDF
:1058B0005B46DC225146B42000F014FB5B462246D6
:1058C0005146DC2000F00EFB5B46B42251468C2092
:1058D00000F008FB47F6FF77CBA018242F60CDE936
:1058E000004078231A46C821962002F0F6FFC9A08E
:1058F000CDE9004078231A46F521912002F0EDFF12
:10590000C5A0CDE9004078231A46F521B92002F060
:10591000E4FFC2A0CDE9004078231A46F521E1203A
:1059200002F0DBFFBEA0CDE9004078231A4640F22A
:105930001D11912002F0D1FFBAA0CDE900407823DB
:105940001A4640F21D11B92002F0C7FFB6A0CDE9FA
:10595000004078231A4640F21D11E12002F0BDFFFD
:10596000B2A0CDE9004078231A4640F245119120BB
:1059700002F0B3FFAEA0CDE9004078231A4640F212
:105980004511B92002F0A9FFAAA0CDE90040782373
:105990001A4640F24511E12002F09FFFA6A0CDE992
:1059A000004078231A4640F26D11B92002F095FFAD
:1059B000A2A0CDE9004078231A4640F26D11E12003
:1059C00002F08BFF9EA0CDE9004078231A4640F2FA
:1059D0006D11912002F081FF43463222F0210A200E
:1059E0002E6000F07FFA43465A22F021322000F068
:1059F00079FA43468222F0215A2000F073FA4B468E
:105A0000322241460A2000F06DFA4B465A224146A6
:105A1000322000F067FA4B46822241465A2000F0BD
:105A200061FA5346322249460A2000F05BFA534697
:105A30005A224946322000F055FA534682224946FE
:105A40005A2000F04FFA5B465A225146322000F0AD
:105A500049FA5B46822251465A2000F043FA5B46DF
:105A6000322251460A2000F03DFA4FF4EB73FA223D
:105A700040F2B3115F2000F035FAAA23C822822138
:105A8000462000F02FFA6FA02F60CDE90040782368
:105A90001A46C821142002F020FF5EA0CDE9004084
:105AA00078231A46F5210F2002F017FF5AA0CDE9FE
:105AB000004078231A46F521372002F00EFF57A048
:105AC000CDE9004078231A46F5215F2002F005FF5A
:105AD00053A0CDE9004078231A4640F21D110F2053
