:020000040800F2
:10000000B00A0020C1010008138400087B410008E9
:1000100011840008750D0008C99D0008000000004B
:10002000000000000000000000000000A789000898
:10003000CD10000800000000D9870008598A000888
:10004000DB010008DB010008DB010008DB01000820
:10005000DB010008DB010008DB010008DB01000810
:10006000DB010008DB010008DB010008DB01000800
:1000700041100008DB0100084D100008DB010008FA
:10008000DB010008DB010008DB010008DB010008E0
:10009000DB010008DB010008DB010008DB010008D0
:1000A000DB010008DB010008DB010008DB010008C0
:1000B000B18A0008DB010008DB010008DB01000851
:1000C000DB010008DB010008DB010008DB010008A0
:1000D000DB010008DB010008519D00085D9D000860
:1000E000DB010008DB010008DB010008DB01000880
:1000F000DB010008DB010008DB010008DB01000870
:10010000DB010008DB010008DB010008DB0100085F
:10011000DB010008DB010008DB010008DB0100084F
:10012000DB010008DB010008DB010008DB0100083F
:10013000DB010008DB010008DB010008DB0100082F
:10014000DB010008DB010008DB010008DB0100081F
:10015000DB010008DB010008DB010008DB0100080F
:10016000DB010008DB010008DB010008DB010008FF
:10017000DB010008DB010008DB01000800000000D3
:10018000DB010008DB010008DB010008DB010008DF
:10019000DB010008DB010008DB010008DB010008CF
:1001A000DB010008DB010008DB010008DFF80CD0F0
:1001B00000F054FC00480047F9B30008B00A0020E2
:1001C0000648804706480047FEE7FEE7FEE7FEE7F1
:1001D000FEE7FEE7FEE7FEE7FEE7FEE75D8A0008D2
:1001E000AD0100082DE9F0410024061B254671F100
:1001F000000605DA01240027D0EB070067EB0101B8
:10020000161E73F1000605DA0027D2EB070201255E
:1002100067EB030300F08AFA86460E4617469C46B3
:10022000AC4204D00025D0EB050E65EB010624B1ED
:100230000020D2EB000760EB030C704631463A46D3
:100240006346BDE8F08140EA01039B0703D009E063
:1002500008C9121F08C0042AFAD203E011F8013BB2
:1002600000F8013B521EF9D27047D2B201E000F80B
:10027000012B491EFBD270470022F6E710B513464A
:100280000A4604461946FFF7F0FF204610BD10B598
:10029000002200E0521C835C8C5CA34201D1002B45
:1002A000F8D1D8B2E1B2401A10BD70B5064609F0D7
:1002B000DBFD046805460A220021304600F098FA6A
:1002C0002C6070BD2DE9FE4F804681EA0300C00F0F
:1002D0000C46009021F0004123F00045B8EB0200ED
:1002E000A94105D24046214690461C460B4602468F
:1002F00023F00040104347D0270DC7F30A00C3F393
:100300000A510290401A019040286BDAC3F313009F
:1003100040F4801B0098924620B10023D2EB030AE0
:1003200063EB0B0B01985946C0F14002504600F0B8
:100330002EFA06460D4650465946019A00F046FAF6
:1003400010EB08006141002487EA115284EAE77348
:100350001A4340D0009A62B3019A012A4FEA075229
:1003600015DC001B61EB02014FF0004202EA07526C
:10037000CDE90042001C41F5801132462B4600F0C9
:10038000B5FA03B0BDE8F08F40462146F9E7001BFF
:1003900061EB0201001C41F5801300185B4120183D
:1003A000A2F5001747EB030140EAD570B6196D417D
:1003B00011E06D084FEA360645EAC0754FEA07526C
:1003C000001B61EB0201001C41F5801149084FEA56
:1003D00030000019514132462B4603B0BDE8F04FC2
:1003E00000F075BA0098012240000023D0EB020211
:1003F00063EBE073009821464FEAE074B8EB00002D
:1004000061EB0401E9E783F000435BE781F0004121
:1004100058E72DE9FE4F81EA030404F0004421F07F
:10042000004100944FF0000B23F0004350EA010418
:100430005ED052EA03045BD0C3F30A54C1F30A55F9
:100440002C44A4F2F3340194A0FB0254C1F3130131
:1004500041F48011C3F3130343F4801301FB0244FE
:1004600000FB034E840A970A44EA815447EA835703
:10047000A4FB076802958D0A05FB07854FEA932CBC
:1004800004FB0C542705029D4FEA065847EA16372D
:10049000B5EB08056EEB070C870E920E47EA811745
:1004A00042EA8312A7FB0201B6EB0B0164EB0004E6
:1004B0002B0D43EA0C335E1844EB1C50DA465146D0
:1004C000E7FB0201C5F313044FEA0B3343EA14536D
:1004D0004FEA0432019C43EA0603A4F10C0402949F
:1004E000009CCDE900B400F001FA03B0BDE8F08F44
:1004F00000200146F9E72DE9F04D81EA030404F0FC
:10050000004B21F0004514464FF0000A23F0004153
:1005100050EA050220D054EA01021DD0C5F30A5763
:100520000246C5F31303C1F31300C1F30A5640F4A6
:10053000801543F48013A7EB0608101BD64608F27B
:10054000FD3873EB050002D308F1010801E09218B1
:100550005B41B8F1000F03DA00200146BDE8F08DE1
:1005600000204FF48011064684460EE0171B73EB03
:10057000050705D3121B63EB050306434CEA010C88
:1005800049084FEA300092185B4150EA0107EDD16B
:1005900052EA030012D082EA040083EA050108430C
:1005A00005D0101BAB4106D20122002306E0002239
:1005B0004FF0004302E06FF0010253101AEB060007
:1005C0004CEB085110EB0A0041EB0B01BDE8F04D7C
:1005D00000F07DB90EB5C10F80EAE0700844CA078B
:1005E000002140F233438DE80E000A460B4600F02E
:1005F0007DF903B000BD0EB540F2334102910021F8
:10060000CDE900110A460B4600F070F903B000BDB9
:10061000C1F30A5210B5C1F3130140F2FF3341F4A4
:1006200080119A4201DA002010BD40F233439A4211
:10063000A2F2334203DC524200F0B8F810BD904001
:1006400010BD00F0004230F000400AD0C10D01F5AD
:100650006071C0F3160042EA0151C208400711431D
:10066000704700200146704730B5041E71F1000448
:1006700004DB4FF00044404264EB0101141E73F1AF
:10068000000405DB1C464FF00043524263EB0403B9
:100690008B4208BF824230BD30B5041E71F10004A8
:1006A00004DB4FF00044404264EB0101141E73F17F
:1006B000000405DB1C464FF00043524263EB040389
:1006C000994208BF904230BD01F0004330B421F0A0
:1006D000004150EA010206D00A0DA2F56072C1F392
:1006E0001301002A02DC30BC00207047440F44EAAA
:1006F000C104C100E01830BC00EBC25000F0B0B83B
:1007000030B50B46014600202022012409E021FAE1
:1007100002F59D4205D303FA02F5491B04FA02F5DE
:100720002844151EA2F10102F1DC30BD2DE9F05F75
:100730000546002092469B46884606468146402450
:100740001BE0284641464746224600F02FF8534614
:100750005A46C01A914110D311461846224600F05D
:1007600016F82D1A67EB01084F462246012000219A
:1007700000F00DF817EB00094E41201EA4F1010412
:10078000DFDC484631462A464346BDE8F09F202A32
:1007900004DB203A00FA02F1002070479140C2F1D8
:1007A000200320FA03F3194390407047202A04DB0A
:1007B000203A21FA02F00021704721FA02F3D040DA
:1007C000C2F120029140084319467047202A06DBF7
:1007D000CB17203A41FA02F043EAE07306E041FA0F
:1007E00002F3D040C2F120029140084319467047FD
:1007F0002DE9F04791460F4680460446002614F83E
:10080000015B2DB100F03CF90068405DC007F6D1F6
:100810002B2D02D02D2D18D0641E4A463946204675
:1008200000F032F927B13968A14201D1C7F8008040
:1008300071054FF002040BD54042002803DD09F09A
:1008400013FB0460A007BDE8F08746F48066E4E788
:100850000028F8DA09F008FB04606FF00040F2E7C6
:100860000029A8BF7047401C490008BF20F00100C4
:10087000704710B4B0FA80FC00FA0CF050EA0104A2
:1008800004BF10BC704749B1CCF1200421FA04F434
:1008900011FA0CF118BF012121430843A3EB0C010D
:1008A000CB1D4FEA00614FEA102042BF002010BC70
:1008B000704700EBC35010440029A4BF10BC704720
:1008C000401C490008BF20F0010010BC704710B563
:1008D000141E73F1000408DA401C41F10001921863
:1008E0005B411A4301D120F0010010BD2DE9F04D0C
:1008F00092469B4611B1B1FA81F202E0B0FA80F261
:1009000020329046FFF743FF04460F4640EA0A00B4
:1009100041EA0B0153465A46084313D0114653EAA5
:10092000010019D0C8F140025046FFF73FFF0546CD
:100930000E46504659464246FFF729FF084305D068
:10094000012004E020463946BDE8F08D0020054333
:1009500046EAE0762C4337430A986305E40AA0EBA5
:1009600008000022FD0A44EA47540A3002D500205C
:100970000146E9E7010510196941DDE9084500195B
:100980006941BDE8F04DA2E72DE9F04D00231A467C
:100990001B1A8A4103DB00200146BDE8F08DC1F33C
:1009A0000A52C1F3130141F480154FF0000BD10737
:1009B00002D100186D41521E0027044640F2FF117B
:1009C000384601EB620A3E468046024600204FF45C
:1009D0008011FFF7EBFEC2197141BB1846EB010015
:1009E000B4EB030C75EB000C04D3E41A65EB0005C3
:1009F00017460E46241908F101006D41804634283F
:100A0000E3DDF91946EB0600091BA84103D24FF0BC
:100A1000FF32134601E0002213461BEB070046EBB2
:100A20000A51BDE8F04DFFF752BFC1F30A52C1F3BE
:100A3000130140F2FF3341F480119A4202DA0020A0
:100A40000146704740F233439A42A2F2334202DC3D
:100A50005242FFF7ABBEFFF79ABE0000064C074DAF
:100A600006E0E06840F0010394E80700984710347E
:100A7000AC42F6D3FFF79EFB2409010844090108A4
:100A800000487047A40801082DE9F05F824600780D
:100A9000002715468B460AF10104B946302801D0DB
:100AA0009DB113E014F8010B0127782803D05828D2
:100AB00001D045B10AE00DB1102D07D10027102556
:100AC00014F8010B02E0082500E00A250026B046D4
:100AD0000EE005FB080005FB06F1012701EB1046BF
:100AE0001FFA80F8B6F5803F00D3B94614F8010B21
:100AF000294600F018F80028EBDABBF1000F05D00A
:100B00000FB1641E00E05446CBF80040B9F1000F6D
:100B100006D009F0A9F902210160C81EBDE8F09FC6
:100B200048EA0640FAE73A2800D2303820F020029E
:100B3000412A01D3A2F13700884201D34FF0FF30A0
:100B4000704703F03BBB2DE9F0410D460146002004
:100B500004464E1908E00702301B401E80B200F028
:100B600007F8641C3844E4B2AC42F4D3BDE8F08129
:100B700010B5044603F0CAFB200AA02101EB400097
:100B8000C0B203F093FB03F003FCE0B203F08EFB72
:100B900003F0FEFB03F0BAFBA12003F087FB03F098
:100BA000F7FB002003F04EFB044603F0CFFB20468A
:100BB00010BD2DE9F04116460D460746002409E018
:100BC000E00025FA00F0C1B2381980B200F006F852
:100BD000641CE4B2B442F3D3BDE8F08170B50D46B5
:100BE000044603F093FB200AA02101EB4000C0B2B1
:100BF00003F05CFB03F0CCFBE0B203F057FB03F027
:100C0000C7FB284603F052FB03F0C2FB03F09EFB38
:100C1000BDE870400A200AF0B1BA000070B50AF0D1
:100C2000F5FA0AF00FFB03F049FD142001F023F957
:100C30001148008800281ED1104C207802281AD1B3
:100C400000F0A8FF142001F016F90D4801680DA06E
:100C500009F0E2F80AF0C6FA052001F00CF90D4D92
:100C600028780028FDD000262670642001F003F9C2
:100C700000F01EF82E7070BD36000020000000202D
:100C80002C00002064697374616E63653A202564EA
:100C90000A0000003A00002010B50AF0B7FA0AF086
:100CA000D1FA03F00BFDBDE81040142001F0E3B8C9
:100CB00010B54FF6FF7004F0A9F81E2009F086F871
:100CC00004490020044A08801E211180034908803D
:100CD00010BD000034000020380000203600002045
:100CE00010B54FF6FF7004F091F81E2009F06EF871
:100CF00003490020086003491E20088010BD000041
:100D000020000020380000200E4810B5016886B091
:100D100041F00401016000680B4C00F004000590F4
:100D20000220009001200190029003200390694668
:100D3000204601F0ABF801220221204601F099F98A
:100D400006B010BD303802400008024010B5084C13
:100D500000220221204601F08CF9322001F08BF8AC
:100D600020460122BDE81040022101F082B90000B6
:100D700000080240FEE7000070B50E4C0025C4F8E4
:100D800098520D48016821F0C0010160016841F0EE
:100D9000400101600948C0F88C52022004F5267415
:100DA0000AF0FAF90120206002200AF0F5F9256026
:100DB00070BD000000804342002002400000444219
:100DC000154810B5016886B041F0800101600168E6
:100DD00001F080010591016841F4807101600068B3
:100DE000012400F4807005904020CDE90004032028
:100DF000CDE902406946094801F048F80820009012
:100E00006946074801F042F80648C0F88C42064897
:100E1000C0F8984206B010BD30380240001C0240B5
:100E200000200240000044420080434270B50E4C56
:100E30000026C4F898620D48016821F0C0010160E5
:100E4000016841F04001016009480125C0F88C5259
:100E5000022004F526740AF09FF9256002200AF0AA
:100E60009BF9266070BD00000080434200200240D4
:100E7000000044422DE9F0478246194800240168E9
:100E800021F0C0010160016801601E200AF084F9B0
:100E90000025144EDFF850902F464FF00108C6F899
:100EA000987202200AF078F9C6F898826006040E5B
:100EB000D9F80C0208B1641CE4B202200AF06CF903
:100EC0006D1CEDB2082DEAD3BAF1000F04D0FFF784
:100ED00053FF2046BDE8F087FFF7A8FFF9E70000C1
:100EE0000020024000804342000044422DE9F047C8
:100EF00005461548016821F0C0010160016841F014
:100F000040010160114E0027C6F89872DFF840805A
:100F10003C464FF00109E909C8F88C126806050E35
:100F200002200AF039F9C6F8989202200AF034F942
:100F3000C6F8987202200AF02FF9641CE4B2082C5B
:100F4000E9D3BDE8F0870000002002400080434262
:100F50000000444270B50F48016821F0C0010160F3
:100F6000016841F0400101600B4E0120C6F88C027F
:100F70000A4DC5F898021E2005F5267506F523765C
:100F80000AF00AF90024346002200AF005F92C6006
:100F900070BD000000200240000044420080434237
:100FA00070B50F48016821F0C0010160016841F08F
:100FB000400101600B4E0020C6F898020A4DC5F8AA
:100FC0008C021E2005F5237506F526760AF0E4F856
:100FD0000124346002200AF0DFF82C6070BD0000AC
:100FE00000200240008043420000444270B5114896
:100FF0000024016821F0C0010160016801600E4D0C
:101000000120C5F88C020D4EC6F8980207E0641C5A
:10101000E4B2FA2C03D9FFF7C3FF012070BD022010
:101020000AF0BAF8D5F80C020028F0D1C6F89802F8
:1010300070BD000000200240000044420080434296
:10104000014800F0E3BD000020020020014800F04C
:10105000DDBD00007802002001681823CAB2103AF2
:10106000B2FBF3F2054B6FF30901032A9B5C436566
:1010700000D9091D016508467047000002BF00083D
:1010800030B50468256825F4802525600468636010
:101090008368402B036803D099600068C26030BD4C
:1010A0009A600068C16030BD10B50122202104485B
:1010B0000AF0FDFE034948600349086010BD0000C6
:1010C0002C040020C40000203000002070470000E5
:1010D00070B5B3F5804F05D06FF0704140F8221025
:1010E000002070BD50F82230084C2340D1E9004563
:1010F00044EA05148D688E892D0245EA0645896902
:101100002C430C431C4340F82240E9E70000F0CF99
:10111000F0B50C6850F82450194A1540D1E9012364
:10112000D1E903671A433E4332434E6932438E6925
:101130003243CE6932430E6A32434E6A32438E6A7C
:101140003243CE6A3243CE6B32430E6B32434E6B28
:1011500032432A43082B01D142F0400240F82420B8
:101160004A6BB2F5801F08D10A6832B14FF4807221
:101170000A6104490268114301600020F0BD0000CB
:101180008000E0FF00011000F0B500EB8202536820
:101190008E8903F04044D1E9003543EA05138D6898
:1011A0002D0245EA06452B430E8A0D4D05EB0656EA
:1011B00033430E7D6F0107EB066633438E6933437D
:1011C000234353600268D20207D54268098A22F499
:1011D000700205EB0151114341600020F0BD000099
:1011E0000000F0FF30B5D1E901231A43D1E90334FF
:1011F00023431A434B690D681A438B691A43D1E99B
:101200000734012D496A05686FF30E0505D01A43AE
:1012100022430A432A43026008E0234329430B4345
:10122000416803606FF30E010A434260002030BD45
:10123000426942EA4101416100207047F8B5144615
:101240000546D1E9000210438A686FF01F03C968A0
:1012500003EB421242EA412108430090286100F06A
:101260000DFF064609E0601C07D024B100F006FF20
:10127000801BA04201D90320F8BDA8698006F2D4E2
:101280000020F8BDF0B56FF00F05D1E9003405EB93
:1012900004145B1E2E0123438C682F0306EB0424E9
:1012A0004FEA054C23430D8A8E8ACC68097E4FF0A5
:1012B0007F4E07EB05450CEB06560EEB0161012A4C
:1012C0000CD082683F1107EB043423432B43334394
:1012D00002F070420B43134383600FE0C2682B435C
:1012E0000B4302F070428168134301F07042210306
:1012F000A1F5805131431143C36081600020F0BDEE
:1013000070B54A4888B00024016841F0800101604E
:10131000016801F080010791016841F4807101606A
:10132000006802A900F4807007908020012581E800
:101330003100032005903E4800F0A8FD2802CDE9C9
:10134000020502A93B4800F0A1FDFFF739FD3A4E26
:10135000C6F8A042142006F5287609F00FFF356084
:10136000322009F00BFF8DF8004002226946A120CF
:1013700000F072F89DF80000302803D19DF80110AC
:10138000032931D09DF8011001292DD002292BD03D
:101390000422694648F2401000F07CFA8DF80440BF
:1013A000694626A008F038FD2748009948F2400514
:1013B000C0F8021002208DF800000122694628467C
:1013C00000F0BEFB01226946E81D00F063FA0A2026
:1013D00009F0D4FE8DF8004001226946284600F04D
:1013E000AFFB08B0002070BDC9B201EB002117A00F
:1013F00008F012FD01226946002000F089F901225F
:101400006946A42000F084F916208DF8000001221E
:101410006946802000F07CF90C208DF80000012244
:101420006946882000F074F9DBE70000303802409C
:10143000001C02400020024000004442435450205F
:1014400049443A25730D0A00680000204354502097
:1014500049443A25780D0A002DE9F04115460F461A
:101460000446FFF777FD7020FFF740FDFFF7BEFD54
:10147000E0B2FFF73BFDFFF7B9FDFFF76BFD712011
:10148000FFF734FDFFF7B2FD00246E1E09E0B44201
:1014900001D0012000E00020FFF7ECFC3855641C6F
:1014A000E4B2AC42F3D3BDE8F041FFF779BD0000F0
:1014B0002DE9F14783B00027904E8DF804704FF06E
:1014C0000A0A70788E4C401CC0B2B0FBFAF20AFBDC
:1014D0001201B846707009B10A2870D2874889A1F4
:1014E000801CFEF7D4FE4FF0010203A908B30220CE
:1014F000FFF7B2FF9DF80C00010760D000F00F016C
:10150000307881425BD8FF228A40D14394F83490EE
:1015100041F0C00184F8341004EB4000A1894181FE
:10152000218CC183032009F029FE8DF80470764DCB
:1015300091E048F24E15284600F0ACF99DF80C00F9
:101540000106D7D5317800F00F008842D2D88DF847
:101550000470012201A9284600F0F2FACAE794F8C3
:10156000341001228240114270D0644865A1801C71
:10157000FEF78DFE20B365489DF80410042230F874
:1015800011006946FFF768FF94F844009DF80010C9
:10159000C0079DF8010001F00F0145D000EB0121CB
:1015A0009DF8040004EB400001849DF802209DF8A2
:1015B000031002F00F0201EB0221818146E065E099
:1015C00052489DF804100A30042230F81100694690
:1015D00000F060F994F844009DF80310C0079DF8EE
:1015E000020011D000EB01206988091A9DF804005F
:1015F00004EB400001849DF800109DF8012001EBF0
:1016000002212A88511AD8E700EB01219DF8040035
:1016100004EB400081819DF800109DF8012001EB52
:1016200002216A88511A10E000EB01202988091A6A
:101630009DF8040004EB400081819DF802209DF894
:10164000031002F00F0201EB022101849DF8040057
:10165000401C8DF804009DF8040031788842FFF4A6
:101660007EAFA08929884FF00108884203D8208CDA
:101670006988884209D99DF80C0000F00F00012804
:1016800012D9E089A081608C208477701B481DA14D
:10169000801CFEF7FCFD00289DF80C004FF6FF7142
:1016A0000FD0C00624D01AE0307804EB4000418906
:1016B000A181C08B208480208DF80C0084F83490A8
:1016C000E4E700F08F00802812D008E020F08000CE
:1016D00003E0A181218400F0E00084F834007078F8
:1016E000F02801D986F801A004B04046BDE8F08793
:1016F00094F834000206ECD5E8E70000680000200A
:101700007800002039313100200300204A0601080A
:101710002DE9F04115460E4604460027FFF71AFC56
:101720007020FFF7E3FBFFF761FCE0B2FFF7DEFBA1
:10173000FFF75CFC002408E0305DFFF7D7FBFFF704
:1017400055FC070003D1641CE4B2AC42F4D3FFF7AC
:1017500027FC3846BDE8F0812DE9F0433E4889B0CA
:101760000024016841F080010160016801F08001FE
:101770000791016841F4807101600068802600F4DF
:101780008070079001AA012503270096DFF8CC900E
:1017900082E8B0006946484600F078FB2802CDE9AF
:1017A000000569462E4800F071FBFFF709FBDFF8E2
:1017B000B480C8F8A0420A2009F0E0FCC8F8A052A2
:1017C0000A2009F0DBFCCDE90064CDE90247694657
:1017D000484600F05BFB642009F0D0FC042205A918
:1017E00048F2401000F056F88DF8184005A91EA0E8
:1017F00008F012FB1FA105A8FEF749FD40BB02201F
:101800008DF8140048F24005012205A9284600F091
:1018100097F9012205A9E81D00F03CF89DF8141085
:1018200060290BD215A008F0F7FA19488088A0F5B6
:10183000AA41103902D1012000F05CF90A2009F018
:101840009DFC8DF81440012205A9284600F078F986
:1018500009B00020BDE8F08330380240001C02408F
:1018600000200240000044424354502049443A259D
:10187000730D0A0039313437000000004465666199
:10188000756C74205665723A25640D0A00000000DC
:10189000200300202DE9F04115460F460446FFF7CE
:1018A00059FB2820FFF722FBFFF7A0FB200AFFF7D8
:1018B0001DFBFFF79BFBE0B2FFF718FBFFF796FB62
:1018C000FFF748FB2920FFF711FBFFF78FFB0024F0
:1018D0006E1E09E0B44201D0012000E00020FFF7B5
:1018E000C9FA3855641CE4B2AC42F3D3BDE8F04108
:1018F000FFF756BB2DE9F14F7A4E00244FF00A0B4B
:10190000307882B0401CC0B2B0FBFBF20BFB12017E
:10191000754DA146307009B10A2878D248F24E17A9
:10192000012202A93846FFF7B5FF9DF808004FF0E5
:10193000000801060AD500F00F00062806D28DF82F
:101940000480012201A9384600F0FAF89DF8080049
:1019500001075CD000F00F01062958D2FF20884013
:101960008DF80400C04395F834A040F0C00085F81D
:101970003400A889A882288C5C4F28854FF0010983
:1019800095F8341009FA04F0014268D0584804224E
:10199000694630F81400FFF77DFFB888A0F5AA412A
:1019A000103908D0A0F5864142391AD0A0F58641F9
:1019B00084392DD053E095F84400C0072CD09DF811
:1019C00000009DF8011000EB012105EB44000184AB
:1019D0009DF802109DF8032001EB0221C1F548712A
:1019E0003CE095F84400C00716D19DF800009DF832
:1019F000011000EB012105EB440001849DF8021069
:101A00009DF8032001EB0221C1F5887126E041E039
:101A100095F84400C00710D09DF800009DF8011013
:101A200000EB012105EB440081819DF802109DF837
:101A3000032001EB0221018411E09DF800009DF8D4
:101A4000011000EB012105EB440001849DF8021018
:101A50009DF8032001EB0221C1F5F0718181641C26
:101A6000E4B2052C8CD3A9893A884FF001092846A5
:101A7000914203D8018C7A88914209D99DF80810C7
:101A800001F00F0101290CD9C1898181418C298480
:101A900086F800809DF8080000F08F0080280AD0AA
:101AA00018E0818A8181018D018480218DF80810E0
:101AB00085F834A0EEE795F83400010602D520F051
:101AC000800005E04FF6FF71A981298400F0E00055
:101AD00085F834003078F02801D986F800B04846FF
:101AE000BDE8FE8F6F00002078000020200300205A
:101AF0001607010808B500218DF800108DF80100C7
:101B00000E489DF80020435C491C1A44C9B28DF868
:101B10000020B829F5D3D0B2C043401C8DF8000096
:101B2000B822064948F2470000F00AF80222694646
:101B300048F2FF0000F004F8002008BD5E0601082E
:101B40002DE9F04115460E4604460027FFF702FA3C
:101B50002820FFF7CBF9FFF749FA200AFFF7C6F96B
:101B6000FFF744FAE0B2FFF7C1F9FFF73FFA0024AC
:101B700008E0305DFFF7BAF9FFF738FA070003D144
:101B8000641CE4B2AC42F4D3FFF70AFA3846BDE86D
:101B9000F081000070B5064D002429190A230122A6
:101BA000044802F030FA641C082CF6DB70BD00001B
:101BB00024000020E00100202DE9F04104460068E7
:101BC000016821F00101016000F058FA0546002685
:101BD0004FF47A770FE000F051FA401BB8420AD96F
:101BE00054F84C0F40F0200044F8180903202670E8
:101BF0006070BDE8F08120680068C007EBD104F890
:101C0000346F012060700020F3E700002DE9F041FF
:101C1000056D0446286894F85420082101FA02F260
:101C200010424FF004074FF0000617D020680268FA
:101C3000520713D5026822F00402026094F854009F
:101C40008140A960E06C40F00100E06484F83570E8
:101C500084F83460A16C09B120468847286894F85C
:101C60005430524A02FA03F1084218D02068416900
:101C7000090614D5416921F08001416194F85400AE
:101C800002FA00F1A960E06C40F00200E06484F820
:101C9000357084F83460A16C09B120468847286803
:101CA000424A94F85430D21C02FA03F1084218D088
:101CB00020680168890714D5016821F002010160DC
:101CC00094F8540002FA00F1A960E06C40F00400BE
:101CD000E06484F8357084F83460A16C09B1204662
:101CE0008847286894F85430102202FA03F1084219
:101CF0001AD0206803681B0716D503685F034FF0EE
:101D0000310327D5A96020680168090302D484F84B
:101D1000353005E00068000302D5412084F8350025
:101D2000216C09B120468847286894F85430202255
:101D300002FA03F1084236D020680368DB0632D588
:101D400003685B031CD5A9602068016809030DD4F2
:101D5000616C0FE00168C90503D4016821F0080136
:101D6000016094F854008240AA60D0E70068000344
:101D700019D5E16B002916D02046BDE8F04108478F
:101D80000168C90503D4016821F01001016094F8CD
:101D900054008240AA60E06CE064112084F83500B1
:101DA00084F83460E5E7BDE8F081000001008000C0
:101DB00070B504001AD00220636A84F835002168E7
:101DC0000A6818480240D4E901052843D4E90356BB
:101DD0003543284365692843A5692843E5692843B5
:101DE000256A28431043042B02D005E0012070BD72
:101DF000D4E90B231A431043086022685069616AD2
:101E000020F007000843042901D1A16A084350616A
:101E10002046FFF721F90020E064012084F8350016
:101E2000002070BD3F8010F070B5044690F834007B
:101E300001281ED0012084F83400022084F83500E7
:101E40002068056825F0010505602046FFF718F9B0
:101E50002068016841F01E0101602068416941F07D
:101E6000800141612068016841F0010101600020AA
:101E700070BD022070BD31B500F000F9044600F0DD
:101E8000FDF80099001B8842F9D338BD2DE9F84FC1
:101E9000DFF8A091002209F1040A0AF1040B4FF0C7
:101EA0000F080BF1040E01260B6896403340B34235
:101EB00071D14C68022C01D0122C11D1D40800EB46
:101EC00084073D6A5407E40E08FA04FC25EA0C0571
:101ED000D1F810C00CFA04FC4CEA050CC7F820C07D
:101EE00007685400032591F804C0A5400CF0030CCA
:101EF000AF430CFA04FC4CEA070CC0F800C04F6872
:101F0000012F05D0022F03D0112F01D0122F11D194
:101F10008768D1F80CC0AF430CFA04FC4CEA070CFC
:101F2000C0F808C04768B7430E79C6F3001696405C
:101F30003E434660C668AE438D68A5403543C560E4
:101F40004C68E4006FD53C4C256845F4804525601D
:101F5000246822F0030504F480440094374C2E19C1
:101F6000D6F808789407250F08FA05F4A743344CEF
:101F7000A04201D100242EE0324CA04201D1012424
:101F800029E0314CA04201D1022424E02F4CA04290
:101F900002D103241FE046E02D4CA04201D10424CD
:101FA00019E02C4CA04201D1052414E02A4CA04297
:101FB00001D106240FE0294CA04201D107240AE0F8
:101FC000274CA04201D1082405E0264CA04201D1B3
:101FD000092400E00A24AC403C43C6F80848D9F87C
:101FE00000404D464E689C43F60300D51C432C60D0
:101FF000DAF8004055464E689C43B60300D51C43B2
:102000002C60DBF800405D464E689C43F60200D52C
:102010001C432C60DEF8004075464E689C43B602B7
:1020200000D51C432C60521C102AFFF43CAFBDE8C5
:10203000F88F0000003C014044380240003001406D
:10204000000002400004024000080240000C024070
:10205000001002400014024000180240001C024020
:1020600000200240002402400069084000D0012006
:1020700070470AB1816170470904FBE701480068B5
:10208000704700005000002002480168491C0160B0
:1020900070470000500000200B4810B5016841F463
:1020A00000710160016841F480610160016841F4E0
:1020B00080710160052000F0BFF90F2000F006F8E4
:1020C00000F08AF9002010BD003C024010B5044623
:1020D00000F060FC4FF47A71B0FBF1F001F000FA0F
:1020E00000222146501E00F087F9002010BD2DE986
:1020F000F041044690F8A00015460F4601281DD077
:10210000012684F8A060022084F8A10005EB850078
:1021100000EBC50004EB800034223830FEF793F862
:102120002A463946204605F06BFF2068466284F84F
:10213000A160002084F8A000BDE8F0810220FBE748
:1021400070B5040004D094F8A100002510B106E099
:10215000012070BD84F8A050204600F06FF80220E6
:1021600084F8A1002068816921F070418161D4E97F
:1021700001100143D4E9030210430143206882693E
:1021800011438161206882682B490A408260A08ADD
:10219000020420688368A669334313438360206880
:1021A000C2680A40C260A08B02042068C368266A25
:1021B00033431343C360206802690A400261A08C64
:1021C000020420680369A66A33431343036120684D
:1021D00042690A404261A08D010420684269236B74
:1021E0001A430A43426194F83500020294F836001B
:1021F00001042068C36A03F07F43C3622068C36A96
:1022000094F83460114333430B43C3622068416B3D
:1022100041F0040141632068416B41F002014163D8
:102220002068816941F001018161C4F8A450012056
:1022300084F8A100002070BD00F800F030B53648E9
:1022400087B00025016841F080610160006800F0FE
:102250008060059030481438016841F40001016045
:10226000016801F400010591016841F0020101607B
:10227000016801F002010591016841F0200101604F
:10228000016801F020010591016841F04001016001
:10229000016801F040010591016841F08001016091
:1022A000016801F080010591016841F480710160CD
:1022B0000068032400F48070059020200090012025
:1022C000CDE90204019069461448FFF7DFFD4FF4A1
:1022D000806000900220CDE901050E20CDE9034089
:1022E00069460F48FFF7D2FD4FF40C600090694635
:1022F0000C48FFF7CBFD4FF47E40009069460A483A
:10230000FFF7C4FD40F2F760009069460748FFF709
:10231000BDFD07B030BD000044380240000402405B
:102320000014024000180240001C0240002002403D
:1023300070B5044690F8A0000E46012820D0012573
:1023400084F8A050022084F8A10003EB830000EB86
:10235000C30004EB800141F8386F886A3044C1E95A
:102360000102C86A1044C8601A46204605F048FEBB
:102370002068456284F8A150002084F8A00070BD58
:10238000022070BD2DE9F041044690F8A0000F46F0
:1023900001281FD0012584F8A050022084F8A10054
:1023A00003EB830000EBC30004EB80010026E1E9AE
:1023B0000E672046C1E90262C1E90A721A4605F0B9
:1023C0001FFE2068456284F8A15084F8A0600020B8
:1023D000BDE8F0810220FBE708B50020009008BDB1
:1023E00000F01F02012191404009800000F1E0202F
:1023F000C0F8001170470000F0B40E4B1B68C3F327
:102400000223C3F10704042C00D904241D1D072D49
:1024100001D2002300E0DB1E012606FA04F56D1E42
:102420000D409D409E40761E164045EA0601F0BCD8
:1024300005F0F0BF0CED00E0064A00F0070110685F
:102440004FF6FF03184040EA01200349084310609B
:10245000704700000CED00E00000FA052DE9F8439C
:102460001D48016841F0805101600068012700F0BB
:1024700080500090380490FAA0F0DFF86080B0FA45
:1024800080F048F82070FFF7F9FD04464FF47A75A4
:10249000134E04E0FFF7F2FD001BA84213D870684A
:1024A000C003F7D54FF4003090FAA0F0B0FA80F0F6
:1024B00048F82070FFF7E2FD044607E0FFF7DEFD75
:1024C000001BA84202D90320BDE8F883706880038E
:1024D000F4D50020F8E700004038024000000E422A
:1024E000007000402DE9F84F04460068DFF878825C
:1024F0009E4DC10747F6C07A4FF0E0464FF0010B02
:102500004FF0000901D180074BD59949C1F8689077
:10251000FFF7B4FD074604E0FFF7B0FDC01B6428D9
:102520007ED828680001F7D420789249C0070DD0E2
:102530009AFAAAF26068B2FA82F2904096FAA6F38A
:10254000A268B3FA83F39A401043086020788007AA
:1025500018D5086896FAA6F200F0E040B2FA82F2C6
:10256000D0406268237B920142EA036242EA007033
:102570000860D8F80010E26921F01F01521E1143D3
:10258000C8F800107A49C1F868B0FFF777FD074630
:1025900004E0FFF773FDC01B642841D828680001E0
:1025A000F7D52068410701D4000776D57049C1F8F6
:1025B0007090FFF763FD074604E0FFF75FFDC01B67
:1025C00064282DD82868C0438000F6D520786A4F4B
:1025D00040074FF0706C29D5386896FAA6F100F0E4
:1025E000E040B1FA81F1C8409AFAAAF22169B2FA40
:1025F00082F291409CFAACF36269B3FA83F39A4099
:10260000114396FAA6F2B2FA82F290400143396081
:10261000D8F800106FF0FF0321F4F851226A00E0AF
:1026200079E003EB02221143C8F80010207800077C
:1026300023D538689CFAACF100F07060B1FA81F1F2
:10264000C8409AFAAAF22169B2FA82F291409CFA41
:10265000ACF2B2FA82F29040014396FAA6F2A06977
:10266000B2FA82F2904001433960D8F80010626AF1
:1026700021F440311143C8F800103D49C1F870B051
:10268000FFF7FCFC064604E0FFF7F8FC801B64281B
:1026900041D82868C0438000F6D42078800651D500
:1026A00032484F464030016841F080510160006877
:1026B000324E00F080500090306840F480703060FE
:1026C000FFF7DCFC054604E0FFF7D8FC401B64285C
:1026D00021D83068C005F7D5264E143E3068218DCC
:1026E00000F4407001F4407188422BD030682449D6
:1026F00020F44070C1F800B00F603060800710D542
:10270000FFF7BCFC054641F2883707E0FFF7B6FC4F
:10271000401BB84202D90320BDE8F88F306880071B
:10272000F4D5A06A1149C0F301220831032A13D05D
:10273000086820F4F81008603068218DC1F30B019F
:10274000084330602078C00604D50E4994F82C0068
:10275000C1F8E0010020DFE70A680B4B22F4F81211
:10276000184002430A60E7E78C3802400038024014
:102770000000474284380240883802400070004020
:10278000400E474200104742FFFCFF0F2DE9F05F6B
:10279000DFF8F8A104460F46DAF80000DFF8F08110
:1027A00000F00F02C8B27A49814641F2883608F13A
:1027B0000808BA4261D202468AF80020DAF800001E
:1027C00000F00F00B8427DD12078800707D5D8F8F7
:1027D0000020A36822F0F0021A43C8F800202078F5
:1027E000C0072DD0606801281AD002281BD003280A
:1027F00019D009688907002964DAD8F8001047461B
:1028000021F003010143C8F80010FFF737FC05462B
:10281000606801280FD0022818D003281CD027E0B8
:1028200009688903E7E709688901E4E7FFF726FCFF
:10283000401BB04258D83868C0F381000128F5D158
:1028400088E0FFF71BFC401BB0424DD83868C0F34E
:1028500081000228F5D17DE03868FFF70FFC401BAE
:10286000B042F9D940E0FFF709FC401BB0423BD829
:10287000386810F00C0FF6D16CE02078800707D58F
:10288000D8F80020A36822F0F0021A43C8F800200C
:102890002078C0074CD06068012828D0022829D0B1
:1028A000032827D009688907002949DAD8F80020C9
:1028B00022F003020243C8F80020FFF7DFFB0546C1
:1028C000606800E03CE001281DD0022829D00328E0
:1028D00038D0B3464646306810F00C0F28D0FFF7CA
:1028E000CDFB411B5945F6D90320BDE8F09F09688F
:1028F0008903D9E709688901D6E7FFF7BFFB411BC8
:10290000594502D9F0E7B34646463068C0F3810026
:102910000128F2D10CE0FFF7B1FB411B594502D968
:10292000E2E7B34646463068C0F381000228F2D1A0
:102930008AF80090DAF8000000F00F00B84209D0E1
:102940000120D2E744462068FFF798FB401BB042C5
:10295000F9D9C9E72078400707D5D8F80010E26810
:1029600021F4E0511143C8F800102078000708D581
:10297000D8F80010226921F4604141EAC201C8F888
:1029800000100F20FFF7A2FB0020AEE7003C024042
:102990000038024010B500F043F808490968F022F9
:1029A00092FAA2F201F0F001B2FA82F2D140044AA6
:1029B000515CC8400349086010BD0000083802405F
:1029C000F2BE00083C00002010B5FFF7E3FF074906
:1029D00009684FF4E05292FAA2F201F4E051B2FA1F
:1029E00082F2D140024A515CC84010BD0838024012
:1029F000F2BE000810B5FFF7CDFF074909684FF494
:102A0000604292FAA2F201F46041B2FA82F2D1403D
:102A1000024A515CC84010BD08380240F2BE0008AE
:102A200030B51948006810F00C01184812D0184C45
:102A300004290ED008290DD1134A121F11681368FA
:102A400001F03F015D0247F6C07304D5B4FBF1F01D
:102A500003E0204630BDB0FBF1F01168194093FA55
:102A6000A3F3B3FA83F3D940484311684FF44032DB
:102A700092FAA2F201F44031B2FA82F2D140491C3A
:102A80004900B0FBF1F030BD083802400024F400EA
:102A900040787D012DE9F84F04460078DFF8FCA26C
:102AA000BF4DC0074FF0000648D0DAF8001050467E
:102AB000C1F38101012908D00068C0F38100022818
:102AC0000AD1281D0068400206D52868800335D544
:102AD0006068002873D031E0DFF8C49209F1020980
:102AE00089F80060FFF7CAFA074641F2883804E027
:102AF000FFF7C4FAC11B41457AD828688003F7D490
:102B0000207989F80000606860B1FFF7B7FA0746DE
:102B100004E0FFF7B3FAC11B4145EDD828688003F4
:102B2000F7D50BE0FFF7AAFA074604E0FFF7A6FA8D
:102B3000C11B4145E0D828688003F7D42078DFF82E
:102B40006492800744D5DAF80010504611F00C0F5B
:102B50004FF0F80809D00068C0F3810002280BD1BB
:102B60008E48001F0068400206D42868800714D5EC
:102B7000E068012823D110E0E068D0B10120C9F855
:102B80000000FFF77BFA074604E0FFF777FAC01B67
:102B90006428B1D828688007F7D5286898FAA8F281
:102BA0002169B2FA82F220F0F800914008432860CF
:102BB0000EE0C9F80060FFF761FA074605E0EAE0B9
:102BC000FFF75CFAC01B642812D828688007F7D486
:102BD0002078000725D5DFF8C4817348616908F1C2
:102BE0006C0881B101210160FFF748FA074605E052
:102BF0007EE0FFF743FAC01B642879D8D8F80000BC
:102C00008007F6D50DE00660FFF738FA074604E0C6
:102C1000FFF734FAC01B64286AD8D8F80000800790
:102C2000F6D42078400753D55C483830016841F02D
:102C3000805101600068DFF8748100F080500090DE
:102C4000D8F8001041F48071C8F80010FFF716FAA8
:102C5000074604E0FFF712FAC01B642848D8D8F8EA
:102C60000000C005F6D5DFF834B10BF1680B8BF826
:102C70000060FFF703FA074641F2883804E0FFF7E7
:102C8000FDF9C11B41457ED8DBF800008007F6D472
:102C9000207A8BF80000A06868B1FFF7EFF90746CB
:102CA00004E0FFF7EBF9C11B41456CD8DBF80000ED
:102CB0008007F6D50CE0FFF7E1F9074604E0FFF7DF
:102CC000DDF9C11B41455ED8DBF800008007F6D472
:102CD000A069E8B3DAF80010C1F3810102295AD0E3
:102CE000022806D0C9F86060FFF7C8F904464DE035
:102CF00049E04F46C9F86060FFF7C0F9064604E0B6
:102D0000FFF7BCF9801B64283DD828688001F7D400
:102D1000D4E90701084347F6C07191FAA1F1626A4C
:102D2000B1FA81F18A40A16A4FF0FF3303EB510100
:102D30004FF4403393FAA3F3B3FA83F399400A4371
:102D400010434FF0706292FAA2F2B2FA82F200E0FF
:102D50001FE0E16A914008431049091F0860012003
:102D60003866FFF78BF9044604E0FFF787F9001B8C
:102D7000642808D828688001F7D50AE0FFF77EF9B3
:102D8000001B642802D90320BDE8F88F2868800161
:102D9000F4D40020F8E70120F6E7000008380240EC
:102DA0000038024000004742800E47420070004059
:102DB00070B50D46040003D094F82C0010B107E064
:102DC000012070BD002084F82D00204600F012F88C
:102DD000022084F82C00211D2068FEF703FAD4E9B4
:102DE00000022946FEF74EFA012084F82C0000204C
:102DF00070BD0000304800B5016887B041F00101A6
:102E00000160006800F0010005902B480838016857
:102E100041F004010160016801F0040105910168BD
:102E200041F008010160016801F0080105910168A5
:102E300041F010010160016801F010010591016885
:102E400041F020010160016801F020010591016855
:102E500041F0400101600068694600F040000590C3
:102E60000D20009002200190012002900320039089
:102E70000C2004901148FFF709F84CF20370009001
:102E800069460F48FFF702F84FF6837000906946D5
:102E90000C48FEF7FBFF4FF63F00009069460A48DA
:102EA000FEF7F4FF48F23710009069460748FEF736
:102EB000EDFF07B000BD00003838024000080240B6
:102EC000000C0240001002400014024000180240B2
:102ED00010B5044690F82C00022809D0022084F88E
:102EE0002C002068FEF7A4F9012084F82C000020B3
:102EF00010BD70B5044690F82C000D4602280CD089
:102F0000022084F82C002068FEF798F9286802282F
:102F100004D0012084F82C00002070BD0520F9E7C2
:102F200070B5040004D094F85100002510B106E0FB
:102F3000012070BD84F85050204600F033F8022084
:102F400084F851002068016821F040010160D4E953
:102F500001010843D4E9031211430843616908439E
:102F6000218B01F400710843E1690843216A084399
:102F7000A16A084321680860A069042101EA1040A1
:102F8000616A0843216848602168E06A0861206836
:102F9000C16921F40061C1616565012084F85100B7
:102FA000002070BD10B586B0044614216846FDF7B8
:102FB00063F913492068884220D112480021026831
:102FC00042F480520260006800F4805005900D4881
:102FD0001438026842F001020260006800F001004B
:102FE0000590E02000900220CDE90101032003902C
:102FF0000520049069460448FEF748FF06B010BD5E
:103000000030014044380240000002402DE9F843FE
:10301000044690F85100984601286FD131B32AB385
:1030200094F85000012869D0012784F850701220CC
:1030300084F85100002666652163A286E286E66474
:10304000A664A687E687A06A7D03A84209D1206806
:10305000016821F4005101602068016841F40051C9
:103060000160A068B0F5004F03D007E00120BDE883
:10307000F8832068016841F480410160206801689C
:10308000490603D4016841F040010160E06800286E
:10309000606804D0D8B1E08E012818D021E010B1CA
:1030A000E08E012808D1206B411C21632168007843
:1030B000C860E08E401EE0860004000C1FD043462E
:1030C00000220221204605F01FFCA8B9EBE7206B87
:1030D00021680088C860206B801C2063E08E401E41
:1030E000E0860004000C0AD043460022022120465C
:1030F00005F00AFC0028EAD00320B8E726E0A06A21
:10310000A84204D12068016841F48051016043461F
:1031100000220221204605F0F7FB30B94346012288
:103120008021204605F0F0FB20B1606D40F02000CA
:103130006065E1E7A06818B92068C1688068009000
:1031400084F8517084F85060002090E702208EE7E8
:103150002DE9F843044690F85100DDF8208001285D
:1031600001D022287ED169B162B15BB194F85000E0
:10317000012877D0012784F8507094F85100012875
:1031800003D005E00120BDE8F883322084F8510027
:1031900000266665A263A387E3872163A386E3868F
:1031A000A664E664A06A4FF40055A84209D12068DD
:1031B000016821F4005101602068016841F4005168
:1031C000016020680168490603D4016841F04001AC
:1031D0000160E0684FF48271B0F5006F606807D05D
:1031E000002867D088426ED1E08E012862D06AE064
:1031F00020B188420CD1E08E012809D1206B2168D2
:103200000088C860206B801C2063E08E401EE08632
:10321000E08E80B9A06AA84244D12068016841F4D8
:10322000805101603EE02068C068A16B0880A06BFF
:10323000801CA0639EE0434600220221204605F048
:1032400063FB002874D1206B21680088C860206B64
:10325000801C2063E08E401E0004000CE08609D133
:10326000A06A00E0C7E0A84204D12068016841F4E8
:1032700080510160434600220121204605F044FBB5
:1032800000286FD12068C068A16B0880A06B801CEB
:10329000A063E08F401EE087E08E0028CBD16068FD
:1032A00000286AD1434600220121204605F02CFB6C
:1032B000F0BBB8E7206B411C216321680078C8602F
:1032C000E08E401EE086E08E98B9A06AA84204D144
:1032D0002068016841F480510160434600220121C9
:1032E000204605F011FB18BB2068C068A16B087070
:1032F00040E0434600220221204605F005FBB8B914
:10330000206B411C216321680078C860E08E401E5C
:103310000004000CE08607D1A06AA84204D120680E
:10332000016841F48051016000224346012100E020
:1033300018E0204605F0E8FAA0B92068C168A06B43
:10334000421CA2630170E08F401EE087E08E0028DF
:10335000CFD1606888B9434600220121204605F09C
:10336000D3FA08B103200EE72068C168A06B421CA5
:10337000A2630170E08F401EE087A06AA84210D1CE
:10338000434600220121204605F0BEFA18B1606DC7
:1033900040F002000FE02068C068ADF80000BDF802
:1033A0000000434601228021204605F0ADFA20B1FD
:1033B000606D40F020006065D4E784F851702068AB
:1033C0008168A26AC1F30011AA4210D179B1616D7E
:1033D00041F002016165016821F40051016020683B
:1033E000016841F40051016084F85060CAE684F835
:1033F00050600020C7E60220C5E670B515460E46AF
:10340000040003D094F8490010B107E0012070BD1A
:10341000002084F84800204600F01AF804F1080162
:103420002068FDF775FE3146A2682068FDF7ACFE06
:10343000D4E901022946236BFDF74AFEA168206802
:1034400050F8212042F0010240F82120002070BDF8
:103450001A4800B5016887B041F0010101600068B9
:1034600000F00100059015480838016841F0080196
:103470000160016801F008010591016841F0100147
:1034800001600068694600F0100005904EF2B370CC
:1034900000900220019001200290032003900C2054
:1034A00004900748FEF7F2FC4FF6807000906946E2
:1034B0000448FEF7EBFC07B000BD000038380240BE
:1034C000000C0240001002404FF0E021042808697F
:1034D00003D020F004000861704740F00400FAE7D0
:1034E00010B5401EB0F1807F01D3012010BD4FF018
:1034F000E02460610F21601704F08CFF0020A061C0
:1035000007202061002010BD7047704730B590F84B
:103510003820012A20D0012380F83830022280F898
:1035200039200268546824F07004546002685468BA
:103530000D682C4354600268946824F08004946001
:103540000268946849680C43946080F8393000211F
:1035500080F83810084630BD022030BD10B5040098
:1035600003D094F8390010B107E0012010BD00200D
:1035700084F83800204600F00DF8022084F8390065
:10358000211D206805F09AFA012084F839000020F6
:1035900010BD000008B5184B0168184A994207D1C0
:1035A000116841F400311160116801F4003109E043
:1035B000134B994207D1116841F4802111601168C1
:1035C00001F4802100910068B0F1804F13D10B48C5
:1035D000001F016841F0010101600068002200F055
:1035E0000100009011461C20FEF706FFBDE80840D0
:1035F0001C20FEF7F5BE08BD0044014044380240DF
:10360000004801400168CA6842F00102CA600068CF
:10361000016841F0010101600020704770B5044667
:1036200090F83800012817D0012584F8385002207E
:1036300084F839002068826822F0770222F47F4201
:1036400082600868502836D00DDC202858D005DC70
:1036500080B3102840D150E0022070BD302852D0F5
:10366000402839D13EE060282DD070280BD0B0F52D
:10367000805F03D0B0F5005F2ED110E02068816834
:1036800021F0070109E0CB68D1E90121206805F0AC
:1036900080FA2068816841F0770181601CE0CB6886
:1036A000D1E90121206805F074FA2068816841F4AD
:1036B0008041F2E71EE0CA684968206805F032FBE5
:1036C0005021206806E0CA684968206805F03BFB85
:1036D0006021206805F067FA84F83950002084F8EA
:1036E000380070BDCA684968206805F01BFB40219E
:1036F0002068EFE700212068ECE710212068E9E767
:1037000020212068E6E730212068E3E7704770B5A4
:103710000446006801694FF00005C943890715D4C4
:10372000C168C943890711D4E91E016101202076CF
:10373000206880698007204602D0FFF7E7FF04E099
:1037400000F0D0F8204600F052F925762068016993
:10375000C943490717D4C168C943490713D46FF057
:1037600004010161022020762068806910F4407F06
:10377000204602D0FFF7CAFF04E000F0B3F820466D
:1037800000F035F9257620680169C943090716D488
:10379000C168C943090712D46FF008010161042010
:1037A00020762068C0698007204602D0FFF7AEFF70
:1037B00004E000F097F8204600F019F9257620681B
:1037C0000169C943C90617D4C168C943C90613D4DE
:1037D0006FF010010161082020762068C06910F4A4
:1037E000407F204602D0FFF791FF04E000F07AF816
:1037F000204600F0FCF8257620680169C943C90716
:1038000008D1C168C943C90704D1891E0161204696
:1038100000F00AF920680169C943090609D4C168A2
:10382000C943090605D46FF0800101612046FFF706
:103830006BFE20680169C943490609D4C168C943C0
:10384000490605D46FF040010161204600F0B2F94D
:1038500020680169C94389060BD4C168C943890638
:1038600007D46FF0200101612046BDE87040FFF7EA
:103870004CBE70BD70B586B0044614216846FCF796
:10388000FBFC144E21680023134A0224032513482D
:10389000B14209D1116841F020011160116801F0B5
:1038A0002001059140210BE00D4EB14210D111686D
:1038B00041F020011160116801F020010591802183
:1038C0000091CDE90143CDE903356946FEF7DEFA03
:1038D00006B070BD00440140303802400014024080
:1038E00000480140704770B5044690F838000D4616
:1038F00001280DD0012684F83860022084F83900B0
:1039000042B1042A18D0082A2AD00C2A4DD139E015
:10391000022070BD206805F04FF92068816941F0F0
:10392000080181612068816921F0040181612068BA
:1039300081692A69114311E0206805F069F920685E
:10394000816941F4006181612068816921F48061AD
:103950008161206881692A6941EA0221816124E04C
:10396000206805F087F92068C16941F00801C1614C
:103970002068C16921F00401C1612068C1692A6918
:10398000114311E0206805F0A5F92068C16941F4F0
:103990000061C1612068C16921F48061C161206852
:1039A000C1692A6941EA0221C16184F839600020B5
:1039B00084F8380070BD10B5040003D094F83900C5
:1039C00010B107E0012010BD002084F83800204627
:1039D00000F00CF8022084F83900211D206805F061
:1039E0006DF8012084F83900002010BD7047704741
:1039F00010B504460068012205F0C0F808482168A7
:103A0000814202D00748814203D1486C40F4004013
:103A100048642068016841F001010160002010BD88
:103A200000000140000401402DE9F04751492DED0F
:103A3000028B88427DD1504C504DDFF84481A088E4
:103A4000DFF840A1401C80B2A080E1880026491C1C
:103A5000E1802189491C218132282CD3A68098F845
:103A60000000032827D12078474F012819D1386852
:103A7000801C38602988891C298006F0A7F93868DD
:103A80003C2800D12670DAF80010491C022904D81D
:103A9000C1B261703DA006F0BFF998F8000003289C
:103AA00009D1207838B93868801E38602988891E85
:103AB000298006F08BF9E08864280AD3E68098F81C
:103AC0000000022805D133480088012801D1FEF703
:103AD00061F82089282848D3DFF8BC90B9F80000A5
:103AE000012842D157462DA0DAF8001006F094F9CB
:103AF000268198F80000022837D13868A0F50071B7
:103B00009A3932D0FCF766FD41EC100B274804F0DF
:103B10000DFEB0EE408AF0EE608A2888FCF76BFD5F
:103B200053EC182BFCF7CEFBFCF772FD80B228801B
:103B300000E01AE006F04AF91D49A0783A6841F819
:103B40002020401CC0B2A0700A2800D1A67000201E
:103B50004A4651F820309B1D0D2B06D2092800D172
:103B60001680401CC0B20A28F3D3BDEC028BBDE81E
:103B7000F0870000740600201401002038000020A7
:103B80000000002030000020200000202564200AD2
:103B900000000000340000203600002064696666E2
:103BA0006572656E63653A2025640A00280100206D
:103BB000D4050020704710B504460068416921F023
:103BC000800141612068416921F040014161206B21
:103BD00008B1FDF7F1FF606B08B1FDF7EDFF0120C3
:103BE00084F83900002010BD704738B501680446DC
:103BF0000868CA68C0F3000002F4807238B132B1BC
:103C0000086848680090E06B40F00100E0630868D5
:103C10004A69C0F3400002F0010238B132B10868CD
:103C200048680090E06B40F00400E06308684A696F
:103C3000C0F3800002F0010238B132B10868486870
:103C40000090E06B40F00200E06308684A69C0F34E
:103C5000C00002F0010238B132B108684868009033
:103C6000E06B40F00800E0630868C968C0F34010EA
:103C700001F0200118B111B1204605F0DFFE2068E7
:103C80000168C068C1F3C01100F0800019B110B123
:103C9000204605F0E1FF21680868CA68C0F380107B
:103CA00002F04002012568B162B1CA68204622F0E4
:103CB0004002CA6094F8391032290CD080F839508B
:103CC00000F04EFAE06B002804D084F8395020460A
:103CD000FFF78AFF38BD222180F83910F0E708B5D8
:103CE00001680A6849680091FFF765FF04F076FDF6
:103CF000BDE8084004F058BE70B5040004D094F844
:103D00003900002510B106E0012070BD84F838505C
:103D1000204600F021F8022084F839002068C168AC
:103D200021F40051C160204605F0DCFE20680169E5
:103D300021F4904101612068416921F02A0141612B
:103D40002068C16841F40051C160E563012084F836
:103D50003900002070BD00002DE9F04186B0064614
:103D600014216846FCF788FA4B4A306800244B4916
:103D7000022303254A4F4FF0070C90421BD14748BE
:103D80001430026842F010020260006800F0100077
:103D90000590086840F0010008600868694600F076
:103DA0000100059068028DE839103846FEF76EF87C
:103DB00006B0BDE8F081394ADFF8E88010324045AE
:103DC0001DD1106840F400301060106800F400301D
:103DD0000590086840F0010008600868694600F036
:103DE000010005900C208DE839103846FEF74EF89A
:103DF000002211462620FEF7FFFA262049E02A4F2E
:103E0000B842D5D1106840F480201060106800F4EA
:103E100080200590086840F0020008600868694644
:103E200000F0020005904FF440608DE839101F4803
:103E3000FEF72CF81F4D1E484FF000672860C5E9BB
:103E400001744FF48068C5E903486C61AC61EC61B2
:103E50002C6228466C62FDF7ABFF75631448AE63B5
:103E600058353030E5E802074020A5E81101114837
:103E700045F814495830AC61EC612C626C62FDF776
:103E800097FF3563002211462720AE63FEF7B4FA90
:103E90002720FEF7A5FA8BE70010014030380240DA
:103EA000000002400044004000480040000402407E
:103EB000286002402002002037B5044690F83900FF
:103EC0001346012801D012282FD1019A4AB343B3D7
:103ED00094F83800012828D0012084F83800A26224
:103EE000A3850025E56394F8390012281BD0222011
:103EF00084F83900616B0E48C863616B0D48086433
:103F0000616B0D4888642168606B091DFDF78CFFAB
:103F10002068416941F04001416184F83850002037
:103F20003EBD01203EBD3220E2E702203EBD000042
:103F3000C7990008FB990008A999000890F8393042
:103F4000012B01D0122B2BD131B32AB390F838308A
:103F5000012B25D0012380F8383081628285C2850B
:103F60000022C26390F83910122917D0222180F85C
:103F700039100168CB6843F48073CB6001684B69EA
:103F800043F001034B6180F838200068C16841F0BC
:103F90002001C16000207047012070473221E6E710
:103FA0000220704710B504461048844203D104F043
:103FB00015FC04F0F9FC0E4920680968884214D108
:103FC0000C4C2079E17800EB01210BA005F024FFD7
:103FD0002079E178072200EB012009490860214699
:103FE000BDE810400248FFF7A9BF10BDA0010020A6
:103FF000E0010020040000202564200A00000000E9
:104000002C00002070472DE9F047044690F8390055
:1040100099460D46012801D0222856D125B31AB35E
:1040200094F83800012850D0012684F83860002721
:10403000E76394F83900222819D0122084F8390057
:10404000A284E2844FF48058E08C4B46401EE0840A
:10405000A0684FF0000240454FF08001204613D188
:1040600005F02DFE08BB04E00120BDE8F0873220FA
:10407000E4E728882168C0F308004860206908B197
:104080006D1C08E0AD1C06E005F019FE68B921685A
:1040900015F8010B4860E08C0028D5D14B46002272
:1040A0004021204605F00BFE08B10320DDE794F81F
:1040B0003900322805D084F8396084F8387000203F
:1040C000D3E7222084F83900F7E70220CDE700008B
:1040D000F7B5044690F83900012801D0222837D1DD
:1040E000019981B37AB394F83800012830D00120C7
:1040F00084F838002162A284E2840025E56394F804
:104100003900222822D0122084F83900236B11486C
:10411000D863236B10481864236B10489864206898
:104120001346266B021D3046FDF77EFE21686FF0B8
:10413000400008602068416941F08001416184F8D5
:1041400038500020FEBDFFE70120FBE73220DBE70F
:104150000220F7E7059A0008339A0008A999000899
:104160000349884202D103490120087070470000CA
:10417000A0010020C40000207047FEE770B50D4C80
:104180000025C4F890520C48016821F44061016098
:10419000016841F480610160C4F89452022004F582
:1041A000247406F0F9FF01202060022006F0F4FFDD
:1041B000256070BD00804342001C02400E4810B5CF
:1041C000016886B041F0800101600068012400F0C0
:1041D000800005903020CDE900040220CDE90240A6
:1041E00069460648FDF752FE0548C0F89442C0F8FB
:1041F000904206B010BD000030380240001C024062
:104200000080434270B50D4C0026C4F890620C4803
:10421000016821F440610160016841F4806101603E
:104220000125C4F89452022004F5247406F0B4FF6A
:104230002560022006F0B0FF266070BD008043427A
:10424000001C02402DE9F047814616480024016811
:1042500021F44061016001680160134E2546274644
:104260004FF00108C6F89072022006F095FFC6F8DC
:1042700090826006040ED6F8140208B1641CE4B201
:10428000012006F089FF6D1CEDB2082DEAD3B9F1CB
:10429000000F04D0FFF772FF2046BDE8F087FFF75C
:1042A000B1FFF9E7001C0240008043422DE9F041D4
:1042B00005461448016821F440610160016841F439
:1042C00080610160104E0027C6F890723C464FF0A6
:1042D0000108E809C6F894026806050E022006F0F7
:1042E0005BFFC6F89082022006F056FFC6F8907277
:1042F000022006F051FF641CE4B2082CE9D3BDE8AB
:10430000F0810000001C02400080434270B50D485F
:10431000016821F440610160016841F4806101603D
:10432000094C0120C4F89402C4F89002042004F55A
:10433000247406F031FF00256560042006F02CFF90
:10434000256070BD001C0240008043420E4810B53D
:10435000016821F440610160016841F480610160FD
:104360000A4C0020C4F89002C4F89402042004F51A
:10437000247406F011FF012020606060BDE8104049
:10438000042006F009BF0000001C024000804342E8
:1043900070B512480024016821F440610160016891
:1043A00001600F4D0126C5F89462304606F0F4FE18
:1043B000C5F89062012006F0EFFE07E0641CE4B24D
:1043C000FA2C03D9FFF7C2FF012070BDD5F8140203
:1043D0000028F3D1C5F8900270BD0000001C024017
:1043E0000080434200B5B0EE415A2DED088BF0EE4F
:1043F000605AB0EE406ADFED546A544A21EEA10AD9
:10440000D2ED004A92ED014A02EE020AD2ED023AE2
:1044100092ED033A24EEA48A64EE848A24EEA3AAE1
:1044200002EEA20A24EE049A64EE03AA63EEA39AB3
:1044300063EE83BA23EE03BA06F0C8FF3AEECA1A57
:1044400021EE807A62EE007AF0EE000A22EE800A17
:1044500061EE202A38EEAB1A3C48143821EE202AAF
:1044600078EE490A70EEE90A30EE8B8AD0ED020A46
:1044700067EE881A40EE421A27EE022A20EE220A40
:1044800007EEE22ADFED322A07EE480A41EEA20AE1
:10449000C0ED020A90ED037A00EE227A80ED037AF5
:1044A00090ED041A02EE221A80ED041AD0ED002AD3
:1044B00002EEA16AD0ED011A42EE805A02EE825A53
:1044C00001EEA06A41EE875A01EE815A24EE460AB7
:1044D00003EEE50A03EE450A40EE264A24EE860A7C
:1044E00003EE850A03EE650A00EE264A24EEA50ACD
:1044F00004EE450A03EE060A40EE263A24EE850A4B
:1045000004EE250A03EEC60A00EE263A24EEA40ABB
:1045100004EE040A03EEA30A03EE030A06F056FFB4
:1045200064EE800AC2ED000A64EE000AC2ED010AE0
:1045300063EE800A23EE000AC2ED020A82ED030A4E
:10454000BDEC088B00BD00000AD7233BE000002033
:104550000AD7A33B70B54C4E05462DED068B96ED64
:10456000000B9FED4A8B51EC100B53EC182BFBF713
:1045700050FF41EC190B474890ED000AB8EEC00A15
:104580009FED45AA20EE0A0A10EE100AFCF759F832
:1045900053EC192BFBF796FEFCF796F8286096ED86
:1045A000020B53EC182B51EC100BFBF732FF41ECD4
:1045B000190B3A4890ED000AB8EEC00A20EE0A0A3C
:1045C00010EE100AFCF73DF853EC192BFBF77AFEBE
:1045D000FCF77AF8686096ED040B53EC182B51EC5D
:1045E000100BFBF716FF41EC180B2D4890ED000A5D
:1045F000B8EEC00A20EE0A0A10EE100AFCF721F805
:1046000053EC182BFBF75EFEFCF75EF80024A86065
:1046100055F82400FCF715F806EBC402641CC2E947
:104620000001032CF4DB1F4890ED000A2148F8EE4E
:10463000C00A9FED1D0A20EE801ADFED1C0AC1EEB4
:10464000201A9FED1B1A81EE812A85ED032AD0EDF9
:10465000001A1948F8EEE11A21EE802AC2EE201A5B
:1046600081EE812A85ED042AD0ED001AF8EEE11AD8
:1046700061EE801A81EEA00AC0EE010AC5ED050ABE
:10468000BDEC068B70BD000030050020000000C0AE
:10469000CCCCE43FFC0000203333B33E00010020CB
:1046A00004010020F0000020B81E494000003443FF
:1046B00033338341F4000020F800002010B569482E
:1046C0002DED0E8BFFF746FF664800F10C01D0EC94
:1046D000031A91EC030AFFF785FE6348F8EE00DA4F
:1046E000B0EE00DA90ED019AD0ED000AD0ED038A29
:1046F00029EE2DCA60EE8D9A90ED028A2CEE280AE2
:1047000009EE880A10EE100AFBF79BFF41EC100B34
:1047100005F0AEFB9FED55AB51EC100B53EC1A2B93
:10472000FBF777FE9FED53BB53EC1B2BFBF7E3FE30
:10473000FBF7CAFF2CEE090A68EE0DEA494CB7EE0A
:1047400000EA0C3C0EEEC80A206030EE0E0A10EEB5
:10475000100AFBF776FF2EEEA80A41EC1C0B09EEBF
:10476000890A10EE100AFBF76CFF41EC100BB0EE5B
:104770004C1AF0EE6C1A05F097FE53EC1A2B51EC24
:10478000100BFBF746FE53EC1B2BFBF7B4FEFBF7BD
:104790009BFF28EE2D0A68EE8D0A606020EE080A65
:1047A00000EEE80A30EE0E0A10EE100AFBF749FFA1
:1047B00029EE0D0A41EC1C0B20EE080A09EEA80AAE
:1047C00010EE100AFBF73DFF41EC100BB0EE4C1A57
:1047D000F0EE6C1A05F068FE53EC1A2B51EC100B3E
:1047E000FBF717FE53EC1B2BFBF785FEFBF76CFF6B
:1047F00000EE100A214984ED020A6068884202DC5A
:104800001F49884217D9D4ED000AF5EEC00AF1EE2F
:1048100010FA05DD9FED1B1A71EE600AC4ED000A67
:10482000F5EEC00AF1EE10FA05D29FED171A71EEFF
:10483000600AC4ED000A10EE100A1449DFED140AF4
:10484000884202DD30EE600A06E010EE100A1149DF
:10485000884203D930EE200A84ED020ABDEC0E8BAB
:1048600010BD000054050020E00000200000000002
:104870000080664000000000D72309400000B442D9
:104880000000B4C200003443000034C300003443CD
:104890000000B443000034C31CB54FF6FF7000F0B5
:1048A000B5FA0E4C1F204FF4EB732060FA2240F251
:1048B000B3115F2000F0ACFB47F6FF70206008A149
:1048C0001820CDE900017823C8224FF4DC71642060
:1048D00003F099F80649012008801CBD580000200B
:1048E0006261636B20746F20696E69740000000060
:1048F000360000201CB54FF6FF7000F087FA104C10
:104900001F204FF4EB732060FA2240F2B3115F20B6
:1049100000F07EFB47F6FF7020600AA11820CDE969
:1049200000017823C8224FF4DC71642003F06BF897
:10493000002005F04BFA0749012008701CBD00005B
:10494000580000206261636B20746F20696E697487
:1049500000000000140100202DE9FC5F4FF6FF70FD
:1049600000F054FAF24D1F274FF48C784346B422DE
:10497000F0218C202F6000F04BFB4346DC22F0211D
:10498000B42000F045FB4FF4827443462246F021E8
:10499000DC2000F03DFB4FF4A0794B46B4224146A9
:1049A0008C2000F035FB4B46DC224146B42000F061
:1049B0002FFB4B4622464146DC2000F029FB4FF4FA
:1049C000B47A5346B42249468C2000F021FB53466A
:1049D000DC224946B42000F01BFB534622464946E0
:1049E000DC2000F015FB4FF4C87B5B46DC2251460F
:1049F000B42000F00DFB5B4622465146DC2000F05F
:104A000007FB5B46B42251468C2000F001FB47F6C1
:104A1000FF76C8A018242E60CDE9004078231A46FE
:104A2000C821962002F0EFFFC5A0CDE90040782311
:104A30001A46F521912002F0E6FFC2A0CDE9004020
:104A400078231A46F521B92002F0DDFFBEA0CDE99A
:104A5000004078231A46F521E12002F0D4FFBBA0E4
:104A6000CDE9004078231A4640F21D11912002F052
:104A7000CAFFB7A0CDE9004078231A4640F21D11C5
:104A8000B92002F0C0FFB3A0CDE9004078231A4658
:104A900040F21D11E12002F0B6FFAFA0CDE90040C9
:104AA00078231A4640F24511912002F0ACFFABA0EA
:104AB000CDE9004078231A4640F24511B92002F0B2
:104AC000A2FFA7A0CDE9004078231A4640F2451185
:104AD000E12002F098FFA3A0CDE9004078231A4618
:104AE00040F26D11B92002F08EFF9FA0CDE9004089
:104AF00078231A4640F26D11E12002F084FF9BA05A
:104B0000CDE9004078231A4640F26D11912002F061
:104B10007AFF43463222F0210A202F6000F078FA13
:104B200043465A22F021322000F072FA4346822294
:104B3000F0215A2000F06CFA4B46322241460A20FE
:104B400000F066FA4B465A224146322000F060FAE5
:104B50004B46822241465A2000F05AFA53463222EE
:104B600049460A2000F054FA53465A224946322058
:104B700000F04EFA5346822249465A2000F048FA85
:104B80005B465A225146322000F042FA5B468222AE
:104B900051465A2000F03CFA5B46322251460A2028
:104BA00000F036FA4FF4EB73FA2240F2B3115F20B3
:104BB00000F02EFAAA23C8228221462000F028FA0B
:104BC0006BA02E60CDE9004078231A46C82114203E
:104BD00002F019FF5AA0CDE9004078231A46F521CA
:104BE0000F2002F010FF57A0CDE9004078231A46AD
:104BF000F521372002F007FF53A0CDE900407823CC
:104C00001A46F5215F2002F0FEFE50A0CDE90040DB
:104C100078231A4640F21D110F2002F0F4FE4CA03A
:104C2000CDE9004078231A4640F21D11372002F0EA
:104C3000EAFE48A0CDE9004078231A4640F21D1153
:104C40005F2002F0E0FE44A0CDE9004078231A4640
:104C500040F245110F2002F0D6FE40A0CDE9004001
:104C600078231A4640F24511372002F0CCFE3CA0D2
:104C7000CDE9004078231A4640F245115F2002F04A
:104C8000C2FE38A0CDE9004078231A4640F26D11EB
:104C9000372002F0B8FE34A0CDE9004078231A4650
:104CA00040F26D115F2002F0AEFE30A0CDE9004071
:104CB00078231A4640F26D110F2002F0A4FE2EA0B8
:104CC000CDE900407823C8224FF4DC71642002F063
:104CD0009AFE2DA0CDE900407823C82287216E20BE
:104CE00002F091FE2AA0CDE9004078231A463C212B
:104CF000142002F088FE28A0CDE9004078231A464F
:104D00005A21142002F07FFE26A0CDE9004078232E
:104D10001A463C21E62002F076FE23A0CDE90040B1
:104D200078231A465A21E62002F06DFEBDE8FC9F6A
:104D30005800002044697374616E636500000000D0
:104D40003100000032000000330000003400000099
:104D50003500000036000000370000003800000079
:104D6000390000003000000042610000436C000088
:104D7000416E676C650000006261636B20746F2098
:104D8000696E6974000000004669726500000000E9
:104D9000416E676C653A000044697374616E6365C7
:104DA0003A000000647500006D6D000070B5144895
:104DB00086B00025016841F001010160016801F041
:104DC00001010591016841F0800101600068032440
:104DD00000F08000059002200126CDE90204CDE913
:104DE000006569460748FDF751F80C2003948DE8EB
:104DF000610069460448FDF749F806B070BD00003F
:104E00003038024000000240001C024070B50E49DC
:104E10000E4A064608881268002422B13046BDE8D2
:104E2000704002F0ADBE4D8800214543084602F0B7
:104E3000BFFC02F06DFEB1B2054801E00180641CC8
:104E4000AC42FBD370BD0000200300200C04002006
:104E5000000008602DE9F05F394C3A4DA0712968D7
:104E600039B102F0ADFEE88A2080288B6080BDE871
:104E7000F09F33492C232A2589884FF0F00949F205
:104E8000413A2B2645F2105B4FF4305E4FF44877E1
:104E90004FF4A07845F2103C4FF4F07258B1A4F8EA
:104EA0000080A4F80290514501D0614529D12381A9
:104EB0006581A68139E0A4F80090A4F802805145EC
:104EC00001D0614508D123816581A681614531D139
:104ED000A4F8008062802DE0594508D1A4F808E0CC
:104EE0004FF4285060814FF42C50A08106E0A1F5CA
:104EF000C85063381ED123816681A58122806780D6
:104F000018E0594508D1A4F808E04FF42850608112
:104F10004FF42C50A08106E0A1F5C850633804D1AD
:104F200023816581A68127806280614502D122802C
:104F3000A4F80280BDE8F05F002002F05DBB000035
:104F4000200300200C0400202DE9FE4F0026A2EBD8
:104F5000000882465F1A701E35468946B8F1000F78
:104F600002DD4FF0010102E003D14FF00001019199
:104F700002E0C8F100080190002F02DD4FF00100AF
:104F800002E003D14FF00000009002E0C7F10007FB
:104F900000904046B84501DD044600E03C46601CF8
:104FA0004FF0000B029015E01FFA89F11FFA8AF00A
:104FB00000F016F846443D44A64202DD0199361B36
:104FC0008A44A54202DD00992D1B89440BF10100A2
:104FD0001FFA80FB02998B45E6DDBDE8FE8F0000DD
:104FE00010B5084A084C126822B12268BDE810408A
:104FF00002F0FABD02F0DCFB02F08AFD03492088D2
:10500000088010BD0C04002058000020000008603B
:105010002DE9F0411C4615460E4607460B46FFF7A4
:1050200093FF3A46234631461046FFF78DFF23464D
:105030002A4619463846FFF787FF2A462346314657
:10504000BDE8F0411046FFF77FBF2DE9FC5F8046C9
:105050000024154603200F46A0EB450649E0781BC7
:1050600081B208EB040A01901FFA8AF0FFF7B8FF3B
:10507000381B81B208EB050900901FFA89F0FFF791
:10508000AFFF07EB040B1FFA8BF11FFA89F0FFF754
:10509000A7FF07EB05091FFA89F11FFA8AF0FFF74E
:1050A0009FFFA8EB040A1FFA89F11FFA8AF0FFF7A5
:1050B00097FFA8EB05091FFA8BF11FFA89F0FFF79C
:1050C0008FFF019881B21FFA8AF0FFF789FF0098DD
:1050D00081B21FFA89F0FFF783FF641C002E03DA08
:1050E00006EB8406B61D04E0601B06EB80066D1E11
:1050F0000A36AC42B3DDBDE8FC9F00002DE9F0416B
:1051000004463A480D46006820B12046BDE8F0410B
:1051100002F06ABD364E270A3146B0884989A0F5AB
:1051200013434FEA1528413B0CD0A0F5A643103B92
:1051300008D0A0F5AA43103B11D0A0F5C853633B9B
:1051400027D04BE0084602F0D7FC384602F0C8FCF6
:10515000E0B202F0C5FCB08902F0CEFC38E00846AF
:1051600002F0CAFC384602F0BBFC7089401C80B2D9
:1051700002F0C2FCE0B202F0B3FCB08902F0BCFC69
:10518000404602F0ADFCB089401C80B202F0B4FC95
:1051900021E0B07918B93088001B401E84B208465F
:1051A00002F0AAFC270A384602F09AFCE0B202F0AC
:1051B00097FC384602F094FCE0B202F091FCB08912
:1051C00002F09AFC404602F08BFCE8B202F088FC48
:1051D000404602F085FCE8B202F082FC05493089C5
:1051E0000880881C0280BDE8F08100000C040020CB
:1051F00020030020FEFF07602DE9F04F95B002F07C
:10520000A3FEFE4D4FF0010AA5F15009A88049F216
:10521000413B45F2103645F2105441F6631818B17F
:1052200002F05AFD02F08BB9F5480027016841F001
:1052300002010160006810A900F002000090202027
:10524000CDE9100A0320CDE912A0EE48FCF71EFEBE
:105250004FF020414846C9F80010EB49C0E901175A
:105260001021C9F80C70C0E90471C9F8187009025E
:10527000C9F81C70C0E909718900C0E90B71C9F84F
:1052800034708901C9E90E7146210B910F20CDE9D7
:105290000907CDE902070490D8480F9702AA09A987
:1052A00008975038FEF7A9F8322005F067FFD320A1
:1052B00002F022FC02F06EF9A88002F06BF9A880DF
:1052C00002F068F94FF6FF7202EA0020A88002F0AF
:1052D00061F9A9885F460843A880B84248D0D42025
:1052E00002F00AFC02F056F9A88002F053F9A880F7
:1052F00002F050F902EA0020A88002F04BF9A988D8
:105300000843A880B04233D04FF45A4002F0F4FB77
:1053100002F040F9A8804FF45B4002F0EDFB02F090
:1053200039F902EA0020A8804FF45C4002F0E4FB67
:1053300002F030F9A9880843A880B0F5004F7DD06D
:10534000A04215D0A12002F0D7FB02F023F9A880DB
:1053500002F020F902EA0020A88002F01BF9A988D7
:105360000843A0F5AE41A880613901D1A5F80480B9
:10537000A988A6A004F050FDA888B8427ED1CF200D
:1053800002F0BAFB002002F0ABFBC12002F0A8FB48
:10539000302002F0A5FBED2002F0AEFB642002F00D
:1053A0009FFB032002F09CFB122002F099FB81205E
:1053B00002F096FBE82002F09FFB852002F090FBB4
:1053C000102002F08DFB7A2002F08AFBCB2002F045
:1053D00093FB392002F084FB2C2002F081FB00209B
:1053E00002F07EFB342002F07BFB022002F078FB0F
:1053F000F72002F081FB202002F072FBEA2002F08D
:105400007BFB002002F06CFB002002F069FBC02057
:1054100002F072FB1B2002F063FBC12002F06CFB68
:10542000012002F05DFBC52002F066FB302002F097
:1054300057FB302002F054FBC72000E0B7E002F039
:105440005BFBB72002F04CFB362002F055FB4820F6
:1054500002F046FB3A2002F04FFB552002F040FBE1
:10546000B12002F049FB002002F03AFB1A2002F0C2
:1054700037FBB62002F040FB0A2000E099E002F082
:105480002FFBA22002F02CFBF22002F035FB0020C3
:1054900002F026FB262002F02FFB012002F020FB69
:1054A000E02002F029FB0F2002F01AFB2A2002F074
:1054B00017FB282002F014FB082002F011FB0E203D
:1054C00002F00EFB082002F00BFB542002F008FB58
:1054D000A92002F005FB432002F002FB0A2002F0A3
:1054E000FFFA0F2002F0FCFA002002F0F9FA002087
:1054F00002F0F6FA002002F0F3FA002002F0F0FACF
:10550000E12002F0F9FA002002F0EAFA152002F098
:10551000E7FA172002F0E4FA072002F0E1FA11207E
:1055200002F0DEFA062002F0DBFA2B2002F0D8FAB5
:10553000562002F0D5FA3C2002F0D2FA052002F003
:10554000CFFA102002F0CCFA0F2002F0C9FA3F2067
:1055500002F0C6FA3F2002F0C3FA0F2002F0C0FAB0
:105560002B2002F0C9FA002002F0BAFA002002F063
:10557000B7FA012002F0B4FA3F2002F0B1FA2A2073
:1055800002F0BAFA002002F0ABFA002002F0A8FA0A
:10559000002002F0A5FAEF2002F0A2FA112002F09A
:1055A000ABFA782005F0EAFD292001F00BBFAC80B2
:1055B000DEE6B0427ED1ED2002F09EFA012002F03C
:1055C0008FFAFE2002F08CFAEE2002F095FADE202F
:1055D00002F086FA212002F083FAF12002F08CFA20
:1055E000012002F07DFADF2002F086FA102002F09E
:1055F00077FAC42002F080FA8F200FE02003002009
:105600003038024000040240040100A0204C434412
:105610002049443A25780D0A0000000002F060FAA3
:10562000C62002F069FA002002F05AFAE22002F0E5
:1056300057FAE22002F054FAE22002F051FABF20B9
:1056400002F05AFAAA2002F04BFAB02002F054FA03
:105650000D2002F045FA002002F042FA0D2002F07F
:105660003FFA002002F03CFA112002F039FA002043
:1056700002F036FA192002F033FA002002F030FA74
:10568000212002F02DFA002002F02AFA2D2002F04B
:1056900027FA002002F024FA3D2002F021FA00202F
:1056A00002F01EFA5D2002F01BFA002002F018FA48
:1056B0005D2000E0FEE302F013FA002002F010FA91
:1056C000B12002F019FA802002F00AFA002002F05C
:1056D00007FA8B2002F004FA002002F001FA96206B
:1056E00002F0FEF9002002F0FBF9B22002F004FA09
:1056F000002002F0F5F9002002F0F2F9022002F099
:10570000EFF9002002F0ECF9032002F0E9F90020A3
:1057100002F0E6F9B32002F0EFF9002002F0E0F920
:10572000002002F0DDF9002002F0DAF9002002F09A
:10573000D7F9002002F0D4F9002002F0D1F90020BE
:1057400002F0CEF9002002F0CBF9002002F0C8F9F7
:10575000002002F0C5F9002002F0C2F9002002F09A
:10576000BFF9002002F0BCF9002002F0B9F90020D6
:1057700002F0B6F9002002F0B3F9002002F0B0F90F
:10578000002002F0ADF9002002F0AAF9002002F09A
:10579000A7F9002002F0A4F9002002F0A1F90020EE
:1057A00002F09EF9002002F09BF9B42002F0A4F967
:1057B0008B2002F095F9002002F092F9962002F079
:1057C0008FF9002002F08CF9A12002F089F9002065
:1057D00002F086F9B52002F08FF9022002F080F97C
:1057E000002002F07DF9032002F07AF9002002F097
:1057F00077F9042002F074F9002002F071F9B62064
:1058000002F07AF9002002F06BF9002002F068F94A
:10581000B72002F071F9002002F062F9002002F0D6
:105820005FF93F2002F05CF9002002F059F95E2098
:1058300002F056F9002002F053F9642002F050F90A
:10584000002002F04DF98C2002F04AF9002002F00D
:1058500047F9AC2002F044F9002002F041F9DC20C5
:1058600002F03EF9002002F03BF9702002F038F916
:10587000002002F035F9902002F032F9002002F009
:105880002FF9EB2002F02CF9002002F029F9DC209E
:1058900002F026F9002002F023F9B82002F02CF9DA
:1058A000002002F01DF9002002F01AF9002002F099
:1058B00017F9002002F014F9002002F011F900207D
:1058C00002F00EF9002002F00BF9002002F008F9B6
:1058D000BA2002F011F9242002F002F9002002F0AF
:1058E000FFF8002002F0FCF8002002F0F9F8C120D7
:1058F00002F002F9202002F0F3F8002002F0F0F8A4
:10590000542002F0EDF8002002F0EAF8FF2002F047
:10591000E7F8002002F0E4F8C22002F0EDF80A20D7
:1059200002F0DEF8002002F0DBF8042002F0D8F8E4
:10593000002002F0D5F8C32002F0DEF83C2002F08F
:10594000CFF8002002F0CCF83A2002F0C9F800208D
:1059500002F0C6F8392002F0C3F8002002F0C0F8C7
:10596000372002F0BDF8002002F0BAF83C2002F027
:10597000B7F8002002F0B4F8362002F0B1F80020A9
:1059800002F0AEF8322002F0ABF8002002F0A8F8E6
:105990002F2002F0A5F8002002F0A2F82C2002F03F
:1059A0009FF8002002F09CF8292002F099F80020CE
:1059B00002F096F8262002F093F8002002F090F80A
:1059C000242002F08DF8002002F08AF8242002F052
:1059D00087F8002002F084F8232002F081F80020EC
:1059E00002F07EF83C2002F07BF8002002F078F80C
:1059F000362002F075F8002002F072F8322002F032
:105A00006FF8002002F06CF82F2002F069F80020F7
:105A100002F066F82C2002F063F8002002F060F833
:105A2000292002F05DF8002002F05AF8262002F04A
:105A300057F8002002F054F8242002F051F800201A
:105A400002F04EF8242002F04BF8002002F048F853
:105A5000232002F045F8002002F042F8C42002F0B2
:105A60004BF8622002F03CF8002002F039F80520E3
:105A700002F036F8002002F033F8842002F030F80B
:105A8000002002F02DF8F02002F02AF8002002F0A9
:105A900027F8182002F024F8002002F021F8A420B2
:105AA00002F01EF8002002F01BF8182002F018F88F
:105AB000002002F015F8502002F012F8002002F049
:105AC0000FF80C2002F00CF8002002F009F8172063
:105AD00002F006F8002002F003F8952002F000F82A
