:020000040800F2
:10000000700D0020C1010008D39400088349000846
:10001000D1940008350E000879AF000800000000F8
:10002000000000000000000000000000DD9A000851
:10003000A511000800000000C7980008919B000867
:10004000DB010008DB010008DB010008DB01000820
:10005000DB010008DB010008DB010008DB01000810
:10006000A7110008AD110008DB010008DB01000842
:1000700001110008DB0100080D110008DB01000878
:10008000DB010008DB010008DB010008DB010008E0
:10009000DB010008DB010008DB010008B3110008E8
:1000A000DB010008DB010008DB010008DB010008C0
:1000B000E99B0008DB010008DB010008DB01000808
:1000C000DB010008DB010008DB010008DB010008A0
:1000D000DB010008DB010008F5AE000801AF0008F5
:1000E000DB010008DB010008DB010008DB01000880
:1000F000DB010008DB010008DB010008DB01000870
:10010000DB010008DB010008DB010008DB0100085F
:10011000DB010008DB010008DB010008DB0100084F
:10012000DB01000819110008DB010008DB010008F1
:10013000DB010008DB010008DB010008DB0100082F
:10014000DB010008DB010008DB010008DB0100081F
:10015000DB01000825110008DB01000821AF0008C1
:10016000DB010008DB010008DB010008DB010008FF
:10017000DB010008DB010008DB01000800000000D3
:10018000DB010008DB010008DB010008DB010008DF
:10019000DB010008DB010008DB010008DB010008CF
:1001A000DB010008DB010008DB010008DFF80CD0F0
:1001B00000F07EFC00480047B9D20008700D002016
:1001C0000648804706480047FEE7FEE7FEE7FEE7F1
:1001D000FEE7FEE7FEE7FEE7FEE7FEE7959B000889
:1001E000AD0100082DE9F0410024061B254671F100
:1001F000000605DA01240027D0EB070067EB0101B8
:10020000161E73F1000605DA0027D2EB070201255E
:1002100067EB030300F09EFA86460E4617469C469F
:10022000AC4204D00025D0EB050E65EB010624B1ED
:100230000020D2EB000760EB030C704631463A46D3
:100240006346BDE8F08140EA01039B0703D009E063
:1002500008C9121F08C0042AFAD203E011F8013BB2
:1002600000F8013B521EF9D27047D2B201E000F80B
:10027000012B491EFBD270470022F6E710B513464A
:100280000A4604461946FFF7F0FF204610BD10B598
:10029000002200E0521C835C8C5CA34201D1002B45
:1002A000F8D1D8B2E1B2401A10BD70B506460AF0D6
:1002B000B3FE046805460A220021304600F0ACFA7D
:1002C0002C6070BD2DE9FE4F804681EA0300C00F0F
:1002D0000C46009021F0004123F00045B8EB0200ED
:1002E000A94105D24046214690461C460B4602468F
:1002F00023F00040104347D0270DC7F30A00C3F393
:100300000A510290401A019040286BDAC3F313009F
:1003100040F4801B0098924620B10023D2EB030AE0
:1003200063EB0B0B01985946C0F14002504600F0B8
:1003300042FA06460D4650465946019A00F05AFACE
:1003400010EB08006141002487EA115284EAE77348
:100350001A4340D0009A62B3019A012A4FEA075229
:1003600015DC001B61EB02014FF0004202EA07526C
:10037000CDE90042001C41F5801132462B4600F0C9
:10038000C9FA03B0BDE8F08F40462146F9E7001BEB
:1003900061EB0201001C41F5801300185B4120183D
:1003A000A2F5001747EB030140EAD570B6196D417D
:1003B00011E06D084FEA360645EAC0754FEA07526C
:1003C000001B61EB0201001C41F5801149084FEA56
:1003D00030000019514132462B4603B0BDE8F04FC2
:1003E00000F089BA0098012240000023D0EB0202FD
:1003F00063EBE073009821464FEAE074B8EB00002D
:1004000061EB0401E9E783F000435BE781F0004121
:1004100058E72DE9FE4F81EA030404F0004421F07F
:10042000004100944FF0000B23F0004350EA010418
:100430005ED052EA03045BD0C3F30A54C1F30A55F9
:100440002C44A4F2F3340194A0FB0254C1F3130131
:1004500041F48011C3F3130343F4801301FB0244FE
:1004600000FB034E840A970A44EA815447EA835703
:10047000A4FB076802958D0A05FB07854FEA932CBC
:1004800004FB0C542705029D4FEA065847EA16372D
:10049000B5EB08056EEB070C870E920E47EA811745
:1004A00042EA8312A7FB0201B6EB0B0164EB0004E6
:1004B0002B0D43EA0C335E1844EB1C50DA465146D0
:1004C000E7FB0201C5F313044FEA0B3343EA14536D
:1004D0004FEA0432019C43EA0603A4F10C0402949F
:1004E000009CCDE900B400F015FA03B0BDE8F08F30
:1004F00000200146F9E72DE9F04D81EA030404F0FC
:10050000004B21F0004514464FF0000A23F0004153
:1005100050EA050220D054EA01021DD0C5F30A5763
:100520000246C5F31303C1F31300C1F30A5640F4A6
:10053000801543F48013A7EB0608101BD64608F27B
:10054000FD3873EB050002D308F1010801E09218B1
:100550005B41B8F1000F03DA00200146BDE8F08DE1
:1005600000204FF48011064684460EE0171B73EB03
:10057000050705D3121B63EB050306434CEA010C88
:1005800049084FEA300092185B4150EA0107EDD16B
:1005900052EA030012D082EA040083EA050108430C
:1005A00005D0101BAB4106D20122002306E0002239
:1005B0004FF0004302E06FF0010253101AEB060007
:1005C0004CEB085110EB0A0041EB0B01BDE8F04D7C
:1005D00000F091B90EB5C10F80EAE0700844CA0777
:1005E000002140F233438DE80E000A460B4600F02E
:1005F00091F903B000BD0EB540F2334102910021E4
:10060000CDE900110A460B4600F084F903B000BDA5
:100610003EB5CA17CB0F002450405140C01861416D
:10062000DA0740F233430094CDE901232246234602
:1006300000F070F903B030BDC1F30A5210B5C1F338
:10064000130140F2FF3341F480119A4201DA002095
:1006500010BD40F233439A42A2F2334203DC5242CD
:1006600000F0B8F810BD904010BD00F0004230F02E
:1006700000400AD0C10D01F56071C0F3160042EAD6
:100680000151C208400711437047002001467047DE
:1006900030B5041E71F1000404DB4FF00044404209
:1006A00064EB0101141E73F1000405DB1C464FF0DE
:1006B0000043524263EB04038B4208BF824230BDC9
:1006C00030B5041E71F1000404DB4FF000444042D9
:1006D00064EB0101141E73F1000405DB1C464FF0AE
:1006E0000043524263EB0403994208BF904230BD7D
:1006F00001F0004330B421F0004150EA010206D07D
:100700000A0DA2F56072C1F31301002A02DC30BCAD
:1007100000207047440F44EAC104C100E01830BC17
:1007200000EBC25000F0B0B830B50B4601460020D7
:100730002022012409E021FA02F59D4205D303FAA3
:1007400002F5491B04FA02F52844151EA2F1010224
:10075000F1DC30BD2DE9F05F0546002092469B4656
:1007600088460646814640241BE0284641464746C7
:10077000224600F02FF853465A46C01A914110D332
:1007800011461846224600F016F82D1A67EB0108AC
:100790004F4622460120002100F00DF817EB00091A
:1007A0004E41201EA4F10104DFDC484631462A46B2
:1007B0004346BDE8F09F202A04DB203A00FA02F10C
:1007C000002070479140C2F1200320FA03F319433F
:1007D00090407047202A04DB203A21FA02F00021E1
:1007E000704721FA02F3D040C2F120029140084341
:1007F00019467047202A06DBCB17203A41FA02F04F
:1008000043EAE07306E041FA02F3D040C2F120026D
:1008100091400843194670472DE9F04791460F462D
:1008200080460446002614F8015B2DB100F052F911
:100830000068405DC007F6D12B2D02D02D2D18D0B9
:10084000641E4A463946204600F048F927B1396807
:10085000A14201D1C7F8008071054FF002040BD509
:100860004042002803DD0AF0D7FB0460A007BDE882
:10087000F08746F48066E4E70028F8DA0AF0CCFB5B
:1008800004606FF00040F2E70029A8BF7047401CE9
:10089000490008BF20F00100704710B4B0FA80FC96
:1008A00000FA0CF050EA010404BF10BC704749B1D3
:1008B000CCF1200421FA04F411FA0CF118BF012143
:1008C00021430843A3EB0C01CB1D4FEA00614FEA23
:1008D000102042BF002010BC704700EBC3501044F2
:1008E0000029A4BF10BC7047401C490008BF20F07D
:1008F000010010BC704710B5141E73F1000408DA33
:10090000401C41F1000192185B411A4301D120F0D3
:10091000010010BD2DE9F04D92469B4611B1B1FA90
:1009200081F202E0B0FA80F220329046FFF743FFF6
:1009300004460F4640EA0A0041EA0B0153465A4674
:10094000084313D0114653EA010019D0C8F1400200
:100950005046FFF73FFF05460E4650465946424671
:10096000FFF729FF084305D0012004E0204639465F
:10097000BDE8F08D0020054346EAE0762C4337437E
:100980000A986305E40AA0EB08000022FD0A44EA85
:1009900047540A3002D500200146E9E70105101945
:1009A0006941DDE9084500196941BDE8F04DA2E75C
:1009B00070B521F0004303430CD0C1F30A55002465
:1009C000D5EB040564EB0403D617AD1AB34102DB83
:1009D0000020014670BD201841EB025170BD2DE989
:1009E000F04D00231A461B1A8A4103DB0020014602
:1009F000BDE8F08DC1F30A52C1F3130141F4801533
:100A00004FF0000BD10702D100186D41521E002794
:100A1000044640F2FF11384601EB620A3E4680462A
:100A2000024600204FF48011FFF7D4FEC219714135
:100A3000BB1846EB0100B4EB030C75EB000C04D3C0
:100A4000E41A65EB000517460E46241908F101006B
:100A50006D4180463428E3DDF91946EB0600091B99
:100A6000A84103D24FF0FF32134601E000221346A3
:100A70001BEB070046EB0A51BDE8F04DFFF73BBF0B
:100A8000C1F30A52C1F3130140F2FF3341F4801164
:100A90009A4202DA00200146704740F233439A42FC
:100AA000A2F2334202DC5242FFF794BEFFF783BE4C
:100AB000064C074D06E0E06840F0010394E80700AB
:100AC00098471034AC42F6D3FFF774FB642A010850
:100AD000842A0108004870479C2901082DE9F05F2D
:100AE00082460078002715468B460AF10104B94674
:100AF000302801D09DB113E014F8010B01277828AC
:100B000003D0582801D045B10AE00DB1102D07D10E
:100B10000027102514F8010B02E0082500E00A2543
:100B20000026B0460EE005FB080005FB06F1012794
:100B300001EB10461FFA80F8B6F5803F00D3B946A6
:100B400014F8010B294600F018F80028EBDABBF185
:100B5000000F05D00FB1641E00E05446CBF80040F2
:100B6000B9F1000F06D00AF057FA02210160C81E41
:100B7000BDE8F09F48EA0640FAE73A2800D230384C
:100B800020F02002412A01D3A2F13700884201D38C
:100B90004FF0FF30704730B58C1810F8012B12F071
:100BA0000F0301D110F8013B120906D110F8012BF7
:100BB00003E010F8015B01F8015B5B1EF9D101E075
:100BC00001F8013B521EFBD1A142E6D3002030BD0B
:100BD00003F0FCBE2DE9F0410D460146002004461D
:100BE0004E1908E00702301B401E80B200F007F8E3
:100BF000641C3844E4B2AC42F4D3BDE8F08110B5D3
:100C0000044603F07FFF200AA02101EB4000C0B2A0
:100C100003F044FF03F0C2FFE0B203F03FFF03F034
:100C2000BDFF03F06FFFA12003F038FF03F0B6FF14
:100C3000002003F0FBFE044603F08AFF204610BDAF
:100C40002DE9F04116460D460746002409E0E00074
:100C500025FA00F0C1B2381980B200F006F8641C21
:100C6000E4B2B442F3D3BDE8F08170B50D4604465A
:100C700003F048FF200AA02101EB4000C0B203F0BE
:100C80000DFF03F08BFFE0B203F008FF03F086FFD7
:100C9000284603F003FF03F081FF03F059FFBDE88E
:100CA00070400A200CF092B970B5142001F07DF963
:100CB00017480088002829D116480078022825D135
:100CC000154C0020154B014640F6AC55C4F8000009
:100CD00053F8202032B1AA4204DC2668491C324471
:100CE000C9B22260401CC0B20428F1D3206890FB36
:100CF000F1F02060142001F058F909A021680AF0F1
:100D000063F900F083F80CF095F9FEE770BD000080
:100D10002A000020000000202000002014070020EE
:100D200064697374616E63653A2025640A0000008B
:100D3000142001F03AB9000010B54FF6FF7004F02E
:100D4000A3FE1E200AF01AF9002008F0BDFD064996
:100D50001E209FED060B08800648074980ED000B1A
:100D60000020088010BD00003000002000000000BE
:100D700000000000780100202A00002010B54FF686
:100D8000FF7004F081FE0A48002404701E200AF05F
:100D9000F5F8002008F098FD08489FED060B09497A
:100DA00080ED000B064804601E20088010BD000086
:100DB000000000200000000000000000780100207A
:100DC00018000020300000200E4810B5016886B0E1
:100DD00041F00401016000680B4C00F00400059034
:100DE00002200090012001900290032003906946A8
:100DF000204601F017F901220221204601F001FAF4
:100E000006B010BD303802400008024010B5084C52
:100E100000220221204601F0F4F9322001F0C5F849
:100E200020460122BDE81040022101F0EAB900008D
:100E300000080240FEE7000070B50E4C0025C4F823
:100E400098520D48016821F0C0010160016841F02D
:100E5000400101600948C0F88C52022004F5267454
:100E60000CF0C2F80120206002200CF0BDF82560D3
:100E700070BD000000804342002002400000444258
:100E8000154810B5016886B041F080010160016825
:100E900001F080010591016841F4807101600068F2
:100EA000012400F4807005904020CDE90004032067
:100EB000CDE902406946094801F0B4F808200090E5
:100EC0006946074801F0AEF80648C0F88C4206486B
:100ED000C0F8984206B010BD30380240001C0240F5
:100EE00000200240000044420080434270B50E4C96
:100EF0000025C4F898520D48016821F0C001016036
:100F0000016841F04001016009480126C0F88C6287
:100F1000022004F526740CF067F8266002200CF01D
:100F200063F8256070BD000000804342002002404D
:100F3000000044422DE9F047824619480024016828
:100F400021F0C0010160016801601E200CF04CF826
:100F50000025144EDFF850902F464FF0010800BFD7
:100F6000C6F8987202200CF03FF8C6F89882600626
:100F7000040ED9F80C0208B1641CE4B202200CF093
:100F800033F86D1CEDB2082DEAD3BAF1000F04D08E
:100F9000FFF752FF2046BDE8F087FFF7A7FFF9E70C
:100FA0000020024000804342000044422DE9F04707
:100FB00006461548016821F0C0010160016841F052
:100FC00040010160114D0027C5F89872DFF840809C
:100FD0003C464FF00109F109C8F88C127006060E64
:100FE00002200CF001F8C5F8989202200BF0FCFFEB
:100FF000C5F8987202200BF0F7FF641CE4B2082CCD
:10100000E9D3BDE8F08700000020024000804342A1
:101010000000444270B50F48016821F0C001016032
:10102000016841F0400101600B4C0120C4F88C02C2
:101030000A4DC5F898021E2004F5237405F526759F
:101040000BF0D2FF0026266002200BF0CDFF2E60B1
:1010500070BD000000200240000044420080434276
:1010600070B50F48016821F0C0010160016841F0CE
:10107000400101600B4C0020C4F898020A4DC5F8ED
:101080008C021E2004F5267405F523750BF0ACFFC9
:101090000126266002200BF0A7FF2E6070BD000025
:1010A00000200240008043420000444270B51148D5
:1010B0000024016821F0C0010160016801600E4E4A
:1010C0000120C6F88C020D4DC5F8980207E0641C9B
:1010D000E4B2FA2C03D9FFF7C3FF012070BD022050
:1010E0000BF082FFD6F80C020028F0D1C5F8980268
:1010F00070BD0000002002400000444200804342D6
:10110000014800F01FBE000058030020014800F015
:1011100019BE0000B0030020014800F013BE00001B
:1011200008040020014800F00DBE0000600400200B
:1011300001681823CAB2103AB2FBF3F2054B6FF301
:101140000901032A9B5C436500D9091D0165084616
:10115000704700006EDF000830B50468256825F48C
:1011600080252560046863608368402B036803D092
:1011700099600068C26030BD9A600068C16030BD8F
:1011800010B50122202104480CF0C7FE0349486035
:101190000349086010BD000014060020CC000020A8
:1011A000240000207047042000F030BF082000F029
:1011B0002DBF402000F02ABF70B5B3F5804F05D099
:1011C0006FF0704140F82210002070BD50F82240AE
:1011D000084B8E891C40D1E9003543EA05138D6820
:1011E00089692D0245EA06452B430B43234340F80A
:1011F0002230E9E70000F0CFF0B50C6850F8243059
:10120000194A1340D1E90125D1E903672A433E4336
:1012100032434E6932438E693243CE6932430E6A9D
:1012200032434E6A32438E6A3243CE6A3243CE6BC9
:1012300032430E6B32434E6B32431A43082D01D1B9
:1012400042F0400240F824204A6BB2F5801F08D1DA
:101250000A6832B14FF480720A610449026811438E
:1012600001600020F0BD00008000E0FF00011000E0
:10127000F0B500EB8204626802F04045D1E900233A
:1012800042EA03128B688E891B0243EA06431A4323
:101290000E8A0D4B03EB065632430E7D5F0107EBC2
:1012A000066632438E6932432A4362600268D20284
:1012B00007D54268098A22F4700203EB01511143F9
:1012C00041600020F0BD00000000F0FF30B5D1E922
:1012D00001231A43D1E903352B431A434B690C68A8
:1012E0001A438B691A43D1E90735012C496A04680E
:1012F0006FF30E0405D01A432A430A4322430260C7
:1013000008E02B4321430B43416803606FF30E0158
:101310000A434260002030BD426942EA4101416116
:1013200000207047F8B514460546D1E90002104385
:101330008A686FF01F03C96803EB421242EA412139
:1013400008430090286100F061FF064609E0601C38
:1013500007D024B100F05AFF801BA04201D903201E
:10136000F8BDA8698006F2D40020F8BDF0B56FF092
:101370000F05D1E9003405EB04145B1E2E01234355
:101380008C682F0306EB04244FEA054C23430D8A97
:101390008E8ACC68097E4FF07F4E07EB05450CEB3B
:1013A00006560EEB0161012A0CD082683F1107EB53
:1013B000043423432B43334302F070420B43134363
:1013C00083600FE0C2682B430B4302F070428168D8
:1013D000134301F070422103A1F5805131431143C1
:1013E000C36081600020F0BD10B5142000F0DDFD69
:1013F00001490120088010BD2C00002070B54A482A
:1014000088B00024016841F080010160016801F0AA
:1014100080010791016841F480710160006802A9B0
:1014200000F4807007908020012581E831000320BE
:1014300005903E4800F0F6FD2802CDE9020502A91C
:101440003B4800F0EFFDFFF71BFD3A4EC6F8A04207
:10145000142006F528760BF0B9FD356032200BF02C
:10146000B5FD8DF8004002226946A12000F072F817
:101470009DF80010302903D19DF80100032831D0D8
:101480009DF8010001282DD002282BD004226946A6
:1014900048F2401000F0A6FA8DF80440694626A0F4
:1014A00009F092FD2748009948F24005C0F8021063
:1014B00002208DF8000001226946284600F0EEFB6C
:1014C00001226946E81D00F08DFA0A200BF07EFD2E
:1014D0008DF8004001226946284600F0DFFB08B085
:1014E000002070BDC0B200EB012117A009F06CFD17
:1014F00001226946002000F08DF901226946A420EE
:1015000000F088F916208DF800000122694680203D
:1015100000F080F90C208DF8000001226946882037
:1015200000F078F9DBE7000030380240001C024090
:1015300000200240000044424354502049443A25D0
:10154000730D0A00700000204354502049443A258E
:10155000780D0A002DE9F04115460E460446FFF7C6
:1015600059FD7020FFF722FDFFF7A0FDE0B2FFF765
:101570001DFDFFF79BFDFFF74DFD7120FFF716FDE9
:10158000FFF794FD00246F1E09E0BC4201D001204A
:1015900000E00020FFF7CEFC3055641CE4B2AC4202
:1015A000F3D3BDE8F041FFF75BBD00002DE9F14743
:1015B00083B00026924D8DF804604FF00A096878D8
:1015C000904C401CC0B2B0FBF9F209FB1201374647
:1015D000687009B10A2871D289488BA1801CFEF776
:1015E00056FE4FF0010203A910B30220FFF7B2FF2D
:1015F0009DF80C00010761D0297800F00F028A42A3
:101600005CD8FF209040C04394F8348040F0C00084
:1016100084F8340004EB4100A2894281218CC1830B
:1016200003200BF0D3FC8DF80460DFF8E0A192E01A
:1016300048F24E18404600F0D5F99DF80C0001061E
:10164000D6D5297800F00F008842D1D88DF80460F3
:10165000012201A9404600F021FBC9E794F83410AB
:1016600001228240114271D0654867A1801CFEF7BB
:101670000EFE20B366489DF80410042230F81100D5
:101680006946FFF767FF94F844009DF80010C00713
:101690009DF8010001F00F0100EB012145D09DF8FC
:1016A000040004EB400001849DF802209DF8031023
:1016B00002F00F0201EB0221818147E067E054480C
:1016C0009DF804100A30042230F81100694600F039
:1016D00089F994F844009DF80310C0079DF80200B2
:1016E00000EB012112D0BAF80220521A9DF8041022
:1016F00004EB41010A849DF800209DF80130BAF8FE
:10170000000002EB0322801A88811FE09DF804008C
:1017100004EB400081819DF800109DF8012001EB51
:101720000222BAF80210891A0FE0BAF80000411A32
:101730009DF8040004EB400081819DF802209DF893
:10174000031002F00F0201EB022101849DF8040056
:10175000401C8DF804009DF8040029788842FFF4AD
:101760007DAFA189BAF800200127914204D8218CCD
:10177000BAF80200814209D99DF80C0000F00F0070
:10178000012812D9E089A081608C20846E701C48E9
:101790001DA1801CFEF77BFD01009DF80C104FF68B
:1017A000FF700FD0C90625D01BE0287804EB40005D
:1017B0004189A181C08B208480208DF80C0084F8A1
:1017C0003480E4E701F08F01802913D009E000BFE5
:1017D00021F0800003E0A081208401F0E00084F883
:1017E00034006878F02801D985F8019004B03846B3
:1017F000BDE8F08794F834100A06ECD5E8E700005D
:1018000070000020800000203931310008050020E0
:10181000B62601082DE9F04116460F46044600257C
:10182000FFF7F8FB7020FFF7C1FBFFF73FFCE0B2CA
:10183000FFF7BCFBFFF73AFC002408E0385DFFF738
:10184000B5FBFFF733FC050003D1641CE4B2B442DE
:10185000F4D3FFF705FC2846BDE8F08110B50C482D
:10186000002404704FF6FF7004F00EF9094804805C
:101870001E2009F083FB002008F026F808489FEDA1
:10188000060B084980ED000B1E20088010BD0000EB
:10189000000000202C0000200000000000000000DC
:1018A00078010020300000202DE9F0433E4889B047
:1018B0000024016841F080010160016801F08001AD
:1018C0000791016841F4807101600068802600F48E
:1018D0008070079001AA012503270096DFF8CC90BD
:1018E00082E8B0006946484600F09CFB2802CDE93A
:1018F000000569462E4800F095FBFFF7C1FADFF8B6
:10190000B480C8F8A0420A200BF060FBC8F8A052CF
:101910000A200BF05BFBCDE90064CDE90247694684
:10192000484600F07FFB64200BF050FB042205A921
:1019300048F2401000F056F88DF8184005A91EA096
:1019400009F042FB1FA105A8FEF7A1FC40BB022045
:101950008DF8140048F24005012205A9284600F040
:101960009DF9012205A9E81D00F03CF89DF814102E
:1019700060290BD215A009F027FB19488088A0F533
:10198000AA41103902D1012000F060F90A200BF0C1
:101990001DFB8DF81440012205A9284600F07EF9B0
:1019A00009B00020BDE8F08330380240001C02403E
:1019B00000200240000044424354502049443A254C
:1019C000730D0A0039313437000000004465666148
:1019D000756C74205665723A25640D0A000000008B
:1019E000080500202DE9F04115460E460446FFF794
:1019F00011FB2820FFF7DAFAFFF758FB200AFFF760
:101A0000D5FAFFF753FBE0B2FFF7D0FAFFF74EFB32
:101A1000FFF700FB2920FFF7C9FAFFF747FB002477
:101A20006F1E09E0BC4201D0012000E00020FFF75A
:101A300081FA3055641CE4B2AC42F3D3BDE8F04106
:101A4000FFF70EBB2DE9F14F7C4F002482B03878B0
:101A50007B4D401CC0B20A21B0FBF1F201FB120128
:101A6000A146387009B10A287AD248F24E160122EE
:101A700002A93046FFF7B6FF9DF808004FF00008B6
:101A800001060AD500F00F00062806D28DF8048062
:101A9000012201A9304600F001F99DF80800010774
:101AA0005ED000F00F0106295AD2FF2088408DF841
:101AB0000400C04395F834A040F0C00085F834001D
:101AC000A889A882288CDFF87CB12885012600BF70
:101AD00095F8341006FA04F0014269D05A480422FD
:101AE000694630F81400FFF77DFFBBF80400A0F54D
:101AF000AA41103908D0A0F5864142391AD0A0F584
:101B0000864184392DD053E095F84400C0072CD08D
:101B10009DF800009DF8011000EB012105EB440049
:101B200001849DF802109DF8032001EB0221C1F50C
:101B300048713CE095F84400C00716D19DF80000BC
:101B40009DF8011000EB012105EB440001849DF894
:101B500002109DF8032001EB0221C1F5887126E0F7
:101B600043E095F84400C00710D09DF800009DF8B0
:101B7000011000EB012105EB440081819DF802106A
:101B80009DF8032001EB0221018411E09DF8000083
:101B90009DF8011000EB012105EB440001849DF844
:101BA00002109DF8032001EB0221C1F5F071818143
:101BB000641CE4B2052C8BD3A989BBF800204FF03C
:101BC00001092E46914204D8318CBBF802008142B3
:101BD00009D99DF8080000F00F0001280CD9F08900
:101BE000B081708C288487F800809DF8080000F090
:101BF0008F0080280AD018E0B08AB081308D308400
:101C000080208DF8080085F834A0EEE795F83400C0
:101C1000010602D520F0800005E04FF6FF71A98192
:101C2000298400F0E00085F834003878F02801D9E4
:101C30000A2038704846BDE8FE8F0000770000207B
:101C400080000020080500208227010808B5002137
:101C50008DF800108DF801000F4800BF435C9DF81F
:101C60000020491C1A44C9B28DF80020B829F5D3C8
:101C7000D0B2C043401C8DF80000B822064948F29B
:101C8000470000F00BF80222694648F2FF0000F01E
:101C900005F8002008BD0000CA2601082DE9F04122
:101CA00016460F4604460025FFF7B4F92820FFF733
:101CB0007DF9FFF7FBF9200AFFF778F9FFF7F6F94E
:101CC000E0B2FFF773F9FFF7F1F9002408E0385D9F
:101CD000FFF76CF9FFF7EAF9050003D1641CE4B2E1
:101CE000B442F4D3FFF7BCF92846BDE8F081000008
:101CF0002DE9F04104460068016821F0010101600E
:101D000000F084FA054600264FF47A7710E000BF11
:101D100000F07CFA401BB8420AD954F84C0F40F04E
:101D2000200044F81809032026706070BDE8F08197
:101D300020680068C007EBD104F8346F01206070A0
:101D40000020F3E72DE9F041056D0446296890F87D
:101D50005420082000FA02F211424FF004074FF01D
:101D6000000617D021680A68520713D50A6822F0C6
:101D700004020A6094F854108840A860E06C40F0B7
:101D80000100E06484F8357084F83460A16C09B116
:101D900020468847296894F85420514800FA02F2F6
:101DA000114217D021684A69120613D54A6922F0F8
:101DB00080024A6194F854108840A860E06C40F0BA
:101DC0000200E06484F8357084F83460A16C09B1D5
:101DD000204688472968424894F85420C01C00FADD
:101DE00002F2114217D021680A68920713D50A68D7
:101DF00022F002020A6094F854108840A860E06C57
:101E000040F00400E06484F8357084F83460A16C1C
:101E100009B1204688472A6894F85410102000FA27
:101E200001F31A421BD021680A68120717D50A6805
:101E300057034FF0310228D5AB60206801680903D1
:101E400003D400BF84F8352005E00068000302D504
:101E5000412084F83500216C09B1204688472B6861
:101E600094F85410202000FA01F2134236D0216871
:101E70000B68DB0632D50B685B031CD5AA602068B3
:101E8000016809030DD4616C0FE00B68DB0503D416
:101E90000B6823F008030B6094F854108840A86086
:101EA000D0E70068000319D5E16B002916D0204661
:101EB000BDE8F04108470A68D20503D40A6822F059
:101EC00010020A6094F854108840A860E06CE06446
:101ED000112084F8350084F83460E5E7BDE8F0812E
:101EE0000100800070B504001AD00220636A84F8F3
:101EF00035002268116818480140D4E901052843DB
:101F0000D4E903563543284365692843A569284326
:101F1000E5692843256A28430843042B02D005E0DD
:101F2000012070BDD4E90B131943084310602268E7
:101F30005069616A20F007000843042901D1A16AB1
:101F4000084350612046FFF7F3F80020E0640120C9
:101F500084F83500002070BD3F8010F070B5044655
:101F600090F8340001281ED0012084F834000220AB
:101F700084F835002068056825F0010505602046D5
:101F8000FFF7EAF82068016841F01E01016020684F
:101F9000416941F0800141612068016841F001011F
:101FA0000160002070BD022070BD31B500F02EF937
:101FB000044600F02BF90099001B8842F9D338BD84
:101FC00070B5104C104D082810D0042819D13220BB
:101FD0000AF0FCFF0421204600F00AF9002810D185
:101FE00004212846BDE8704000F007B932200AF00D
:101FF000EDFF0821204600F0FBF8002801D1082160
:10200000EFE770BD001C024000100240044910B50B
:102010000A68024202D00860FFF7D2FF10BD00003C
:10202000143C01402DE9F84FDFF890B100224FF049
:1020300001084FF0030A4FF00F090BF1040E00BF27
:102040000B6808FA02F42340A3426ED14D68022DBA
:1020500001D0122D0ED1D50800EB850CDCF82050F4
:102060005607F70E09FA07F6B5430E69BE402E4330
:10207000CCF82060066855000F790AFA05FC07F0D5
:10208000030726EA0C06AF40374307604E68012E6F
:1020900005D0022E03D0112E01D0122E0ED187684A
:1020A000CE6827EA0C07AE403E4386604668A643EA
:1020B0000C79C4F30014944034434460C4688E68BF
:1020C00024EA0C04AE402643C6604C68E4006FD599
:1020D0003B4C256845F480452560246822F00305C3
:1020E00004F480440094374C2E19D6F8084895071C
:1020F0002F0F09FA07F5AC43334DA84201D1002553
:102100002EE0324DA84201D1012529E0304DA842F0
:1021100001D1022524E02F4DA84201D103251FE063
:102120002D4DA84202D104251AE041E02B4DA842D2
:1021300001D1052514E02A4DA84201D106250FE062
:10214000284DA84201D107250AE0274DA84201D118
:10215000082505E0254DA84201D1092500E00A2502
:10216000BD402543C6F80858DBF800405D464E6880
:102170009C43F60300D51C432C60DEF800407546F6
:102180004E689C43B60300D51C432C600B4D0835AC
:102190002C684E689C43F60200D51C432C60074D0A
:1021A0000C352C684E689C43B60200D51C432C604D
:1021B000521C102AFFF444AFBDE8F88F003C0140E8
:1021C0004438024000300140000002400004024058
:1021D00000080240000C02400010024000140240BF
:1021E00000180240001C024000200240002402406F
:1021F0000069084000D00120704742694A404261AE
:1022000070470AB1816170470904FBE70148006823
:10221000704700005800002002480168491C016016
:1022200070470000580000200B4810B5016841F4C9
:1022300000710160016841F480610160016841F44E
:1022400080710160052000F0BFF90F2000F006F852
:1022500000F08AF9002010BD003C024010B5044691
:1022600000F064FC4FF47A71B0FBF1F001F016FA63
:1022700000222146501E00F087F9002010BD2DE9F4
:10228000F041044690F8A00016460F4601281DD0E4
:10229000012584F8A050022084F8A10006EB8600F6
:1022A00000EBC60004EB800034223830FDF7CBFF92
:1022B00032463946204606F0DBFC2068456284F849
:1022C000A150002084F8A000BDE8F0810220FBE7C7
:1022D00070B5040004D094F8A100002510B106E008
:1022E000012070BD84F8A050204600F06FF8022055
:1022F00084F8A1002068816921F070418161D4E9EE
:1023000001010843D4E903121143084321688A6993
:102310001043886121688A682B4802408A60A18A3C
:102320000A0421688B68A669334313438B602168D4
:10233000CA680240CA60A18B0A042168CB68266A79
:1023400033431343CB6021680A6902400A61A18CC0
:102350000A0421680B69A66A334313430B612168A1
:102360004A6902404A612268A08D5169236B194372
:1023700041EA0041516194F835002168020294F865
:102380003600CB6A03F07F43CB622168CB6A94F8B6
:10239000346042EA004033430343CB622068416B20
:1023A00041F0040141632068416B41F00201416347
:1023B0002068816941F001018161C4F8A4500120C5
:1023C00084F8A100002070BD00F800F030B5364858
:1023D00087B00025016841F080610160006800F06D
:1023E0008060059030481438016841F400010160B4
:1023F000016801F400010591016841F002010160EA
:10240000016801F002010591016841F020010160BD
:10241000016801F020010591016841F0400101606F
:10242000016801F040010591016841F080010160FF
:10243000016801F080010591016841F4807101603B
:102440000068032400F48070059020200090012093
:10245000CDE90204019069461448FFF7E3FD4FF40B
:10246000806000900220CDE901050E20CDE90340F7
:1024700069460F48FFF7D6FD4FF40C60009069469F
:102480000C48FFF7CFFD4FF47E40009069460A48A4
:10249000FFF7C8FD40F2F760009069460748FFF774
:1024A000C1FD07B030BD00004438024000040240C6
:1024B0000014024000180240001C024000200240AC
:1024C00070B5044690F8A0000E46012820D00125E2
:1024D00084F8A050022084F8A10003EB830000EBF5
:1024E000C30004EB800141F8386F886A3044C1E9C9
:1024F0000102C86A1044C8601A46204606F0B8FBBC
:102500002068456284F8A150002084F8A00070BDC6
:10251000022070BD2DE9F041044690F8A0000F465E
:1025200001281FD0012584F8A050022084F8A100C2
:1025300003EB830000EBC30004EB80010026E1E91C
:102540000E672046C1E90262C1E90A721A4606F026
:102550008FFB2068456284F8A15084F8A0600020B9
:10256000BDE8F0810220FBE708B50020009008BD1F
:1025700000F01F02012191404009800000F1E0209D
:10258000C0F8001170470000F0B40E4B1B680C46F9
:10259000C3F30223C3F10705042D00D90425191D37
:1025A000072901D2002300E0DB1E012606FA05F10F
:1025B000491E214099409E40761E16403143F0BC92
:1025C00006F088BF0CED00E0064900F0070208683D
:1025D0004FF6FF03184040EA0220034A1043086008
:1025E000704700000CED00E00000FA052DE9F8430B
:1025F0001E48016841F0805101600068012600F02A
:1026000080500090300490FAA0F0194FB0FA80F09A
:1026100047F82060FFF7FAFD05464FF47A78154C2D
:1026200005E000BFFFF7F2FD401B404515D860688C
:10263000C003F7D54FF4003090FAA0F0B0FA80F064
:1026400047F82060FFF7E2FD0546464608E000BF78
:10265000FFF7DCFD401BB04202D90320BDE8F88340
:1026600060688003F4D50020F8E70000403802409D
:1026700000000E42007000402DE9F84F044600684B
:102680009E4E9F4DC10747F6C07A4FF0E0474FF08E
:10269000010B4FF0000901D180074CD59949C1F8D1
:1026A0006890FFF7B3FD804606E000BFFFF7AEFD80
:1026B000A0EB080064287CD828680001F6D42078B4
:1026C000C10791480DD09AFAAAF26168B2FA82F273
:1026D000914097FAA7F3A268B3FA83F39A401143A3
:1026E00001602178890716D5016897FAA7F201F0F1
:1026F000E041B2FA82F2D1406268237B920142EA61
:10270000036242EA017101603068E16920F01F0054
:10271000491E084330607B49C1F868B0FFF776FD79
:10272000804605E0FFF772FDA0EB0800642840D862
:1027300028680001F6D52068410701D4000776D546
:102740007049C1F87090FFF761FD804606E000BF58
:10275000FFF75CFDA0EB080064282AD82868C04376
:102760008000F5D520784FF070684107674828D57C
:10277000016897FAA7F201F0E041B2FA82F2D14083
:102780009AFAAAF32269B3FA83F39A4098FAA8FC5A
:102790006369BCFA8CFC03FA0CF31A4397FAA7F3AB
:1027A000B3FA83F399400A430260316821F4F85187
:1027B00000E07AE0226A6FF0FF0303EB022211438C
:1027C00031602178090721D501689AFAAAF301F04E
:1027D000706298FAA8F1B1FA81F1CA402169B3FA9E
:1027E00083F3994098FAA8F3B3FA83F39A4011431C
:1027F00097FAA7F3A269B3FA83F39A4011430160F1
:102800003068616A20F44030084330603D49C1F8C7
:1028100070B0FFF7FBFC064605E000BFFFF7F6FCD3
:10282000801B642841D82868C0438000F6D42078F3
:10283000800651D532484E464030016841F0805103
:1028400001600068324F00F080500090386840F41A
:1028500080703860FFF7DAFC054604E0FFF7D6FC2D
:10286000401B642821D83868C005F7D5264D143D93
:102870002868218D00F4407001F4407188422BD00B
:102880002868244920F44070C1F800B00E60286028
:10289000800710D5FFF7BAFC064641F2883707E0FB
:1028A000FFF7B4FC801BB84202D90320BDE8F88FC3
:1028B00028688007F4D5A16A1148C1F301220830C5
:1028C000032A13D0016821F4F81101602868218DD2
:1028D000C1F30B01084328602078C00604D50E49D7
:1028E00094F82C00C1F8E0010020DFE702680B4BF0
:1028F00022F4F81219400A430260E7E78C380240DC
:1029000000380240000047428438024088380240C4
:1029100000700040400E474200104742FFFCFF0F8E
:102920002DE9F05FDFF8FCA104460F46DAF800005D
:10293000DFF8F48100F00F017B4807F0FF0941F256
:10294000883508F10808B94262D28AF80090DAF8AE
:10295000001001F00F01B9427ED12178890707D517
:10296000D8F80020A36822F0F0021A43C8F800202B
:102970002178C9072ED0616801291AD002291BD0FD
:10298000032919D000688007002865DAD8F800000C
:10299000464620F003000843C8F80000FFF736FC65
:1029A00007466068012810D002281AD003281ED0DC
:1029B00029E000688003E7E700688001E4E700BFE2
:1029C000FFF724FCC01BA84259D83068C0F381002F
:1029D0000128F5D189E000BFFFF718FCC01BA84211
:1029E0004DD83068C0F381000228F5D17DE0306811
:1029F000FFF70CFCC01BA842F9D940E0FFF706FC2A
:102A0000C01BA8423BD8306810F00C0FF6D16CE028
:102A10002178890707D5D8F80020A36822F0F002B2
:102A20001A43C8F800202178C9074CD061680129F1
:102A300028D0022929D0032927D000688007002840
:102A400049DAD8F8002022F003020A43C8F800202F
:102A5000FFF7DCFB064600E03DE0606801281DD082
:102A6000022829D0032838D0AB464546286810F004
:102A70000C0F28D0FFF7CAFB811B5945F6D903205C
:102A8000BDE8F09F00688003D9E700688001D6E7C1
:102A9000FFF7BCFB811B594502D9F0E7AB46454621
:102AA0002868C0F381000128F2D10CE0FFF7AEFBEB
:102AB000811B594502D9E2E7AB4645462868C0F379
:102AC00081000228F2D18AF80090DAF8000000F0C4
:102AD0000F00B84209D00120D2E744462068FFF732
:102AE00095FB801BA842F9D9C9E72078400707D594
:102AF000D8F80010E26821F4E0511143C8F8001042
:102B00002078000708D5D8F80010226921F4604128
:102B100041EAC201C8F800100F20FFF79FFB002018
:102B2000AEE70000003C02400038024010B500F063
:102B300043F808490968F02292FAA2F201F0F00184
:102B4000B2FA82F2D140044A515CC840034908609D
:102B500010BD0000083802405EDF0008440000207D
:102B600010B5FFF7E3FF074909684FF4E05292FA06
:102B7000A2F201F4E051B2FA82F2D140024A515C71
:102B8000C84010BD083802405EDF000810B5FFF7EE
:102B9000CDFF074909684FF4604292FAA2F201F4AE
:102BA0006041B2FA82F2D140024A515CC84010BD85
:102BB000083802405EDF000830B51948006810F0A0
:102BC0000C01184812D0184C04290ED008290DD138
:102BD0001349091F0A6802F03F030A68550247F6C5
:102BE000C07204D5B4FBF3F003E0204630BDB0FB67
:102BF000F3F00B680968134092FAA2F2B2FA82F27B
:102C0000D34058434FF4403292FAA2F201F44031DB
:102C1000B2FA82F2D140491C4900B0FBF1F030BD5C
:102C2000083802400024F40040787D012DE9F84F77
:102C300004460078DFF81C83C74DC0074FF000063C
:102C40004BD0D8F800104046C1F38101012908D0CB
:102C50000068C0F3810002280AD1281D00684002E4
:102C600006D52868800338D56068002871D034E024
:102C7000DFF8E4A20AF1020A8AF80060FFF7C6FA58
:102C8000814641F2883705E0FFF7C0FAA0EB090062
:102C9000B8427DD828688003F6D420798AF80000ED
:102CA000606868B1FFF7B2FA814605E0FFF7AEFA57
:102CB000A0EB0900B842ECD828688003F6D50CE0F8
:102CC000FFF7A4FA814605E0FFF7A0FAA0EB0900A0
:102CD000B842DED828688003F6D420789F4F80075A
:102CE0004FF0010B45D5D8F80010404611F00C0FFD
:102CF0004FF0F80A09D00068C0F3810002280BD118
:102D00009448001F0068400206D42868800714D544
:102D1000E06801281DD110E0E068D8B1C7F800B024
:102D2000FFF774FA814605E0FFF770FAA0EB09009F
:102D30006428AED828688007F6D528689AFAAAF2DF
:102D40002169B2FA82F220F0F8009140084328602D
:102D50000FE0FCE03E60FFF759FA814606E000BF55
:102D6000FFF754FAA0EB0900642811D828688007FF
:102D7000F6D42078000729D5DFF8D8A17848616912
:102D80000AF16C0A99B1C0F800B0FFF73FFA00E011
:102D900086E0814606E000BFFFF738FAA0EB0900A5
:102DA00064287DD8DAF800008007F5D50EE00660CB
:102DB000FFF72CFA814605E0FFF728FAA0EB09009F
:102DC00064286DD8DAF800008007F5D42078400731
:102DD0005AD560483830016841F080510160006880
:102DE000DFF880A100F080500090DAF8001041F484
:102DF0008071CAF80010FFF709FA814606E000BFAB
:102E0000FFF704FAA0EB0900642849D8DAF80000BB
:102E1000C005F5D5DFF83C9109F1680989F8006033
:102E2000FFF7F4F941F2883A009005E0FFF7EEF978
:102E30000099411A514533D8D9F800008007F5D4DC
:102E4000207A89F80000A06878B1FFF7DFF90090D8
:102E500006E000BFFFF7DAF90099411A51456ED834
:102E6000D9F800008007F5D50EE0FFF7CFF9009004
:102E700006E000BFFFF7CAF90099411A51455ED834
:102E8000D9F800008007F5D4A069E8B3D8F800109D
:102E9000C1F3810102295AD002283E6605D000E024
:102EA0004DE0FFF7B3F904464CE0FFF7AFF90646F3
:102EB00005E000BFFFF7AAF9801B64283FD8286807
:102EC0008001F7D4D4E90701084347F6C07292FAAB
:102ED000A2F2616AB2FA82F29140A26A4FF0FF3325
:102EE00003EB52024FF4403393FAA3F3B3FA83F3A4
:102EF0009A40114308434FF0706292FAA2F2E16ADD
:102F0000B2FA82F2914000E01FE008431149091F24
:102F10000860C7F860B0FFF779F9044605E000BF24
:102F2000FFF774F9001B642809D828688001F7D5D9
:102F30000BE000BFFFF76AF9001B642802D90320E9
:102F4000BDE8F88F28688001F4D40020F8E701205C
:102F5000F6E700000838024000380240000047420F
:102F6000800E47420070004070B50D46040003D04B
:102F700094F82C0010B107E0012070BD002084F807
:102F80002D00204600F012F8022084F82C00211DAC
:102F90002068FEF79BF9D4E900022946FEF7E6F91E
:102FA000012084F82C00002070BD0000304800B5DE
:102FB000016887B041F001010160006800F0010084
:102FC00005902B480838016841F004010160016850
:102FD00001F004010591016841F0080101600168F8
:102FE00001F008010591016841F0100101600168DC
:102FF00001F010010591016841F0200101600168B4
:1030000001F020010591016841F040010160006874
:10301000694600F0400005900D20009002200190CC
:1030200001200290032003900C2004901148FEF729
:10303000F9FF4CF20370009069460F48FEF7F2FF6B
:103040004FF68370009069460C48FEF7EBFF4FF691
:103050003F00009069460A48FEF7E4FF48F2371047
:10306000009069460748FEF7DDFF07B000BD00008D
:103070003838024000080240000C024000100240B4
:10308000001402400018024010B5044690F82C00CD
:10309000022809D0022084F82C002068FEF73CF9B1
:1030A000012084F82C00002010BD000070B50446FB
:1030B00090F82C000D4602280DD0022084F82C0038
:1030C0002068FEF72FF92868022805D05FF001007C
:1030D00084F82C00002070BD0520F9E770B50400CD
:1030E00004D094F85100002510B106E0012070BD15
:1030F00084F85050204600F033F8022084F8510044
:103100002068016821F040010160D4E90101084311
:10311000D4E903121143084361690843218B01F488
:1031200000710843E1690843216A0843A16A084322
:1031300021680860A069042101EA1040616A08431F
:10314000216848602168E06A08612068C16921F44B
:103150000061C1616565012084F85100002070BDE7
:1031600010B586B0044614216846FDF785F813496A
:103170002068884220D112480021026842F480521F
:103180000260006800F4805005900D481438026811
:1031900042F001020260006800F001000590E020AA
:1031A00000900220CDE90101032003900520049046
:1031B00069460448FEF736FF06B010BD00300140F6
:1031C00044380240000002402DE9F843044690F8DC
:1031D0005100984601286FD131B32AB394F85000BA
:1031E000012869D0012684F85060122084F851002B
:1031F000002565652163A286E286E564A564A5874E
:10320000E587A06A7703B84209D12068016821F4F4
:10321000005101602068016841F400510160A0681C
:10322000B0F5004F03D007E00120BDE8F883206827
:10323000016841F48041016020680168490603D4B7
:10324000016841F040010160E0680028606804D036
:10325000D8B1E08E012818D021E010B1E08E01280D
:1032600008D1206B411C216321680078C860E08E82
:10327000401EE0860004000C1FD0434600220221BD
:10328000204606F0D9FBA8B9EBE7206B216800883F
:10329000C860206B801C2063E08E401EE086000426
:1032A000000C0AD0434600220221204606F0C4FB4F
:1032B0000028EAD00320B8E726E0A06AB84204D18B
:1032C0002068016841F480510160434600220221D8
:1032D000204606F0B1FB30B943460122802120464A
:1032E00006F0AAFB20B1606D40F020006065E1E7C8
:1032F000A06818B92068C1688068009084F851609F
:1033000084F85050002090E702208EE72DE9F84322
:10331000044690F85100DDF82080012801D02228D1
:103320007ED169B162B15BB194F85000012877D0C9
:10333000012684F8506094F85100012803D005E07C
:103340000120BDE8F883322084F85100002565652E
:10335000A263A387E3872163A386E386A564E5646C
:10336000A06A4FF40057B84209D12068016821F4DF
:10337000005101602068016841F40051016020683B
:103380000168490603D4016841F040010160E0682A
:103390004FF48271B0F5006F606807D0002867D0E5
:1033A00088426ED1E08E012862D06AE020B1884266
:1033B0000CD1E08E012809D1206B21680088C860FB
:1033C000206B801C2063E08E401EE086E08E80B97A
:1033D000A06AB84244D12068016841F4805101607C
:1033E0003EE02068C068A16B0880A06B801CA063D1
:1033F0009EE0434600220221204606F01DFB0028E5
:1034000074D1206B21680088C860206B801C206309
:10341000E08E401E0004000CE08609D1A06A00E0A6
:10342000C7E0B84204D12068016841F480510160CE
:10343000434600220121204606F0FEFA00286FD103
:103440002068C068A16B0880A06B801CA063E08F1F
:10345000401EE087E08E0028CBD1606800286AD14A
:10346000434600220121204606F0E6FAF0BBB8E709
:10347000206B411C216321680078C860E08E401EEB
:10348000E086E08E98B9A06AB84204D1206801684D
:1034900041F480510160434600220121204606F09C
:1034A000CBFA18BB2068C068A16B087040E04346A7
:1034B00000220221204606F0BFFAB8B9206B411C59
:1034C000216321680078C860E08E401E0004000C73
:1034D000E08607D1A06AB84204D12068016841F4AF
:1034E0008051016000224346012100E018E020469F
:1034F00006F0A2FAA0B92068C168A06B421CA263C2
:103500000170E08F401EE087E08E0028CFD1606818
:1035100088B9434600220121204606F08DFA08B101
:1035200003200EE72068C168A06B421CA2630170F3
:10353000E08F401EE087A06AB84210D143460022C7
:103540000121204606F078FA18B1606D40F00200C3
:103550000FE02068C068ADF80000BDF800004346E9
:1035600001228021204606F067FA20B1606D40F00C
:1035700020006065D4E784F8516020688168A26A01
:10358000C1F30011BA4210D179B1616D41F002016D
:103590006165016821F4005101602068016841F40F
:1035A0000051016084F85050CAE684F85050002061
:1035B000C7E60220C5E670B515460E46040003D0E6
:1035C00094F8490010B107E0012070BD002084F894
:1035D0004800204600F01AF804F108012068FDF7C1
:1035E0000BFE3146A2682068FDF742FED4E90102D5
:1035F0002946236BFDF7E0FDA168206850F82120E3
:1036000042F0010240F82120002070BD1A4800B5A8
:10361000016887B041F001010160006800F001001D
:10362000059015480838016841F0080101600168FB
:1036300001F008010591016841F010010160006886
:10364000694600F0100005904EF2B3700090022021
:10365000019001200290032003900C200490074861
:10366000FEF7E0FC4FF68070009069460448FEF7D4
:10367000D9FC07B000BD000038380240000C024001
:10368000001002404FF0E0210428086903D020F028
:1036900004000861704740F00400FAE710B5401ECE
:1036A000B0F1807F01D3012010BD4FF0E0246061B4
:1036B0000F21601705F00EFF0020A0610720206198
:1036C000002010BD7047704730B590F83820012AAF
:1036D00020D0012280F83820022380F83930036896
:1036E0005C6824F070045C6003685C680D682C43BF
:1036F0005C6003689C6824F080049C6003689C689C
:1037000049680C439C6080F83920002180F838100B
:10371000084630BD022030BD10B5040003D094F837
:10372000390010B107E0012010BD002084F83800F6
:10373000204600F00DF8022084F83900211D206891
:1037400006F058FA012084F83900002010BD00006E
:1037500038B51E4B02681E499A4207D10A6842F0EA
:1037600080020A600A6802F080020092184A194C2E
:103770000368121DA34207D1136843F4003313609A
:10378000126802F4003209E0134CA34207D1136817
:1037900043F480231360126802F4802200920068D0
:1037A000B0F1804F11D1086840F00100086008684E
:1037B000002200F00100009011461C20FEF7E4FEFC
:1037C000BDE838401C20FEF7D3BE38BD001C0040C9
:1037D0004038024000440140004801400168CA6886
:1037E00042F00102CA600068016841F00101016015
:1037F0000020704770B5044690F83800012817D0B3
:10380000012584F83850022084F839002068826845
:1038100022F0770222F47F4282600868502837D075
:103820000DDC202859D005DC88B3102841D151E0A7
:10383000022070BD302853D040283AD13FE06028A4
:103840002ED070280BD0B0F5805F03D0B0F5005FAC
:103850002FD110E02068816821F0070115E0CB68C6
:10386000D1E90121206806F030FA2168886840F02B
:10387000770088601DE0CB68D1E90121206806F05F
:1038800024FA2068816841F48041816011E01EE0E3
:10389000CA684968206806F0E1FA5021206806E00D
:1038A000CA684968206806F0EAFA6021206806F0D4
:1038B00016FA84F83950002084F8380070BDCA68C0
:1038C0004968206806F0CAFA40212068EFE7002125
:1038D0002068ECE710212068E9E720212068E6E76E
:1038E00030212068E3E7704770B50446006801693D
:1038F0004FF00005C943890715D4C168C94389073A
:1039000011D4E91E016101202076206880698007BA
:10391000204602D0FFF7E7FF04E000F0EFF8204672
:1039200000F071F9257620680169C943490717D469
:10393000C168C943490713D46FF004010161022033
:1039400020762068806910F4407F204602D0FFF77F
:10395000CAFF04E000F0D2F8204600F054F92576C2
:1039600020680169C943090716D4C168C94309071A
:1039700012D46FF008010161042020762068C0692C
:103980008007204602D0FFF7AEFF04E000F0B6F853
:10399000204600F038F9257620680169C943C90638
:1039A00017D4C168C943C90613D46FF0100101616F
:1039B000082020762068C06910F4407F204602D09D
:1039C000FFF791FF04E000F099F8204600F01BF9A2
:1039D000257620680169C943C90708D1C168C94370
:1039E000C90704D1891E0161204600F029F9206829
:1039F0000169C943090609D4C168C943090605D448
:103A00006FF0800101612046FFF75CFE20680169CC
:103A1000C943490609D4C168C943490605D46FF0B2
:103A200040010161204600F091FB20680169C94313
:103A300089060BD4C168C943890607D46FF02001F9
:103A400001612046BDE87040FFF73DBE70BD00003B
:103A50002DE9F04186B0074614216846FCF70CFCBE
:103A6000214938680025214C0226DFF884808842ED
:103A700012D1206840F020002060206800F0200073
:103A8000059088150090CDE901650920CDE9035026
:103A900069464046FEF7C6FA164A39680320914245
:103AA00009D1216841F020012160216801F0200145
:103AB000059140210BE0104A914211D1216841F05B
:103AC00020012160216801F02001059180210091F1
:103AD000CDE90165CDE9035069464046FEF7A2FAFB
:103AE00006B0BDE8F0810000001C00403038024004
:103AF000001402400044014000480140704770B586
:103B0000044690F838000D4601280DD0012684F8AF
:103B10003860022084F8390042B1042A18D0082AFB
:103B20002AD00C2A4DD139E0022070BD206806F061
:103B3000DFF82068816941F00801816120688169AE
:103B400021F004018161206881692A69114311E033
:103B5000206806F0F9F82068816941F4006181610C
:103B60002068816921F480618161206881692A6906
:103B700041EA0221816124E0206806F017F92068FB
:103B8000C16941F00801C1612068C16921F00401E7
:103B9000C1612068C1692A69114311E0206806F0FB
:103BA00035F92068C16941F40061C1612068C169CB
:103BB00021F48061C1612068C1692A6941EA02215A
:103BC000C16184F83960002084F8380070BD10B5F8
:103BD000040003D094F8390010B107E0012010BDB3
:103BE000002084F83800204600F00CF8022084F809
:103BF0003900211D206805F0FDFF012084F83900FF
:103C0000002010BD7047704710B5044600680122BF
:103C100006F050F808492068884202D007498842D7
:103C200003D1416C41F4004141642068016841F0D6
:103C300001010160002010BD0000014000040140AE
:103C40002DE9F04F2DED068B85B0FE4988427DD1E0
:103C5000FD4CDFF8F8A3DFF8F8B3A088DFF8F483B1
:103C6000401C81B2A180E088401CE0802089401C7B
:103C700020816089401C60819FEDF78B4FF0000927
:103C800032297DD3A4F804909AF800004E46032808
:103C900076D12078F24D01284AD12868801C28600E
:103CA000B8F80010891CA8F8001007F067F9286818
:103CB0003C2800D12670EB4E53EC182B96ED000BF0
:103CC00051EC100BFCF79FFB41EC190B5F46DBF846
:103CD0000000FCF77FFC53EC192BFCF7F1FC23D818
:103CE00096ED000BB0EE481AF0EE681A53EC112B6B
:103CF00051EC100BFCF7E6FA41EC190B3868FCF7B5
:103D000069FC53EC192BFCF7C3FC0DD82078012873
:103D10000AD1D548297861700268D4480260B8F8A1
:103D20000030D34807F050F99AF80000032832D148
:103D3000207828BB28684646801E2860B8F8001006
:103D4000891EA8F8001007F019F900E078E1308822
:103D50006178C84F884211D1012204213846FEF70C
:103D600050FA32886178C4A007F02EF92868801EC6
:103D700028603188891E318007F000F9286800E04A
:103D800009E040B9002204213846FEF73AFAFCF770
:103D9000F5FF01202070E0880A287DD34F46A4F863
:103DA00006904022B749B84800F000FC09F08EF9AF
:103DB00009F0A8F901F01EFAB448B549B54D90EDE7
:103DC000010A10EE100A88420BDCB5EEC00AF1EED3
:103DD00010FA06DBBDEEC00A10EE100AC0F1B40006
:103DE0000FE0B5EEC00AF1EE10FA0BD210EE100A99
:103DF000A949884206D8BDEEC00A10EE100AB430B8
:103E000040422860A5480078C8B92868FCF7E2FB62
:103E100041EC100BA24805F0F1FCA24EB0EE409A26
:103E2000F0EE609A3088FCF7E6FB53EC192BFCF7B8
:103E300049FAFCF701FC3080C0B205F045FD9A4E0E
:103E4000E078296846F82010401CC0B2E0700F28C6
:103E500000D1E770924F00259FED949B97ED000BEA
:103E600053EC192B51EC100BFCF7CDFA41EC1A0B6B
:103E700056F82500FCF7AEFB53EC1A2BFCF708FCB8
:103E800021D397ED000BB0EE491AF0EE691A53EC0E
:103E9000112B51EC100B00E015E0FCF713FA41EC8C
:103EA0001A0B56F82500FCF795FB53EC1A2BFCF780
:103EB00007FC08D30E2D02D17849012008706D1C33
:103EC000EDB20F2DCAD32089282870D379480088F5
:103ED00001286CD1A4F808905D4677A0DBF80010AB
:103EE00007F072F89AF80000022860D12868A0F55F
:103EF00000719A395BD0FCF76DFB41EC100B59480F
:103F000005F07CFCB0EE409AF0EE609A4646B8F8B8
:103F10000000FCF770FB53EC192BFCF7D3F9FCF70E
:103F20008BFB80B2308007F029F85F4EA078283EE6
:103F3000296846F82010401CC0B2A0700A2801D1A0
:103F400084F80290474F002553EC182B97ED000B97
:103F500051EC100BFCF757FA41EC190B56F8250001
:103F6000FCF738FB53EC192BFCF792FB1FD397EDB2
:103F7000000BB0EE481AF0EE681A53EC112B51EC1E
:103F8000100BFCF79FF941EC190B56F82500FCF7D4
:103F900021FB53EC192BFCF793FB08D3092D02D11D
:103FA0004448A0F800906D1CEDB20A2DCCD3608976
:103FB000052845D34448A4F80A90008801283FD139
:103FC000424A4349434804F039FF434A434944487D
:103FD00004F04DFF01F0B8F9DFF80891D9F80800B6
:103FE000FCF743FB06460F46D9F80400FCF73DFBFF
:103FF00004460D46D9F80000FCF737FB8DE8F000C9
:1040000041EC100B38A053EC102B06F0DDFF99EDBE
:10401000020A394910EE100A884275D810EE100ACB
:104020003649884270DCFCEEC00A10EE900AF3EECE
:104030000E0AA8F8000030EE200ABDEEC00A5FE0CC
:104040007CE061E0F40800202C010020000000204A
:104050002400002030000020000000000000184074
:1040600018000020400100201C000020200000203B
:104070001C2A0108001002402A2A202564202564F9
:10408000200A000018020020180300205807002012
:104090000000344334000020000034C32800002016
:1040A00078010020320000204008002000000000BD
:1040B000000010402A000020646966666572656E23
:1040C00063653A2025640A002C0000203C00002093
:1040D0003A0000203800002042000020400000206C
:1040E0003E00002064070020252E32662C252E324B
:1040F000662C252E32660A000000F0C10000F04157
:1041000010EE100A06F03AFF99ED000AB1EE400AEF
:10411000B5EEC00AF1EE10FA10DB10EE100A0A49F3
:1041200088420BDC05B0BCEEC00ABDEC068B10EE7D
:10413000100ABDE8F04FC0B205F0C6BB05B0BDEC3B
:10414000068BBDE8F08F000000004842704710B5B4
:1041500004460068416921F080014161206841699D
:1041600021F040014161206B08B1FDF7C1FD606B9A
:1041700008B1FDF7BDFD012084F83900002010BD15
:104180007047000038B5016804460868CA6810F036
:10419000010F02F4807207D032B1086848680090BD
:1041A000E06B40F00100E06308684A69C0F340003A
:1041B00002F0010238B132B1086848680090E06B43
:1041C00040F00400E06308684A69C0F3800002F030
:1041D000010238B132B1086848680090E06B40F0E5
:1041E0000200E0630868C0F3C002486900F0010003
:1041F0003AB130B1086848680090E06B40F00800C0
:10420000E0630868C968C0F3401001F0200118B1EC
:1042100011B1204606F0E2FC21680868C968C0F3C5
:10422000C01001F0800118B111B1204606F0E6FD82
:1042300021680868CA68C0F3801002F040020125B6
:1042400070B16AB1CA68204622F04002CA6094F890
:10425000391032290DD080F8395000BF00F084FBAE
:10426000E06B002804D084F839502046FFF788FF1F
:1042700038BD222180F83910F0E708B501680A68D6
:1042800049680091FFF763FF05F040FBBDE8084077
:1042900005F026BC70B5040004D094F83900002560
:1042A00010B106E0012070BD84F83850204600F0BF
:1042B00021F8022084F839002068C16821F40051F7
:1042C000C160204606F0DEFC2068016921F49041BF
:1042D00001612068416921F02A0141612068C168BB
:1042E00041F40051C160E563012084F839000020E9
:1042F00070BD00002DE9F04F87B0064614216846D6
:10430000FBF7BAFF7D4F7C4831680024DFF8ECA151
:10431000143F4FF002084FF003094FF4806B8142C5
:104320004DD1DAF8001041F02001CAF80010DAF897
:10433000000000F020000590386840F0040038606C
:104340003868029400F004000590C020CDE9000810
:104350000820CDE9039069466948FDF763FE6A4D80
:10436000684828608005C5E90104C5E9034B6C6114
:10437000AC61EC612C6228466C62FDF7B3FD75639D
:104380006048AE635835783028604FF02060686030
:1043900005F10801402081E811086C61AC61EC6115
:1043A0002C6228466C62FDF79DFD356300221146A4
:1043B0004720AE63FEF7E8F84720FEF7D9F85348E8
:1043C00033680721524A834220D1DAF8003043F0A3
:1043D0001003CAF80030DAF8000000F01000059071
:1043E000386840F0010038603868029400F001003D
:1043F0000590CDE903914FF4C060CDE9000869460E
:104400001046FDF70FFE07B0BDE8F08F3B48414D69
:10441000001FAB4220D1036843F4003303600068FF
:1044200000F400300590386840F0010038603868CA
:10443000029400F001000590CDE903910C20CDE934
:10444000000869461046FDF7EDFD002211462620C2
:10445000FEF79AF826204BE02F4A9342D3D1026808
:1044600042F480220260006800F4802005903868E1
:1044700040F0020038603868029400F002000590B5
:10448000CDE903914FF44060CDE900086946234827
:10449000FDF7C8FD1C4D2248B03D4FF00068286074
:1044A000C5E90184C5E9034B6C61AC61EC612C6228
:1044B0005F4628466C62FDF715FD75631848AE63CC
:1044C00058353030E5E80208402091C50E4845F8DF
:1044D00014495838AC61EC612C626C62FDF702FD46
:1044E0003563002211462720AE63FEF74DF82720E2
:1044F000FEF73EF887E70000001401404438024010
:104500000008024028640240080400200010014016
:104510000000024000440040004800400004024007
:104520002860024070B5044690F83900012801D097
:10453000122832D169B362B394F8380001282CD024
:10454000012084F83800A162A2850025E56394F873
:10455000390012281FD0222084F83900636B1048DC
:10456000D863636B0F481864636B0F489864084600
:104570001346666B216802463046091DFDF7EEFCC6
:104580002068416941F04001416184F838500020C1
:1045900070BD012070BD3220DEE7022070BD00003A
:1045A00065AB00089BAB000845AB000890F83930BC
:1045B000012B01D0122B2CD139B332B390F8383003
:1045C000012B26D0012380F8383081628285C28594
:1045D0000021C16390F83920122A18D05FF022021E
:1045E00080F839200268D36843F48073D36002688E
:1045F000536943F00103536180F838100068C168C3
:1046000041F02001C1600020704701207047322234
:10461000E6E70220704700002DE9F04F04462DED3B
:10462000028BE5B04FF4C8716846FBF725FE002702
:104630006C483D46844203D105F068F905F050FA14
:1046400069492068096888427ED10024DFF89CA16E
:10465000DFF89C91A3461AF804105646532928D136
:1046600006EB040898F80100742822D198F802009B
:1046700061281ED198F8030074281AD198F8040014
:10468000652816D15A4809F03DFC98F801105848A1
:1046900009F038FC98F80210554809F033FC98F8F6
:1046A0000310534809F02EFC98F80410504809F004
:1046B00029FC99F80010532977D199F80100742842
:1046C00073D1315D6D2911D0301940786D2863D0D8
:1046D000474809F017FC99F80010532965D199F85B
:1046E0000100742861D1305D6D2855D106EB0408B6
:1046F00098F801006D284FD1315D3D4809F002FC6A
:1047000098F801103A4809F0FDFB394809F0EFFB31
:10471000374809F0ECFB364809F0E9FB4E4627E044
:1047200028466D1CFBF767FF41EC110B9FED310B29
:1047300007F08AF8706EB0EE408AF0EE608A305C66
:104740003038FBF747FF00E047E053EC182BFBF74E
:1047500060FE41EC180B3846FBF74DFF53EC182B6D
:10476000FBF7B0FDFBF768FF87B2214809F0BFFBFC
:10477000706E305C2028D3D1642269461C48FBF758
:1047800062FD1E48C6F864B00025076030785328E3
:104790000BD17078742808D13F2C06D16422694669
:1047A0001348FBF750FDC9F864B0641CE4B2402C18
:1047B000FFF451AF1148124B02681248817843F858
:1047C0002120491CC9B28170042901D180F802B0AE
:1047D000402206490448FFF7E9FE65B0BDEC028BB4
:1047E000BDE8F08F98020020180300201802002076
:1047F000B001002000000000000024401C00002048
:1048000014070020CC000020704700002DE9F0477D
:10481000044690F8390099460D46012801D0222817
:1048200058D12DB322B394F83800012852D0012674
:1048300084F838600027E76394F8390022281AD0FA
:104840005FF0120084F83900A284E2844FF48058AB
:10485000E08C4B46401EE084A0684FF000024045CB
:104860004FF08001204613D106F0FBFA08BB04E0AC
:104870000120BDE8F0873220E4E728882168C0F3F2
:1048800008004860206908B16D1C08E0AD1C06E016
:1048900006F0E7FA68B9216815F8010B4860E08C6A
:1048A0000028D5D14B4600224021204606F0D9FAF7
:1048B00008B10320DDE794F83900322806D084F8E7
:1048C000396000BF84F838700020D2E7222084F8D5
:1048D0003900F7E70220CCE770B5044690F83900BC
:1048E000012801D0222836D181B37AB394F8380058
:1048F000012830D0012084F838002162A284E284AB
:104900000025E56394F83900222822D05FF01200D8
:1049100084F83900236B1148D863236B104818645E
:10492000236B1048986426681346321D206BFDF7F0
:1049300015FB21686FF0400008602068416941F074
:104940008001416184F83850002070BDFFE70120EC
:10495000FBE73220DCE70220F7E70000A5AB000808
:10496000D3AB000845AB00080349884202D1034994
:10497000012008707047000098020020CC00002041
:104980007047FEE770B50E4C0025C4F894520D48F0
:10499000016821F440210160016841F48021016037
:1049A0000948C0F8A452022004F5257408F01CFB45
:1049B00001202060022008F017FB256070BD000078
:1049C000000042420014024000804242034901209C
:1049D000C1F894020249C1F8A402704700004242A3
:1049E0000080424270B50E4C0025C4F894520D4828
:1049F000016821F440210160016841F480210160D7
:104A000009480126C0F8A462022004F5257408F0C4
:104A1000EBFA2660022008F0E7FA256070BD00007E
:104A20000000424200140240008042422DE9F0475B
:104A3000824617480024016821F440210160016882
:104A40000160144EDFF85090254627464FF00108CC
:104A5000C6F89472022008F0C7FAC6F8948260067D
:104A6000040ED9F8240208B1641CE4B2012008F055
:104A7000BBFA6D1CEDB2082DEAD3BAF1000F04D0D9
:104A8000FFF780FF2046BDE8F087FFF7ABFFF9E7AF
:104A90000014024000004242008042422DE9F047EB
:104AA00006461548016821F440210160016841F47F
:104AB00080210160114D0027C5F89472DFF8408015
:104AC0003C464FF00109F109C8F8A4127006060E21
:104AD000022008F089FAC5F89492022008F084FABE
:104AE000C5F89472022008F07FFA641CE4B2082C26
:104AF000E9D3BDE8F0870000001402400000424204
:104B00000080424270B50F48016821F440210160E5
:104B1000016841F4802101600B4C0120C4F8A4021B
:104B20000A4DC5F89402042004F5297405F525758D
:104B300008F05AFA00262660042008F055FA2E6084
:104B400070BD00000014024000804242000042425A
:104B500070B50F48016821F440210160016841F4FB
:104B6000802101600B4C0020C4F894020A4DC5F866
:104B7000A402042004F5257405F5297508F034FA1B
:104B8000012020602860BDE87040042008F02CBAA5
:104B90000014024000004242008042422DE9F041F0
:104BA00012480024016821F440210160016801607D
:104BB0000F4D0126C5F8A462304608F015FA0D4FD6
:104BC000C7F89462012008F00FFA08E0641CE4B210
:104BD000FA2C04D9FFF7BCFF0120BDE8F081D5F81D
:104BE00024020028F2D1C7F89402F6E7001402402C
:104BF000008042420000424200B5B0EE416A2DED15
:104C0000068BF0EE605AB0EE404ADFED546A544A2B
:104C100021EEA10A92ED005AD2ED013A02EE020A0B
:104C200092ED023AD2ED034A25EE057A25EE238A6B
:104C300025EE039A02EEA20A63EEA37A63EEA49A2B
:104C400063EE038A63EE24AA24EEA4AA08F01EFBF6
:104C500039EEC91A61EE801A22EE002A62EE800A4D
:104C6000B0EE000A3E4861EE002A38EE2A1A1438E7
:104C700021EE000A37EE671A31EE681A31EE0A7A31
:104C800022EE071A00EEC01A60EEA20A21EE800A98
:104C900041EEC70A02EE620A90ED027ADFED312A98
:104CA00001EE227A80ED027A90ED032A00EEA22A2C
:104CB00080ED032AD0ED041A40EE221AC0ED041A4A
:104CC000D0ED002A02EE814A90ED011A42EEA05A80
:104CD00002EE806A01EE074A41EE025A01EE216AB5
:104CE00023EEC40A03EE650A04EEC60A00EE265A55
:104CF00025EE040A03EE060A04EEE50A40EE263A23
:104D000025EE250A03EEC60A04EE840A00EE263AD2
:104D100025EE060A03EEA50A03EE440A40EE264AF3
:104D200025EE050A03EEA30A03EE030A04EEA40A25
:104D300008F0ACFA65EE000AC2ED000A63EE800AE4
:104D4000C2ED010A63EE000A24EE800AC2ED020AF7
:104D500082ED030ABDEC068B00BD00000AD7233BA1
:104D6000E80000200AD7A33B00B5B0EE414A2DED84
:104D7000068BF0EE603AB0EE403A9FED616A614A10
:104D800021EEA10AD2ED006AD2ED015A02EE020A2A
:104D900092ED025AD2ED034A66EEA67A66EEA58A35
:104DA00026EE857A02EEA20A25EEA58A65EEA4AA71
:104DB00025EE059A25EE24AA64EEA49A08F066FA78
:104DC00061EE800A7AEEC71AB0EE001A22EE002ACF
:104DD00022EE800A21EE817A78EE8A1A4948243838
:104DE00061EE812A37EEC81A60EE071A31EE491AD1
:104DF00071EE297A22EE271A40EEE71AD0ED027AF8
:104E000060EEA20A00EE621A9FED3F0A42EE470AE8
:104E100041EE007AC0ED027A90ED037A01EE807ADD
:104E200080ED037AD0ED042A40EE802AC0ED042AFA
:104E300090ED002A02EE013A90ED011A42EE213A7D
:104E400002EE204A01EE273A41EE073A01EE224AED
:104E500060EE030A20EE231A20EE040A60EEA00A98
:104E600041EE010AB4EE001A40EE000A25EEC30A34
:104E700005EE630A04EEC40A60EE061AB7EE000AF5
:104E800000EEC10A40EE261A61EE830A45EE040ADE
:104E900044EEE30A20EE862A61EEA30A00EE252AFC
:104EA00042EE440A44EE830A60EE862A61EE840AEA
:104EB00040EE052A42EE230A42EEC30A20EE863A6D
:104EC00000EE243A21EEA10A02EE020A02EEA20A44
:104ED00003EE030A08F0DAF961EE800AC2ED000A77
:104EE00062EE000AC2ED010A62EE800A23EE000AB9
:104EF000C2ED020A82ED030ABDEC068B00BD000084
:104F00000AD7A33BF80000200AD7233C70B54C4ECB
:104F100004462DED068B96ED000B9FED4A9B51EC60
:104F2000100B53EC192BFBF774FA41EC1A0B4748A2
:104F300090ED000AB8EEC00A9FED458A20EE080AFF
:104F400010EE100AFBF791FB53EC1A2BFBF7BAF9A2
:104F5000FBF7CEFB206096ED020B53EC192B51ECC6
:104F6000100BFBF756FA41EC1A0B3A4890ED000A89
:104F7000B8EEC00A20EE080A10EE100AFBF775FB27
:104F800053EC1A2BFBF79EF9FBF7B2FB606096ED32
:104F9000040B53EC192B51EC100BFBF73AFA41ECD4
:104FA000190B2D4890ED000AB8EEC00A20EE080A51
:104FB00010EE100AFBF759FB53EC192BFBF782F9A3
:104FC000FBF796FB0025A06054F82500FBF74DFB8E
:104FD00006EBC5026D1CC2E90001032DF4DB1F487E
:104FE0009FED1F1A90ED000A2048B8EEC00A60EE4F
:104FF000010A9FED1C0AC0EE801ADFED1B0A81EE4C
:10500000A02A84ED032AD0ED001A1948F8EEE11A1F
:1050100021EE812AC2EE001A81EEA02A84ED042A34
:10502000D0ED001AF8EEE11A61EE811A81EE801AD5
:1050300081EE200A84ED050ABDEC068B70BD0000F0
:1050400028070020000000C0CCCCE43F1401002061
:105050003333B33E180100201C010020080100205A
:10506000560E494000003443333383410C01002085
:105070001001002070B5524E04462DED068B96EDC2
:10508000000B9FED509B51EC100B53EC192BFBF7D1
:10509000C0F941EC1A0B4D48B0F9000000EE100ABF
:1050A000B8EEC00A9FED4A8A20EE080A10EE100AF8
:1050B000FBF7DBFA53EC1A2BFBF704F9FBF718FBB1
:1050C000206096ED020B53EC192B51EC100BFBF703
:1050D000A0F941EC1A0B3F48B0F9000000EE100AAD
:1050E000B8EEC00A20EE080A10EE100AFBF7BDFA6F
:1050F00053EC1A2BFBF7E6F8FBF7FAFA606096ED33
:10510000040B53EC192B51EC100BFBF782F941EC1B
:10511000190B3148B0F9000000EE100AB8EEC00AD1
:1051200020EE080A10EE100AFBF79FFA53EC192B39
:10513000FBF7C8F8FBF7DCFA0025A06054F825005F
:10514000FBF793FA06EBC5026D1CC2E90001032DC3
:10515000F4DB2248DFED220AB0F9000000EE100A6D
:105160002248B8EEC00A20EE201A9FED1E0AC1EEBA
:10517000001A9FED1D1A81EE812A84ED032AB0F9F1
:10518000000001EE900A1A48F8EEE11A21EEA02A7A
:10519000C2EE001A81EE812A84ED042AB0F90000E3
:1051A00001EE900AF8EEE11A61EEA01AC1EE800A53
:1051B00080EE810A84ED050ABDEC068B70BD00000F
:1051C00040070020000000C0CCCCE43F38000020A5
:1051D0003333B33E3A0000203C0000203E00002064
:1051E000560E4940000034433333834140000020D1
:1051F0004200002010B54E482DED0E8BFFF786FEC5
:105200004B4800F10C01D0EC031A91EC030AFFF7B4
:10521000F3FC4848F8EE00DAF0EE009A90ED019ABF
:10522000D0ED000AD0ED038A29EE2DCA20EEA9DACE
:1052300090ED028A2CEE280A0DEE080A10EE100AF4
:10524000FBF713FA41EC100B05F0EAFE9FED3AABC9
:1052500051EC100B53EC1A2BFBF7DBF89FED38BB2E
:1052600053EC1B2BFBF747F9FBF742FA2CEE090A2C
:1052700068EE29EA2E4CB7EE00EA183C0EEEC80A9A
:10528000206030EE0E0A10EE100AFBF7EEF92EEE5B
:10529000A80A41EC1C0B0DEE090A10EE100AFBF7F0
:1052A000E4F941EC100BB0EE4C1AF0EE6C1A06F07B
:1052B000D3F953EC1A2B51EC100BFBF7AAF853EC73
:1052C0001B2BFBF718F9FBF713FA28EE2D0A68EEF3
:1052D000A90A606020EE080A00EEE80A30EE0E0A25
:1052E00010EE100AFBF7C1F929EE290A41EC1C0B5C
:1052F00020EE080A0DEE280A10EE100AFBF7B5F9A9
:1053000041EC100BB0EE4C1AF0EE6C1A06F0A4F95A
:1053100053EC1A2B51EC100BFBF77BF853EC1B2BC7
:10532000FBF7E9F8FBF7E4F9A060BDEC0E8B10BDCC
:1053300070070020E80000200000000000806640A8
:10534000000000C0CA21094010B54E482DED0E8B5B
:10535000FFF790FE4B4800F10C01D0EC031A91ECE2
:10536000030AFFF701FD4848F8EE00DAF0EE009A74
:1053700090ED019AD0ED000AD0ED038A29EE2DCAF6
:1053800020EEA9DA90ED028A2CEE280A0DEE080A2A
:1053900010EE100AFBF769F941EC100B05F040FE26
:1053A0009FED3AAB51EC100B53EC1A2BFBF731F895
:1053B0009FED38BB53EC1B2BFBF79DF8FBF798F9DF
:1053C0002CEE090A68EE29EA2E4CB7EE00EA343CCE
:1053D0000EEEC80A206030EE0E0A10EE100AFBF73F
:1053E00044F92EEEA80A41EC1C0B0DEE090A10EE52
:1053F000100AFBF73AF941EC100BB0EE4C1AF0EE44
:105400006C1A06F029F953EC1A2B51EC100BFBF730
:1054100000F853EC1B2BFBF76EF8FBF769F928EE4D
:105420002D0A68EEA90A606020EE080A00EEE80A7C
:1054300030EE0E0A10EE100AFBF717F929EE290AD2
:1054400041EC1C0B20EE080A0DEE280A10EE100AA3
:10545000FBF70BF941EC100BB0EE4C1AF0EE6C1AA6
:1054600006F0FAF853EC1A2B51EC100BFAF7D1FFB7
:1054700053EC1B2BFBF73FF8FBF73AF9A060BDECB0
:105480000E8B10BD98070020F800002000000000DF
:1054900000806640000000C0CA2109401CB54FF6DC
:1054A000FF7000F0F1FA0E4C1F204FF4EB732060F8
:1054B000FA2240F2B3115F2000F0EAFB47F6FF70DA
:1054C000206008A11820CDE900017823C8224FF4FC
:1054D000DC71642003F0D7F80649012008801CBD68
:1054E000600000206261636B20746F20696E6974D4
:1054F000000000002A0000201CB54FF6FF7000F0ED
:10550000C3FA114C1F204FF4EB732060FA2240F2D3
:10551000B3115F2000F0BCFB47F6FF7020600BA1C9
:105520001820CDE900017823C8224FF4DC716420F3
:1055300003F0A9F8002005F021FD084901200870BA
:105540000749002008801CBD600000206261636B79
:1055500020746F20696E6974000000002C01002027
:10556000300000201CB54FF6FF7000F08DFA0E4C95
:105570001F204FF4EB732060FA2240F2B3115F203A
:1055800000F086FB47F6FF70206008A11820CDE9E7
:1055900000017823C8224FF4DC71642003F073F813
:1055A0000649012008801CBD600000206261636B19
:1055B00020746F20696E6974000000002C000020C8
:1055C0002DE9FC5F4FF6FF7000F05EFAF64A00200E
:1055D000F74DC2E90000F54A1F264FF48C78C2E966
:1055E00000004346B422F0218C202E6000F050FBD6
:1055F0004346DC22F021B42000F04AFB4FF48274D1
:1056000043462246F021DC2000F042FB4FF4A07913
:105610004B46B42241468C2000F03AFB4B46DC223C
:105620004146B42000F034FB4B4622464146DC2084
:1056300000F02EFB4FF4B47A5346B42249468C2036
:1056400000F026FB5346DC224946B42000F020FB44
:10565000534622464946DC2000F01AFB4FF4C87B33
:105660005B46DC225146B42000F012FB5B4622462A
:105670005146DC2000F00CFB5B46B42251468C20E6
:1056800000F006FB47F6FF77CAA018242F60CDE98B
:10569000004078231A46C821962002F0F4FFC8A0E3
:1056A000CDE9004078231A46F521912002F0EBFF66
:1056B000C4A0CDE9004078231A46F521B92002F0B4
:1056C000E2FFC1A0CDE9004078231A46F521E12090
:1056D00002F0D9FFBDA0CDE9004078231A4640F280
:1056E0001D11912002F0CFFFB9A0CDE90040782331
:1056F0001A4640F21D11B92002F0C5FFB5A0CDE950
:10570000004078231A4640F21D11E12002F0BBFF51
:10571000B1A0CDE9004078231A4640F2451191200E
:1057200002F0B1FFADA0CDE9004078231A4640F267
:105730004511B92002F0A7FFA9A0CDE900407823C8
:105740001A4640F24511E12002F09DFFA5A0CDE9E7
:10575000004078231A4640F26D11B92002F093FF01
:10576000A1A0CDE9004078231A4640F26D11E12056
:1057700002F089FF9DA0CDE9004078231A4640F24F
:105780006D11912002F07FFF43463222F0210A2062
:105790002E6000F07DFA43465A22F021322000F0BC
:1057A00077FA43468222F0215A2000F071FA4B46E4
:1057B000322241460A2000F06BFA4B465A224146FB
:1057C000322000F065FA4B46822241465A2000F012
:1057D0005FFA5346322249460A2000F059FA5346EE
:1057E0005A224946322000F053FA53468222494653
:1057F0005A2000F04DFA5B465A225146322000F002
:1058000047FA5B46822251465A2000F041FA5B4635
:10581000322251460A2000F03BFA4FF4EB73FA2291
:1058200040F2B3115F2000F033FAAA23C82282218C
:10583000462000F02DFA6EA02F60CDE900407823BD
:105840001A46C821142002F01EFF5DA0CDE90040D9
:1058500078231A46F5210F2002F015FF59A0CDE953
:10586000004078231A46F521372002F00CFF56A09D
:10587000CDE9004078231A46F5215F2002F003FFAE
:1058800052A0CDE9004078231A4640F21D110F20A6
:1058900002F0F9FE4EA0CDE9004078231A4640F20E
:1058A0001D11372002F0EFFE4AA0CDE90040782319
:1058B0001A4640F21D115F2002F0E5FE46A0CDE938
:1058C000004078231A4640F245110F2002F0DBFE1B
:1058D00042A0CDE9004078231A4640F24511372016
:1058E00002F0D1FE3EA0CDE9004078231A4640F2F6
:1058F00045115F2002F0C7FE3AA0CDE900407823B1
:105900001A4640F26D11372002F0BDFE36A0CDE9F7
:10591000004078231A4640F26D115F2002F0B3FE7A
:1059200032A0CDE9004078231A4640F26D110F20D5
:1059300002F0A9FE30A0CDE900407823C8224FF440
:10594000DC71642002F09FFE2FA0CDE90040782397
:10595000C82287216E2002F096FE2DA0CDE90040DE
:1059600078231A463C21142002F08DFE2AA0CDE9AE
:10597000004078231A465A21142002F084FE29A000
:10598000CDE9004078231A463C21E62002F07BFE58
:1059900025A0CDE9004078231A465A21E62002F0DE
:1059A00072FEBDE8FC9F00000800002010000020EF
:1059B0006000002044697374616E6365000000003C
:1059C000310000003200000033000000340000000D
:1059D00035000000360000003700000038000000ED
:1059E000390000003000000042610000436C0000FC
:1059F000416E676C650000006261636B20746F200C
:105A0000696E69740000000046697265000000005C
:105A1000416E676C653A000044697374616E63653A
:105A20003A000000647500006D6D000070B5134809
:105A300086B00024016841F001010160016801F0B5
:105A400001010591016841F08001016000680125B4
:105A500000F0800000950590032602200396CDE912
:105A6000014069460648FCF7DDFA0C208DE871001C
:105A700069460448FCF7D6FA06B070BD30380240DB
:105A800000000240001C024070B50E490E4A064656
:105A900008881268002422B13046BDE8704002F048
:105AA000AFBE4D8800214543084602F0BDFC02F020
:105AB0006FFEB0B2054901E00880641CAC42FBD324
:105AC00070BD000008050020F405002000000860FB
:105AD0002DE9F05F394C3A4DA071296839B102F0D7
