:020000040800F2
:10000000900C0020C10100083F8A000897460008B4
:100010003D8A0008A10D000869A400080000000046
:1000200000000000000000000000000039900008FF
:100030001111000800000000238E0008ED90000858
:10004000DB010008DB010008DB010008DB01000820
:10005000DB010008DB010008DB010008DB01000810
:10006000DB010008DB010008DB010008DB01000800
:100070006D100008DB01000879100008DB010008A2
:10008000DB010008DB010008DB010008DB010008E0
:10009000DB010008DB010008DB010008DB010008D0
:1000A000DB010008DB010008DB010008DB010008C0
:1000B00045910008DB010008DB010008DB010008B6
:1000C000DB010008DB010008DB010008DB010008A0
:1000D000DB010008DB010008E5A30008F1A300082C
:1000E000DB010008DB010008DB010008DB01000880
:1000F000DB010008DB010008DB010008DB01000870
:10010000DB010008DB010008DB010008DB0100085F
:10011000DB010008DB010008DB010008DB0100084F
:10012000DB01000885100008DB010008DB01000886
:10013000DB010008DB010008DB010008DB0100082F
:10014000DB010008DB010008DB010008DB0100081F
:10015000DB01000891100008DB01000811A4000871
:10016000DB010008DB010008DB010008DB010008FF
:10017000DB010008DB010008DB01000800000000D3
:10018000DB010008DB010008DB010008DB010008DF
:10019000DB010008DB010008DB010008DB010008CF
:1001A000DB010008DB010008DB010008DFF80CD0F0
:1001B00000F06AFC0048004791C70008900C00203E
:1001C0000648804706480047FEE7FEE7FEE7FEE7F1
:1001D000FEE7FEE7FEE7FEE7FEE7FEE7F190000838
:1001E000AD0100082DE9F0410024061B254671F100
:1001F000000605DA01240027D0EB070067EB0101B8
:10020000161E73F1000605DA0027D2EB070201255E
:1002100067EB030300F08AFA86460E4617469C46B3
:10022000AC4204D00025D0EB050E65EB010624B1ED
:100230000020D2EB000760EB030C704631463A46D3
:100240006346BDE8F08140EA01039B0703D009E063
:1002500008C9121F08C0042AFAD203E011F8013BB2
:1002600000F8013B521EF9D27047D2B201E000F80B
:10027000012B491EFBD270470022F6E710B513464A
:100280000A4604461946FFF7F0FF204610BD10B598
:10029000002200E0521C835C8C5CA34201D1002B45
:1002A000F8D1D8B2E1B2401A10BD70B506460AF0D6
:1002B0002BF9046805460A220021304600F098FA1E
:1002C0002C6070BD2DE9FE4F804681EA0300C00F0F
:1002D0000C46009021F0004123F00045B8EB0200ED
:1002E000A94105D24046214690461C460B4602468F
:1002F00023F00040104347D0270DC7F30A00C3F393
:100300000A510290401A019040286BDAC3F313009F
:1003100040F4801B0098924620B10023D2EB030AE0
:1003200063EB0B0B01985946C0F14002504600F0B8
:100330002EFA06460D4650465946019A00F046FAF6
:1003400010EB08006141002487EA115284EAE77348
:100350001A4340D0009A62B3019A012A4FEA075229
:1003600015DC001B61EB02014FF0004202EA07526C
:10037000CDE90042001C41F5801132462B4600F0C9
:10038000B5FA03B0BDE8F08F40462146F9E7001BFF
:1003900061EB0201001C41F5801300185B4120183D
:1003A000A2F5001747EB030140EAD570B6196D417D
:1003B00011E06D084FEA360645EAC0754FEA07526C
:1003C000001B61EB0201001C41F5801149084FEA56
:1003D00030000019514132462B4603B0BDE8F04FC2
:1003E00000F075BA0098012240000023D0EB020211
:1003F00063EBE073009821464FEAE074B8EB00002D
:1004000061EB0401E9E783F000435BE781F0004121
:1004100058E72DE9FE4F81EA030404F0004421F07F
:10042000004100944FF0000B23F0004350EA010418
:100430005ED052EA03045BD0C3F30A54C1F30A55F9
:100440002C44A4F2F3340194A0FB0254C1F3130131
:1004500041F48011C3F3130343F4801301FB0244FE
:1004600000FB034E840A970A44EA815447EA835703
:10047000A4FB076802958D0A05FB07854FEA932CBC
:1004800004FB0C542705029D4FEA065847EA16372D
:10049000B5EB08056EEB070C870E920E47EA811745
:1004A00042EA8312A7FB0201B6EB0B0164EB0004E6
:1004B0002B0D43EA0C335E1844EB1C50DA465146D0
:1004C000E7FB0201C5F313044FEA0B3343EA14536D
:1004D0004FEA0432019C43EA0603A4F10C0402949F
:1004E000009CCDE900B400F001FA03B0BDE8F08F44
:1004F00000200146F9E72DE9F04D81EA030404F0FC
:10050000004B21F0004514464FF0000A23F0004153
:1005100050EA050220D054EA01021DD0C5F30A5763
:100520000246C5F31303C1F31300C1F30A5640F4A6
:10053000801543F48013A7EB0608101BD64608F27B
:10054000FD3873EB050002D308F1010801E09218B1
:100550005B41B8F1000F03DA00200146BDE8F08DE1
:1005600000204FF48011064684460EE0171B73EB03
:10057000050705D3121B63EB050306434CEA010C88
:1005800049084FEA300092185B4150EA0107EDD16B
:1005900052EA030012D082EA040083EA050108430C
:1005A00005D0101BAB4106D20122002306E0002239
:1005B0004FF0004302E06FF0010253101AEB060007
:1005C0004CEB085110EB0A0041EB0B01BDE8F04D7C
:1005D00000F07DB90EB5C10F80EAE0700844CA078B
:1005E000002140F233438DE80E000A460B4600F02E
:1005F0007DF903B000BD0EB540F2334102910021F8
:10060000CDE900110A460B4600F070F903B000BDB9
:10061000C1F30A5210B5C1F3130140F2FF3341F4A4
:1006200080119A4201DA002010BD40F233439A4211
:10063000A2F2334203DC524200F0B8F810BD904001
:1006400010BD00F0004230F000400AD0C10D01F5AD
:100650006071C0F3160042EA0151C208400711431D
:10066000704700200146704730B5041E71F1000448
:1006700004DB4FF00044404264EB0101141E73F1AF
:10068000000405DB1C464FF00043524263EB0403B9
:100690008B4208BF824230BD30B5041E71F10004A8
:1006A00004DB4FF00044404264EB0101141E73F17F
:1006B000000405DB1C464FF00043524263EB040389
:1006C000994208BF904230BD01F0004330B421F0A0
:1006D000004150EA010206D00A0DA2F56072C1F392
:1006E0001301002A02DC30BC00207047440F44EAAA
:1006F000C104C100E01830BC00EBC25000F0B0B83B
:1007000030B50B46014600202022012409E021FAE1
:1007100002F59D4205D303FA02F5491B04FA02F5DE
:100720002844151EA2F10102F1DC30BD2DE9F05F75
:100730000546002092469B46884606468146402450
:100740001BE0284641464746224600F02FF8534614
:100750005A46C01A914110D311461846224600F05D
:1007600016F82D1A67EB01084F462246012000219A
:1007700000F00DF817EB00094E41201EA4F1010412
:10078000DFDC484631462A464346BDE8F09F202A32
:1007900004DB203A00FA02F1002070479140C2F1D8
:1007A000200320FA03F3194390407047202A04DB0A
:1007B000203A21FA02F00021704721FA02F3D040DA
:1007C000C2F120029140084319467047202A06DBF7
:1007D000CB17203A41FA02F043EAE07306E041FA0F
:1007E00002F3D040C2F120029140084319467047FD
:1007F0002DE9F04791460F4680460446002614F83E
:10080000015B2DB100F052F90068405DC007F6D1E0
:100810002B2D02D02D2D18D0641E4A463946204675
:1008200000F048F927B13968A14201D1C7F800802A
:1008300071054FF002040BD54042002803DD09F09A
:1008400063FE0460A007BDE8F08746F48066E4E735
:100850000028F8DA09F058FE04606FF00040F2E773
:100860000029A8BF7047401C490008BF20F00100C4
:10087000704710B4B0FA80FC00FA0CF050EA0104A2
:1008800004BF10BC704749B1CCF1200421FA04F434
:1008900011FA0CF118BF012121430843A3EB0C010D
:1008A000CB1D4FEA00614FEA102042BF002010BC70
:1008B000704700EBC35010440029A4BF10BC704720
:1008C000401C490008BF20F0010010BC704710B563
:1008D000141E73F1000408DA401C41F10001921863
:1008E0005B411A4301D120F0010010BD2DE9F04D0C
:1008F00092469B4611B1B1FA81F202E0B0FA80F261
:1009000020329046FFF743FF04460F4640EA0A00B4
:1009100041EA0B0153465A46084313D0114653EAA5
:10092000010019D0C8F140025046FFF73FFF0546CD
:100930000E46504659464246FFF729FF084305D068
:10094000012004E020463946BDE8F08D0020054333
:1009500046EAE0762C4337430A986305E40AA0EBA5
:1009600008000022FD0A44EA47540A3002D500205C
:100970000146E9E7010510196941DDE9084500195B
:100980006941BDE8F04DA2E770B521F00043034393
:100990000CD0C1F30A550024D5EB040564EB040325
:1009A000D617AD1AB34102DB0020014670BD2018F6
:1009B00041EB025170BD2DE9F04D00231A461B1A80
:1009C0008A4103DB00200146BDE8F08DC1F30A52E5
:1009D000C1F3130141F480154FF0000BD10702D190
:1009E00000186D41521E0027044640F2FF113846A0
:1009F00001EB620A3E468046024600204FF4801119
:100A0000FFF7D4FEC2197141BB1846EB0100B4EBED
:100A1000030C75EB000C04D3E41A65EB00051746D4
:100A20000E46241908F101006D4180463428E3DDAB
:100A3000F91946EB0600091BA84103D24FF0FF321B
:100A4000134601E0002213461BEB070046EB0A5158
:100A5000BDE8F04DFFF73BBFC1F30A52C1F31301EC
:100A600040F2FF3341F480119A4202DA002001463D
:100A7000704740F233439A42A2F2334202DC5242C0
:100A8000FFF794BEFFF783BE064C074D06E0E06813
:100A900040F0010394E8070098471034AC42F6D3C5
:100AA000FFF788FBAC1E0108CC1E01080048704708
:100AB000E41D01082DE9F05F824600780027154605
:100AC0008B460AF10104B946302801D09DB113E0EC
:100AD00014F8010B0127782803D0582801D045B11C
:100AE0000AE00DB1102D07D10027102514F8010BD5
:100AF00002E0082500E00A250026B0460EE005FBCE
:100B0000080005FB06F1012701EB10461FFA80F8EB
:100B1000B6F5803F00D3B94614F8010B294600F022
:100B200018F80028EBDABBF1000F05D00FB1641EF6
:100B300000E05446CBF80040B9F1000F06D009F0B0
:100B4000E3FC02210160C81EBDE8F09F48EA0640B0
:100B5000FAE73A2800D2303820F02002412A01D3A7
:100B6000A2F13700884201D34FF0FF30704703F005
:100B7000B3BD2DE9F0410D460146002004464E1953
:100B800008E00702301B401E80B200F007F8641C2A
:100B90003844E4B2AC42F4D3BDE8F08110B5044669
:100BA00003F042FE200AA02101EB4000C0B203F096
:100BB0000BFE03F07BFEE0B203F006FE03F076FED0
:100BC00003F032FEA12003F0FFFD03F06FFE0020D2
:100BD00003F0C6FD044603F047FE204610BD2DE994
:100BE000F04116460D460746002409E0E00025FACC
:100BF00000F0C1B2381980B200F006F8641CE4B20B
:100C0000B442F3D3BDE8F08170B50D46044603F05D
:100C10000BFE200AA02101EB4000C0B203F0D4FD7E
:100C200003F044FEE0B203F0CFFD03F03FFE2846A0
:100C300003F0CAFD03F03AFE03F016FEBDE8704073
:100C40000A200BF03BBC000070B5142001F045F900
:100C500016480088002828D115480078022824D199
:100C6000144C0020144B014640F6AC55206053F85C
:100C7000202032B1AA4204DC2668491C3244C9B2A1
:100C80002260401CC0B20428F1D3206890FBF1F030
:100C90002060142001F021F908A0216809F00CFC63
:100CA00000F06AF80BF03EFCFEE770BD2800002063
:100CB0000000002020000020BC060020646973743E
:100CC000616E63653A2025640A000000142001F07B
:100CD00004B9000010B54FF6FF7004F01FFB1E2092
:100CE00009F0C4FB002008F09DF803491E2008808D
:100CF00002490020088010BD2A00002028000020A2
:100D000010B54FF6FF7004F009FB0748002404708B
:100D10001E2009F0ABFB002008F084F803480449CA
:100D200004601E20088010BD000000201800002074
:100D30002A0000200E4810B5016886B041F0040179
:100D4000016000680B4C00F0040005900220009048
:100D5000012001900290032003906946204601F093
:100D6000C7F801220221204601F0B5F906B010BDF6
:100D7000303802400008024010B5084C0022022121
:100D8000204601F0A8F9322001F0A7F82046012200
:100D9000BDE81040022101F09EB9000000080240A9
:100DA000FEE7000070B50E4C0025C4F898520D48BF
:100DB000016821F0C0010160016841F0400101605B
:100DC0000948C0F88C52022004F526740BF084FB0D
:100DD0000120206002200BF07FFB256070BD000029
:100DE000008043420020024000004442154810B5F4
:100DF000016886B041F080010160016801F0800166
:100E00000591016841F4807101600068012400F4DB
:100E1000807005904020CDE900040320CDE9024018
:100E20006946094801F064F80820009069460748BF
:100E300001F05EF80648C0F88C420648C0F89842B7
:100E400006B010BD30380240001C024000200240B5
:100E5000000044420080434270B50E4C0026C4F8A6
:100E600098620D48016821F0C0010160016841F0FD
:100E70004001016009480125C0F88C52022004F5A8
:100E800026740BF029FB256002200BF025FB266061
:100E900070BD000000804342002002400000444238
:100EA0002DE9F047824619480024016821F0C0016D
:100EB0000160016801601E200BF00EFB0025144E3E
:100EC000DFF850902F464FF00108C6F898720220C4
:100ED0000BF002FBC6F898826006040ED9F80C02EB
:100EE00008B1641CE4B202200BF0F6FA6D1CEDB2FE
:100EF000082DEAD3BAF1000F04D0FFF753FF2046C4
:100F0000BDE8F087FFF7A8FFF9E7000000200240E6
:100F100000804342000044422DE9F0470546154851
:100F2000016821F0C0010160016841F040010160E9
:100F3000114E0027C6F89872DFF840803C464FF00B
:100F40000109E909C8F88C126806050E02200BF0A9
:100F5000C3FAC6F8989202200BF0BEFAC6F898724F
:100F600002200BF0B9FA641CE4B2082CE9D3BDE806
:100F7000F08700000020024000804342000044420D
:100F800070B50F48016821F0C0010160016841F0AF
:100F9000400101600B4E0120C6F88C020A4DC5F8D5
:100FA00098021E2005F5267506F523760BF094FAB7
:100FB0000024346002200BF08FFA2C6070BD00001A
:100FC00000200240000044420080434270B50F48B8
:100FD000016821F0C0010160016841F04001016039
:100FE0000B4E0020C6F898020A4DC5F88C021E2050
:100FF00005F5237506F526760BF06EFA01243460AC
:1010000002200BF069FA2C6070BD00000020024045
:10101000008043420000444270B51148002401683A
:1010200021F0C0010160016801600E4D0120C5F88A
:101030008C020D4EC6F8980207E0641CE4B2FA2C4C
:1010400003D9FFF7C3FF012070BD02200BF044FA63
:10105000D5F80C020028F0D1C6F8980270BD000047
:10106000002002400000444200804342014800F05A
:10107000FFBD000000030020014800F0F9BD0000A2
:1010800058030020014800F0F3BD0000B003002029
:10109000014800F0EDBD000008040020016818239D
:1010A000CAB2103AB2FBF3F2054B6FF30901032AFF
:1010B0009B5C436500D9091D016508467047000027
:1010C000BAD3000830B50468256825F4802525606A
:1010D000046863608368402B036803D099600068EC
:1010E000C26030BD9A600068C16030BD10B5012299
:1010F000202104480CF037F903494860034908608F
:1011000010BD0000BC050020B80000202400002015
:101110007047000070B5B3F5804F05D06FF0704197
:1011200040F82210002070BD50F82230084C2340B7
:10113000D1E9004544EA05148D688E892D0245EAFF
:10114000064589692C430C431C4340F82240E9E7DB
:101150000000F0CFF0B50C6850F82450194A154043
:10116000D1E90123D1E903671A433E4332434E6973
:1011700032438E693243CE6932430E6A32434E6A3D
:1011800032438E6A3243CE6A3243CE6B32430E6BA9
:1011900032434E6B32432A43082B01D142F04002C6
:1011A00040F824204A6BB2F5801F08D10A6832B19A
:1011B0004FF480720A610449026811430160002003
:1011C000F0BD00008000E0FF00011000F0B500EB72
:1011D000820253688E8903F04044D1E9003543EA26
:1011E00005138D682D0245EA06452B430E8A0D4DE9
:1011F00005EB065633430E7D6F0107EB066633435E
:101200008E693343234353600268D20207D5426894
:10121000098A22F4700205EB01511143416000205C
:10122000F0BD00000000F0FF30B5D1E901231A4302
:10123000D1E9033423431A434B690D681A438B6980
:101240001A43D1E90734012D496A05686FF30E0589
:1012500005D01A4322430A432A43026008E023438D
:1012600029430B43416803606FF30E010A43426058
:10127000002030BD426942EA4101416100207047CF
:10128000F8B514460546D1E9000210438A686FF0AC
:101290001F03C96803EB421242EA41210843009050
:1012A000286100F01DFF064609E0601C07D024B14C
:1012B00000F016FF801BA04201D90320F8BDA869E9
:1012C0008006F2D40020F8BDF0B56FF00F05D1E92B
:1012D000003405EB04145B1E2E0123438C682F039E
:1012E00006EB04244FEA054C23430D8A8E8ACC6812
:1012F000097E4FF07F4E07EB05450CEB06560EEBD3
:101300000161012A0CD082683F1107EB04342343AA
:101310002B43334302F070420B43134383600FE0CF
:10132000C2682B430B4302F070428168134301F003
:1013300070422103A1F5805131431143C3608160A4
:101340000020F0BD10B5142000F0C7FD01490120B8
:10135000088010BD2C00002070B54A4888B00024D9
:10136000016841F080010160016801F0800107918E
:10137000016841F480710160006802A900F4807086
:1013800007908020012581E83100032005903E4828
:1013900000F0AEFD2802CDE9020502A93B4800F0AD
:1013A000A7FDFFF723FD3A4EC6F8A042142006F52C
:1013B00028760BF083F8356032200BF07FF88DF83B
:1013C000004002226946A12000F072F89DF800005A
:1013D000302803D19DF80110032931D09DF8011068
:1013E00001292DD002292BD00422694648F2401051
:1013F00000F096FA8DF80440694626A009F05CF8E2
:101400002748009948F24005C0F8021002208DF8E4
:10141000000001226946284600F0D8FB01226946F7
:10142000E81D00F07DFA0A200BF048F88DF8004026
:1014300001226946284600F0C9FB08B0002070BDB3
:10144000C9B201EB002117A009F036F80122694664
:10145000002000F089F901226946A42000F084F9F7
:1014600016208DF8000001226946802000F07CF9EA
:101470000C208DF8000001226946882000F074F9E4
:10148000DBE7000030380240001C02400020024030
:10149000000044424354502049443A25730D0A0049
:1014A0005C0000204354502049443A25780D0A003E
:1014B0002DE9F04115460F460446FFF761FD702007
:1014C000FFF72AFDFFF7A8FDE0B2FFF725FDFFF7C4
:1014D000A3FDFFF755FD7120FFF71EFDFFF79CFDF3
:1014E00000246E1E09E0B44201D0012000E000207B
:1014F000FFF7D6FC3855641CE4B2AC42F3D3BDE828
:10150000F041FFF763BD00002DE9F14783B00027EC
:10151000904E8DF804704FF00A0A70788E4C401C83
:10152000C0B2B0FBFAF20AFB1201B846707009B102
:101530000A2870D2874889A1801CFEF7A8FE4FF0C8
:10154000010203A908B30220FFF7B2FF9DF80C00C7
:10155000010760D000F00F01307881425BD8FF2294
:101560008A40D14394F8349041F0C00184F834109B
:1015700004EB4000A1894181218CC18303200AF042
:101580009DFF8DF80470764D91E048F24E15284687
:1015900000F0C6F99DF80C000106D7D5317800F0AF
:1015A0000F008842D2D88DF80470012201A9284684
:1015B00000F00CFBCAE794F834100122824011427B
:1015C00070D0644865A1801CFEF761FE20B36548B9
:1015D0009DF80410042230F811006946FFF768FFF7
:1015E00094F844009DF80010C0079DF8010001F038
:1015F0000F0145D000EB01219DF8040004EB4000F1
:1016000001849DF802209DF8031002F00F0201EB07
:101610000221818146E065E052489DF804100A30BD
:10162000042230F81100694600F07AF994F8440079
:101630009DF80310C0079DF8020011D000EB0120B7
:101640006988091A9DF8040004EB400001849DF8A4
:1016500000109DF8012001EB02212A88511AD8E7D9
:1016600000EB01219DF8040004EB400081819DF80E
:1016700000109DF8012001EB02216A88511A10E048
:1016800000EB01202988091A9DF8040004EB4000B2
:1016900081819DF802209DF8031002F00F0201EBFA
:1016A000022101849DF80400401C8DF804009DF87F
:1016B000040031788842FFF47EAFA08929884FF07A
:1016C0000108884203D8208C6988884209D99DF88E
:1016D0000C0000F00F00012812D9E089A081608C75
:1016E000208477701B481DA1801CFEF7D0FD0028C8
:1016F0009DF80C004FF6FF710FD0C00624D01AE001
:10170000307804EB40004189A181C08B2084802087
:101710008DF80C0084F83490E4E700F08F00802806
:1017200012D008E020F0800003E0A181218400F0C5
:10173000E00084F834007078F02801D986F801A020
:1017400004B04046BDE8F08794F834000206ECD5BA
:10175000E8E700005C0000206C0000203931310017
:10176000B0040020021B01082DE9F04115460E4689
:1017700004460027FFF704FC7020FFF7CDFBFFF7BE
:101780004BFCE0B2FFF7C8FBFFF746FC002408E083
:10179000305DFFF7C1FBFFF73FFC070003D1641C7E
:1017A000E4B2AC42F4D3FFF711FC3846BDE8F08157
:1017B00010B50948002404704FF6FF7003F0AEFD29
:1017C000064804801E2008F051FE002007F02AFB86
:1017D00003491E20088010BD000000202C000020BE
:1017E0002A0000202DE9F0433E4889B0002401681A
:1017F00041F080010160016801F0800107910168FA
:1018000041F4807101600068802600F480700790C8
:1018100001AA012503270096DFF8CC9082E8B000EA
:101820006946484600F064FB2802CDE90005694698
:101830002E4800F05DFBFFF7D9FADFF8B480C8F856
:10184000A0420A200AF03AFEC8F8A0520A200AF084
:1018500035FECDE90064CDE902476946484600F00F
:1018600047FB64200AF02AFE042205A948F2401032
:1018700000F056F88DF8184005A91EA008F01CFECF
:101880001FA105A8FEF703FD40BB02208DF8140040
:1018900048F24005012205A9284600F097F90122E7
:1018A00005A9E81D00F03CF89DF8141060290BD242
:1018B00015A008F001FE19488088A0F5AA4110394A
:1018C00002D1012000F05CF90A200AF0F7FD8DF842
:1018D0001440012205A9284600F078F909B000203B
:1018E000BDE8F08330380240001C02400020024076
:1018F000000044424354502049443A25730D0A00E5
:10190000393134370000000044656661756C74201D
:101910005665723A25640D0A00000000B0040020EC
:101920002DE9F04115460F460446FFF729FB282014
:10193000FFF7F2FAFFF770FB200AFFF7EDFAFFF767
:101940006BFBE0B2FFF7E8FAFFF766FBFFF718FB67
:101950002920FFF7E1FAFFF75FFB00246E1E09E084
:10196000B44201D0012000E00020FFF799FA385579
:10197000641CE4B2AC42F3D3BDE8F041FFF726BBF0
:101980002DE9F14F7A4E00244FF00A0B307882B0E7
:10199000401CC0B2B0FBFBF20BFB1201754DA1461F
:1019A000307009B10A2878D248F24E17012202A9F4
:1019B0003846FFF7B5FF9DF808004FF00008010614
:1019C0000AD500F00F00062806D28DF80480012207
:1019D00001A9384600F0FAF89DF8080001075CD02C
:1019E00000F00F01062958D2FF2088408DF804002E
:1019F000C04395F834A040F0C00085F83400A889B1
:101A0000A882288C5C4F28854FF0010995F8341086
:101A100009FA04F0014268D058480422694630F8B7
:101A20001400FFF77DFFB888A0F5AA41103908D04F
:101A3000A0F5864142391AD0A0F5864184392DD0CF
:101A400053E095F84400C0072CD09DF800009DF8A5
:101A5000011000EB012105EB440001849DF8021008
:101A60009DF8032001EB0221C1F548713CE095F897
:101A70004400C00716D19DF800009DF8011000EB4E
:101A8000012105EB440001849DF802109DF803201C
:101A900001EB0221C1F5887126E041E095F8440090
:101AA000C00710D09DF800009DF8011000EB012147
:101AB00005EB440081819DF802109DF8032001EBA5
:101AC0000221018411E09DF800009DF8011000EB57
:101AD000012105EB440001849DF802109DF80320CC
:101AE00001EB0221C1F5F0718181641CE4B2052C87
:101AF0008CD3A9893A884FF001092846914203D82E
:101B0000018C7A88914209D99DF8081001F00F01E3
:101B100001290CD9C1898181418C298486F80080F2
:101B20009DF8080000F08F0080280AD018E0818A14
:101B30008181018D018480218DF8081085F834A001
:101B4000EEE795F83400010602D520F0800005E0AC
:101B50004FF6FF71A981298400F0E00085F8340078
:101B60003078F02801D986F800B04846BDE8FE8FED
:101B7000630000206C000020B0040020CE1B010890
:101B800008B500218DF800108DF801000E489DF871
:101B90000020435C491C1A44C9B28DF80020B829C2
:101BA000F5D3D0B2C043401C8DF80000B8220649DE
:101BB00048F2470000F00AF80222694648F2FF00A6
:101BC00000F004F8002008BD161B01082DE9F041C3
:101BD00015460E4604460027FFF7D2F92820FFF7E6
:101BE0009BF9FFF719FA200AFFF796F9FFF714FAA5
:101BF000E0B2FFF791F9FFF70FFA002408E0305D3B
:101C0000FFF78AF9FFF708FA070003D1641CE4B272
:101C1000AC42F4D3FFF7DAF93846BDE8F0812DE99C
:101C2000F04104460068016821F00101016000F004
:101C300057FA054600264FF47A770FE000F050FA85
:101C4000401BB8420AD954F84C0F40F0200044F829
:101C50001809032026706070BDE8F08120680068D4
:101C6000C007EBD104F8346F012060700020F3E767
:101C70002DE9F041056D0446286894F854200821A8
:101C800001FA02F210424FF004074FF0000617D09D
:101C900020680268520713D5026822F0040202602D
:101CA00094F854008140A960E06C40F00100E064C9
:101CB00084F8357084F83460A16C09B120468847F7
:101CC000286894F85430524A02FA03F1084218D0B6
:101CD00020684169090614D5416921F080014161FC
:101CE00094F8540002FA00F1A960E06C40F00200A0
:101CF000E06484F8357084F83460A16C09B1204642
:101D000088472868424A94F85430D21C02FA03F1FA
:101D1000084218D020680168890714D5016821F0AD
:101D20000201016094F8540002FA00F1A960E06C2D
:101D300040F00400E06484F8357084F83460A16CED
:101D400009B120468847286894F85430102202FAD6
:101D500003F108421AD0206803681B0716D50368F0
:101D60005F034FF0310327D5A9602068016809039C
:101D700002D484F8353005E00068000302D5412024
:101D800084F83500216C09B120468847286894F80A
:101D90005430202202FA03F1084236D0206803684A
:101DA000DB0632D503685B031CD5A9602068016897
:101DB00009030DD4616C0FE00168C90503D4016803
:101DC00021F00801016094F854008240AA60D0E735
:101DD0000068000319D5E16B002916D02046BDE844
:101DE000F04108470168C90503D4016821F01001DA
:101DF000016094F854008240AA60E06CE064112015
:101E000084F8350084F83460E5E7BDE8F08100002F
:101E10000100800070B504001AD00220636A84F8C3
:101E2000350021680A6818480240D4E901052843B2
:101E3000D4E903563543284365692843A5692843F7
:101E4000E5692843256A28431043042B02D005E0A6
:101E5000012070BDD4E90B231A43104308602268A7
:101E60005069616A20F007000843042901D1A16A82
:101E7000084350612046FFF711F90020E06401207B
:101E800084F83500002070BD3F8010F070B5044626
:101E900090F8340001281ED0012084F8340002207C
:101EA00084F835002068056825F0010505602046A6
:101EB000FFF708F92068016841F01E010160206801
:101EC000416941F0800141612068016841F00101F0
:101ED0000160002070BD022070BD31B500F000F936
:101EE000044600F0FDF80099001B8842F9D338BD84
:101EF0002DE9F84FDFF8A091002209F1040A0AF158
:101F0000040B4FF00F080BF1040E01260B689640EE
:101F10003340B34271D14C68022C01D0122C11D144
:101F2000D40800EB84073D6A5407E40E08FA04FC69
:101F300025EA0C05D1F810C00CFA04FC4CEA050C9B
:101F4000C7F820C007685400032591F804C0A540D5
:101F50000CF0030CAF430CFA04FC4CEA070CC0F87D
:101F600000C04F68012F05D0022F03D0112F01D0E0
:101F7000122F11D18768D1F80CC0AF430CFA04FCC2
:101F80004CEA070CC0F808C04768B7430E79C6F39F
:101F9000001696403E434660C668AE438D68A54035
:101FA0003543C5604C68E4006FD53C4C256845F46A
:101FB00080452560246822F0030504F480440094E1
:101FC000374C2E19D6F808789407250F08FA05F42F
:101FD000A743344CA04201D100242EE0324CA04251
:101FE00001D1012429E0314CA04201D1022424E096
:101FF0002F4CA04202D103241FE046E02D4CA0420A
:1020000001D1042419E02C4CA04201D1052414E094
:102010002A4CA04201D106240FE0294CA04201D154
:1020200007240AE0274CA04201D1082405E0264CF1
:10203000A04201D1092400E00A24AC403C43C6F888
:102040000848D9F800404D464E689C43F60300D539
:102050001C432C60DAF8004055464E689C43B6039A
:1020600000D51C432C60DBF800405D464E689C4365
:10207000F60200D51C432C60DEF8004075464E6821
:102080009C43B60200D51C432C60521C102AFFF45E
:102090003CAFBDE8F88F0000003C014044380240EE
:1020A00000300140000002400004024000080240ED
:1020B000000C0240001002400014024000180240D0
:1020C000001C024000200240002402400069084039
:1020D00000D0012070470AB1816170470904FBE715
:1020E0000148006870470000440000200248016871
:1020F000491C016070470000440000200B4810B5E7
:10210000016841F400710160016841F4806101607F
:10211000016841F480710160052000F0BFF90F20D3
:1021200000F006F800F08AF9002010BD003C0240E3
:1021300010B5044600F060FC4FF47A71B0FBF1F08A
:1021400001F000FA00222146501E00F087F900201D
:1021500010BD2DE9F041044690F8A00015460F4649
:1021600001281DD0012684F8A060022084F8A10077
:1021700005EB850000EBC50004EB8000342238300D
:10218000FEF761F82A463946204606F0C1F9206874
:10219000466284F8A160002084F8A000BDE8F081C8
:1021A0000220FBE770B5040004D094F8A1000025DC
:1021B00010B106E0012070BD84F8A050204600F068
:1021C0006FF8022084F8A1002068816921F0704135
:1021D0008161D4E901100143D4E9030210430143B2
:1021E0002068826911438161206882682B490A4016
:1021F0008260A08A020420688368A669334313437F
:1022000083602068C2680A40C260A08B0204206814
:10221000C368266A33431343C360206802690A40D7
:102220000261A08C020420680369A66A3343134349
:102230000361206842690A404261A08D0104206860
:102240004269236B1A430A43426194F83500020243
:1022500094F8360001042068C36A03F07F43C36228
:102260002068C36A94F83460114333430B43C3625C
:102270002068416B41F0040141632068416B41F0EB
:10228000020141632068816941F001018161C4F864
:10229000A450012084F8A100002070BD00F800F0D7
:1022A00030B5364887B00025016841F08061016093
:1022B000006800F08060059030481438016841F4EF
:1022C00000010160016801F400010591016841F01D
:1022D00002010160016801F002010591016841F00D
:1022E00020010160016801F020010591016841F0C1
:1022F00040010160016801F040010591016841F071
:1023000080010160016801F080010591016841F4DC
:10231000807101600068032400F480700590202023
:1023200000900120CDE90204019069461448FFF7AE
:10233000DFFD4FF4806000900220CDE901050E2002
:10234000CDE9034069460F48FFF7D2FD4FF40C601A
:10235000009069460C48FFF7CBFD4FF47E4000909B
:1023600069460A48FFF7C4FD40F2F76000906946ED
:102370000748FFF7BDFD07B030BD000044380240FC
:10238000000402400014024000180240001C0240F9
:102390000020024070B5044690F8A0000E460128C7
:1023A00020D0012584F8A050022084F8A10003EB7E
:1023B000830000EBC30004EB800141F8386F886AAA
:1023C0003044C1E90102C86A1044C8601A46204678
:1023D00006F09EF82068456284F8A150002084F839
:1023E000A00070BD022070BD2DE9F041044690F8B8
:1023F000A0000F4601281FD0012584F8A05002201C
:1024000084F8A10003EB830000EBC30004EB800120
:102410000026E1E90E672046C1E90262C1E90A72BD
:102420001A4606F075F82068456284F8A15084F8D1
:10243000A0600020BDE8F0810220FBE708B5002085
:10244000009008BD00F01F0201219140400980006A
:1024500000F1E020C0F8001170470000F0B40E4B0E
:102460001B68C3F30223C3F10704042C00D904241E
:102470001D1D072D01D2002300E0DB1E012606FAF8
:1024800004F56D1E0D409D409E40761E164045EAA7
:102490000601F0BC06F0D4BA0CED00E0064A00F0EC
:1024A000070110684FF6FF03184040EA0120034976
:1024B00008431060704700000CED00E00000FA05D2
:1024C0002DE9F8431D48016841F080510160006822
:1024D000012700F080500090380490FAA0F0DFF857
:1024E0006080B0FA80F048F82070FFF7F9FD0446EC
:1024F0004FF47A75134E04E0FFF7F2FD001BA8427B
:1025000013D87068C003F7D54FF4003090FAA0F0EC
:10251000B0FA80F048F82070FFF7E2FD044607E0CB
:10252000FFF7DEFD001BA84202D90320BDE8F883B7
:1025300070688003F4D50020F8E7000040380240BE
:1025400000000E42007000402DE9F84F044600687C
:10255000DFF878829E4DC10747F6C07A4FF0E0461B
:102560004FF0010B4FF0000901D180074BD599497D
:10257000C1F86890FFF7B4FD074604E0FFF7B0FD2F
:10258000C01B64287ED828680001F7D420789249BF
:10259000C0070DD09AFAAAF26068B2FA82F29040AF
:1025A00096FAA6F3A268B3FA83F39A401043086040
:1025B0002078800718D5086896FAA6F200F0E04067
:1025C000B2FA82F2D0406268237B920142EA03624F
:1025D00042EA00700860D8F80010E26921F01F019B
:1025E000521E1143C8F800107A49C1F868B0FFF7CD
:1025F00077FD074604E0FFF773FDC01B642841D850
:1026000028680001F7D52068410701D4000776D576
:102610007049C1F87090FFF763FD074604E0FFF7CB
:102620005FFDC01B64282DD82868C0438000F6D504
:1026300020786A4F40074FF0706C29D5386896FAB9
:10264000A6F100F0E040B1FA81F1C8409AFAAAF28E
:102650002169B2FA82F291409CFAACF36269B3FA52
:1026600083F39A40114396FAA6F2B2FA82F29040AE
:1026700001433960D8F800106FF0FF0321F4F851DE
:10268000226A00E079E003EB02221143C8F800104F
:102690002078000723D538689CFAACF100F0706010
:1026A000B1FA81F1C8409AFAAAF22169B2FA82F22B
:1026B00091409CFAACF2B2FA82F29040014396FA51
:1026C000A6F2A069B2FA82F2904001433960D8F8CC
:1026D0000010626A21F440311143C8F800103D49EE
:1026E000C1F870B0FFF7FCFC064604E0FFF7F8FC09
:1026F000801B642841D82868C0438000F6D4207825
:10270000800651D532484F464030016841F0805133
:1027100001600068324E00F080500090306840F454
:1027200080703060FFF7DCFC054604E0FFF7D8FC62
:10273000401B642821D83068C005F7D5264E143ECA
:102740003068218D00F4407001F4407188422BD034
:102750003068244920F44070C1F800B00F60306048
:10276000800710D5FFF7BCFC054641F2883707E02B
:10277000FFF7B6FC401BB84202D90320BDE8F88F32
:1027800030688007F4D5A06A1149C0F301220831EE
:10279000032A13D0086820F4F81008603068218DEF
:1027A000C1F30B01084330602078C00604D50E4900
:1027B00094F82C00C1F8E0010020DFE70A680B4B19
:1027C00022F4F812184002430A60E7E78C3802400E
:1027D00000380240000047428438024088380240F6
:1027E00000700040400E474200104742FFFCFF0FC0
:1027F0002DE9F05FDFF8F8A104460F46DAF8000093
:10280000DFF8F08100F00F02C8B27A49814641F248
:10281000883608F10808BA4261D202468AF80020D8
:10282000DAF8000000F00F00B8427DD12078800770
:1028300007D5D8F80020A36822F0F0021A43C8F8A0
:1028400000202078C0072DD0606801281AD0022807
:102850001BD0032819D009688907002964DAD8F841
:102860000010474621F003010143C8F80010FFF7AC
:1028700037FC0546606801280FD0022818D00328CD
:102880001CD027E009688903E7E709688901E4E7C4
:10289000FFF726FC401BB04258D83868C0F38100CF
:1028A0000128F5D188E0FFF71BFC401BB0424DD852
:1028B0003868C0F381000228F5D17DE03868FFF761
:1028C0000FFC401BB042F9D940E0FFF709FC401B68
:1028D000B0423BD8386810F00C0FF6D16CE020788D
:1028E000800707D5D8F80020A36822F0F0021A4329
:1028F000C8F800202078C0074CD06068012828D094
:10290000022829D0032827D009688907002949DA35
:10291000D8F8002022F003020243C8F80020FFF795
:10292000DFFB0546606800E03CE001281DD002287E
:1029300029D0032838D0B3464646306810F00C0F33
:1029400028D0FFF7CDFB411B5945F6D90320BDE840
:10295000F09F09688903D9E709688901D6E7FFF77D
:10296000BFFB411B594502D9F0E7B34646463068E4
:10297000C0F381000128F2D10CE0FFF7B1FB411B4D
:10298000594502D9E2E7B34646463068C0F38100B4
:102990000228F2D18AF80090DAF8000000F00F0067
:1029A000B84209D00120D2E744462068FFF798FBDF
:1029B000401BB042F9D9C9E72078400707D5D8F8BD
:1029C0000010E26821F4E0511143C8F800102078AB
:1029D000000708D5D8F80010226921F4604141EAC7
:1029E000C201C8F800100F20FFF7A2FB0020AEE7DD
:1029F000003C02400038024010B500F043F808499E
:102A00000968F02292FAA2F201F0F001B2FA82F221
:102A1000D140044A515CC8400349086010BD000021
:102A200008380240AAD300083000002010B5FFF794
:102A3000E3FF074909684FF4E05292FAA2F201F469
:102A4000E051B2FA82F2D140024A515CC84010BD56
:102A500008380240AAD3000810B5FFF7CDFF074998
:102A600009684FF4604292FAA2F201F46041B2FAAE
:102A700082F2D140024A515CC84010BD0838024081
:102A8000AAD3000830B51948006810F00C011848A6
:102A900012D0184C04290ED008290DD1134A121F48
:102AA0001168136801F03F015D0247F6C07304D559
:102AB000B4FBF1F003E0204630BDB0FBF1F011684B
:102AC000194093FAA3F3B3FA83F3D940484311684A
:102AD0004FF4403292FAA2F201F44031B2FA82F29B
:102AE000D140491C4900B0FBF1F030BD083802402C
:102AF0000024F40040787D012DE9F84F0446007869
:102B0000DFF8FCA2BF4DC0074FF0000648D0DAF84E
:102B100000105046C1F38101012908D00068C0F3BC
:102B2000810002280AD1281D0068400206D52868C5
:102B3000800335D56068002873D031E0DFF8C49297
:102B400009F1020989F80060FFF7CAFA074641F265
:102B5000883804E0FFF7C4FAC11B41457AD82868D9
:102B60008003F7D4207989F80000606860B1FFF72E
:102B7000B7FA074604E0FFF7B3FAC11B4145EDD8A9
:102B800028688003F7D50BE0FFF7AAFA074604E0B0
:102B9000FFF7A6FAC11B4145E0D828688003F7D4A7
:102BA0002078DFF86492800744D5DAF800105046A8
:102BB00011F00C0F4FF0F80809D00068C0F3810045
:102BC00002280BD18E48001F0068400206D42868F6
:102BD000800714D5E068012823D110E0E068D0B167
:102BE0000120C9F80000FFF77BFA074604E0FFF771
:102BF00077FAC01B6428B1D828688007F7D5286801
:102C000098FAA8F22169B2FA82F220F0F800914015
:102C1000084328600EE0C9F80060FFF761FA074634
:102C200005E0EAE0FFF75CFAC01B642812D82868C8
:102C30008007F7D42078000725D5DFF8C4817348D2
:102C4000616908F16C0881B101210160FFF748FA60
:102C5000074605E07EE0FFF743FAC01B642879D8F9
:102C6000D8F800008007F6D50DE00660FFF738FAC7
:102C7000074604E0FFF734FAC01B64286AD8D8F886
:102C800000008007F6D42078400753D55C483830E0
:102C9000016841F0805101600068DFF8748100F044
:102CA00080500090D8F8001041F48071C8F80010EE
:102CB000FFF716FA074604E0FFF712FAC01B642874
:102CC00048D8D8F80000C005F6D5DFF834B10BF1CC
:102CD000680B8BF80060FFF703FA074641F288386B
:102CE00004E0FFF7FDF9C11B41457ED8DBF8000089
:102CF0008007F6D4207A8BF80000A06868B1FFF74F
:102D0000EFF9074604E0FFF7EBF9C11B41456CD82A
:102D1000DBF800008007F6D50CE0FFF7E1F9074685
:102D200004E0FFF7DDF9C11B41455ED8DBF8000088
:102D30008007F6D4A069E8B3DAF80010C1F3810186
:102D400002295AD0022806D0C9F86060FFF7C8F9F6
:102D500004464DE049E04F46C9F86060FFF7C0F90E
:102D6000064604E0FFF7BCF9801B64283DD82868BC
:102D70008001F7D4D4E90701084347F6C07191FAFE
:102D8000A1F1626AB1FA81F18A40A16A4FF0FF3382
:102D900003EB51014FF4403393FAA3F3B3FA83F3F7
:102DA00099400A4310434FF0706292FAA2F2B2FACD
:102DB00082F200E01FE0E16A914008431049091FD8
:102DC000086001203866FFF78BF9044604E0FFF73E
:102DD00087F9001B642808D828688001F7D50AE025
:102DE000FFF77EF9001B642802D90320BDE8F88FA5
:102DF00028688001F4D40020F8E70120F6E70000FD
:102E0000083802400038024000004742800E474226
:102E10000070004070B50D46040003D094F82C00FB
:102E200010B107E0012070BD002084F82D0020467D
:102E300000F012F8022084F82C00211D2068FEF713
:102E4000F3F9D4E900022946FEF73EFA012084F89E
:102E50002C00002070BD0000304800B5016887B02C
:102E600041F001010160006800F0010005902B486D
:102E70000838016841F004010160016801F00401B3
:102E80000591016841F008010160016801F0080145
:102E90000591016841F010010160016801F0100125
:102EA0000591016841F020010160016801F02001F5
:102EB0000591016841F0400101600068694600F039
:102EC000400005900D20009002200190012002900A
:102ED000032003900C2004901148FFF709F84CF2EE
:102EE0000370009069460F48FFF702F84FF68370B1
:102EF000009069460C48FEF7FBFF4FF63F0000903C
:102F000069460A48FEF7F4FF48F237100090694618
:102F10000748FEF7EDFF07B000BD0000383802405B
:102F200000080240000C0240001002400014024061
:102F30000018024010B5044690F82C00022809D071
:102F4000022084F82C002068FEF794F9012084F810
:102F50002C00002010BD70B5044690F82C000D46E2
:102F600002280CD0022084F82C002068FEF788F993
:102F70002868022804D0012084F82C00002070BDAD
:102F80000520F9E770B5040004D094F8510000253D
:102F900010B106E0012070BD84F85050204600F0CA
:102FA00033F8022084F851002068016821F04001C4
:102FB0000160D4E901010843D4E903121143084335
:102FC00061690843218B01F400710843E1690843FA
:102FD000216A0843A16A084321680860A0690421A6
:102FE00001EA1040616A0843216848602168E06A8C
:102FF00008612068C16921F40061C1616565012033
:1030000084F85100002070BD10B586B0044614212C
:103010006846FDF731F913492068884220D11248EB
:103020000021026842F480520260006800F480507F
:1030300005900D481438026842F0010202600068F1
:1030400000F001000590E02000900220CDE9010190
:10305000032003900520049069460448FEF748FFCA
:1030600006B010BD0030014044380240000002406C
:103070002DE9F843044690F85100984601286FD195
:1030800031B32AB394F85000012869D0012784F89D
:103090005070122084F85100002666652163A286D4
:1030A000E286E664A664A687E687A06A7D03A84256
:1030B00009D12068016821F400510160206801688D
:1030C00041F400510160A068B0F5004F03D007E063
:1030D0000120BDE8F8832068016841F48041016067
:1030E00020680168490603D4016841F0400101608D
:1030F000E0680028606804D0D8B1E08E012818D0BC
:1031000021E010B1E08E012808D1206B411C216321
:1031100021680078C860E08E401EE0860004000C44
:103120001FD0434600220221204605F033FFA8B9F4
:10313000EBE7206B21680088C860206B801C20634F
:10314000E08E401EE0860004000C0AD043460022B8
:103150000221204605F01EFF0028EAD00320B8E730
:1031600026E0A06AA84204D12068016841F4805199
:103170000160434600220221204605F00BFF30B9D2
:10318000434601228021204605F004FF20B1606DF6
:1031900040F020006065E1E7A06818B92068C168C8
:1031A0008068009084F8517084F85060002090E7A7
:1031B00002208EE72DE9F843044690F85100DDF82F
:1031C0002080012801D022287ED169B162B15BB193
:1031D00094F85000012877D0012784F8507094F8B3
:1031E0005100012803D005E00120BDE8F88332201A
:1031F00084F8510000266665A263A387E3872163F4
:10320000A386E386A664E664A06A4FF40055A8424C
:1032100009D12068016821F400510160206801682B
:1032200041F40051016020680168490603D4016837
:1032300041F040010160E0684FF48271B0F5006F29
:10324000606807D0002867D088426ED1E08E0128E0
:1032500062D06AE020B188420CD1E08E012809D109
:10326000206B21680088C860206B801C2063E08E82
:10327000401EE086E08E80B9A06AA84244D1206852
:10328000016841F4805101603EE02068C068A16B94
:103290000880A06B801CA0639EE0434600220221B0
:1032A000204605F077FE002874D1206B2168008845
:1032B000C860206B801C2063E08E401E0004000C60
:1032C000E08609D1A06A00E0C7E0A84204D12068E6
:1032D000016841F4805101604346002201212046EB
:1032E00005F058FE00286FD12068C068A16B0880E7
:1032F000A06B801CA063E08F401EE087E08E00285A
:10330000CBD1606800286AD14346002201212046C3
:1033100005F040FEF0BBB8E7206B411C216321683B
:103320000078C860E08E401EE086E08E98B9A06A02
:10333000A84204D12068016841F4805101604346ED
:1033400000220121204605F025FE18BB2068C06838
:10335000A16B087040E0434600220221204605F0A0
:1033600019FEB8B9206B411C216321680078C86040
:10337000E08E401E0004000CE08607D1A06AA8423F
:1033800004D12068016841F4805101600022434665
:10339000012100E018E0204605F0FCFDA0B92068FE
:1033A000C168A06B421CA2630170E08F401EE087E1
:1033B000E08E0028CFD1606888B943460022012101
:1033C000204605F0E7FD08B103200EE72068C1683C
:1033D000A06B421CA2630170E08F401EE087A06AD0
:1033E000A84210D1434600220121204605F0D2FD1B
:1033F00018B1606D40F002000FE02068C068ADF8C1
:103400000000BDF80000434601228021204605F05F
:10341000C1FD20B1606D40F020006065D4E784F804
:10342000517020688168A26AC1F30011AA4210D1CC
:1034300079B1616D41F002016165016821F40051CB
:1034400001602068016841F40051016084F8506017
:10345000CAE684F850600020C7E60220C5E670B5D1
:1034600015460E46040003D094F8490010B107E059
:10347000012070BD002084F84800204600F01AF8B2
:1034800004F108012068FDF765FE3146A268206856
:10349000FDF79CFED4E901022946236BFDF73AFEB5
:1034A000A168206850F8212042F0010240F8212054
:1034B000002070BD1A4800B5016887B041F00101D5
:1034C0000160006800F001000590154808380168A7
:1034D00041F008010160016801F0080105910168EF
:1034E00041F0100101600068694600F0100005908D
:1034F0004EF2B37000900220019001200290032050
:1035000003900C2004900748FEF7F2FC4FF6807001
:10351000009069460448FEF7EBFC07B000BD0000D0
:1035200038380240000C0240001002404FF0E02109
:103530000428086903D020F004000861704740F0B7
:103540000400FAE710B5401EB0F1807F01D30120DE
:1035500010BD4FF0E02460610F21601705F070FA94
:103560000020A06107202061002010BD7047704737
:1035700030B590F83820012A20D0012380F8383067
:10358000022280F839200268546824F070045460E4
:10359000026854680D682C4354600268946824F0F3
:1035A000800494600268946849680C43946080F8D1
:1035B0003930002180F83810084630BD022030BD77
:1035C00010B5040003D094F8390010B107E00120D1
:1035D00010BD002084F83800204600F00DF80220CD
:1035E00084F83900211D206805F0B2FD012084F81F
:1035F0003900002010BD000038B51E4A01681E4B7E
:10360000914207D1196841F080011960196801F0F1
:1036100080010091184A194C0168121DA14207D17E
:10362000116841F400311160116801F4003109E0C2
:10363000134CA14207D1116841F480211160116837
:1036400001F4802100910068B0F1804F11D1186819
:1036500040F0010018601868002200F0010000909E
:1036600011461C20FEF7FAFEBDE838401C20FEF78C
:10367000E9BE38BD001C0040403802400044014013
:10368000004801400168CA6842F00102CA6000684F
:10369000016841F0010101600020704770B50446E7
:1036A00090F83800012817D0012584F838500220FE
:1036B00084F839002068826822F0770222F47F4281
:1036C00082600868502836D00DDC202858D005DCF0
:1036D00080B3102840D150E0022070BD302852D075
:1036E000402839D13EE060282DD070280BD0B0F5AD
:1036F000805F03D0B0F5005F2ED110E020688168B4
:1037000021F0070109E0CB68D1E90121206805F02B
:103710008AFD2068816841F0770181601CE0CB68F8
:10372000D1E90121206805F07EFD2068816841F41F
:103730008041F2E71EE0CA684968206805F03CFE57
:103740005021206806E0CA684968206805F045FEF7
:103750006021206805F071FD84F83950002084F85C
:10376000380070BDCA684968206805F025FE402110
:103770002068EFE700212068ECE710212068E9E7E6
:1037800020212068E6E730212068E3E7704770B524
:103790000446006801694FF00005C943890715D444
:1037A000C168C943890711D4E91E0161012020764F
:1037B000206880698007204602D0FFF7E7FF04E019
:1037C00000F0EEF8204600F070F9257620680169D7
:1037D000C943490717D4C168C943490713D46FF0D7
:1037E00004010161022020762068806910F4407F86
:1037F000204602D0FFF7CAFF04E000F0D1F82046CF
:1038000000F053F9257620680169C943090716D4E9
:10381000C168C943090712D46FF00801016104208F
:1038200020762068C0698007204602D0FFF7AEFFEF
:1038300004E000F0B5F8204600F037F9257620685E
:103840000169C943C90617D4C168C943C90613D45D
:103850006FF010010161082020762068C06910F423
:10386000407F204602D0FFF791FF04E000F098F877
:10387000204600F01AF9257620680169C943C90776
:1038800008D1C168C943C90704D1891E0161204616
:1038900000F028F920680169C943090609D4C16804
:1038A000C943090605D46FF0800101612046FFF786
:1038B0005DFE20680169C943490609D4C168C9434E
:1038C000490605D46FF040010161204600F0DAFAA4
:1038D00020680169C94389060BD4C168C9438906B8
:1038E00007D46FF0200101612046BDE87040FFF76A
:1038F0003EBE70BD2DE9F04186B0074614216846F2
:10390000FCF7BAFC214839680025214C0226DFF873
:103910008480814212D1206840F02000206020681D
:1039200000F02000059088150090CDE90165092080
:10393000CDE9035069464046FEF7DAFA164A386880
:103940000321904209D1206840F0200020602068C7
:1039500000F02000059040200BE0104A904211D169
:10396000206840F020002060206800F020000590D2
:1039700080200090CDE90165CDE9035169464046BC
:10398000FEF7B6FA06B0BDE8F0810000001C00406A
:103990003038024000140240004401400048014019
:1039A000704770B5044690F838000D4601280DD0D8
:1039B000012684F83860022084F8390042B1042AD4
:1039C00018D0082A2AD00C2A4DD139E0022070BD27
:1039D000206805F03BFC2068816941F008018161A5
:1039E0002068816921F004018161206881692A6968
:1039F000114311E0206805F055FC2068816941F40D
:103A0000006181612068816921F4806181612068A1
:103A100081692A6941EA0221816124E0206805F078
:103A200073FC2068C16941F00801C1612068C16967
:103A300021F00401C1612068C1692A69114311E0C4
:103A4000206805F091FC2068C16941F40061C16102
:103A50002068C16921F48061C1612068C1692A6957
:103A600041EA0221C16184F83960002084F83800FD
:103A700070BD10B5040003D094F8390010B107E010
:103A8000012010BD002084F83800204600F00CF81A
:103A9000022084F83900211D206805F059FB01201F
:103AA00084F83900002010BD7047704710B50446F7
:103AB0000068012205F0ACFB08482168814202D071
:103AC0000748814203D1486C40F4004048642068B4
:103AD000016841F001010160002010BD00000140BB
:103AE000000401402DE9F04FC5492DED048B85B050
:103AF00088427DD1C34CDFF810B3DFF81083A08873
:103B0000401C80B2A080E188491CE1802189491CC9
:103B100021816189491C61819FEDBD9B002532286F
:103B200067D3DFF8F492A58099F80000032860D1EC
:103B30002078BA4E01284BD13068801C3060B8F82C
:103B40000010891CA8F8001006F090FC30683C2892
:103B500000D12570B24F53EC192B97ED000B51ECAF
:103B6000100BFCF750FC41EC180BDA46DBF80000B8
:103B7000FCF730FD53EC182BFCF78EFD24D897EDA5
:103B8000000BB0EE491AF0EE691A53EC112B51EC10
:103B9000100BFCF797FB41EC180BDAF80000FCF770
:103BA00019FD53EC182BFCF75FFD0DD82078012888
:103BB0000AD19C483178617002689B480260B8F86D
:103BC00000309A4806F078FC99F80000032832D1BA
:103BD000207870B930684746801E3060B8F8001011
:103BE000891EA8F8001006F041FC3888617801E0D1
:103BF00000E120E0DFF83892884211D1012204214F
:103C00004846FEF768FA3A8861788AA006F054FCC4
:103C10003068801E30603988891E398006F026FCA5
:103C2000306840B9002204214846FEF754FAFDF7F7
:103C300067F801202070E088642805D3E5804022E1
:103C40007F49804800F04AFB2089A146282870D38C
:103C5000DFF8F4A1BAF8000001286AD1A9F80850E9
:103C60004C465F4679A0DBF8001006F025FC6A4858
:103C7000007802285DD13868A0F500719A3958D0D3
:103C8000FCF7A8FC41EC100B654805F065F8B0EEB8
:103C9000408AF0EE608A4646B8F80000FCF7ABFCBC
:103CA00053EC182BFCF70EFBFCF7B2FC80B2308013
:103CB00006F0DCFB694EA078396846F82010401CFD
:103CC000C0B2A0700A2800D1A570554F002453EC53
:103CD000192B97ED000B51EC100BFCF794FB41EC0A
:103CE000180B56F82400FCF775FC53EC182BFCF766
:103CF000BBFC1ED397ED000BB0EE491AF0EE691A2B
:103D000053EC112B51EC100BFCF7DCFA41EC180BC7
:103D100056F82400FCF75EFC53EC182BFCF7BCFCB7
:103D200007D3092C01D1AAF80050641CE4B20A2C74
:103D3000CDD3B9F80A1005295CD34948A9F80A502F
:103D40000088012856D108F02DFC08F047FC00F04F
:103D500043FFDFF81091D9F80800FCF772FC064623
:103D60000F46D9F80400FCF76CFC04460D46D9F860
:103D70000000FCF766FC8DE8F00041EC100B3AA067
:103D800053EC102B06F098FB99ED020A3A4910EE1D
:103D9000100A884214D810EE100A384988420FDC05
:103DA000FCEEC00A10EE900AF3EE0E0AA8F800002E
:103DB00030EE200ABDEEC00A10EE100A06F056FBE7
:103DC00099ED000AB1EE400AB5EEC00AF1EE10FA24
:103DD00010DB10EE100A2A4988420BDC05B0BCEE5D
:103DE000C00ABDEC048B10EE100ABDE8F04FC0B263
:103DF00005F018B805B0BDEC048BBDE8F08F0000ED
:103E00001408002008010020240000202A000020BF
:103E100000000000000018400000002018000020F2
:103E2000200100201C00002020000020641E01084A
:103E3000001002402A2A202564202564200A000060
:103E4000C0010020C00200202800002064696666CE
:103E50006572656E63653A2025640A007407002068
:103E60002C000020E8060020252E32662C252E325C
:103E7000662C252E32660A000000F0C10000F041D9
:103E800000007042704710B504460068416921F097
:103E9000800141612068416921F040014161206B4E
:103EA00008B1FDF7BCFE606B08B1FDF7B8FE01205C
:103EB00084F83900002010BD704738B50168044609
:103EC0000868CA68C0F3000002F4807238B132B1E9
:103ED000086848680090E06B40F00100E063086803
:103EE0004A69C0F3400002F0010238B132B10868FB
:103EF00048680090E06B40F00400E06308684A699D
:103F0000C0F3800002F0010238B132B1086848689D
:103F10000090E06B40F00200E06308684A69C0F37B
:103F2000C00002F0010238B132B108684868009060
:103F3000E06B40F00800E0630868C968C0F3401017
:103F400001F0200118B111B1204606F0C1F8206837
:103F50000168C068C1F3C01100F0800019B110B150
:103F6000204606F0C3F921680868CA68C0F38010CB
:103F700002F04002012568B162B1CA68204622F011
:103F80004002CA6094F8391032290CD080F83950B8
:103F900000F074FBE06B002804D084F83950204610
:103FA000FFF78AFF38BD222180F83910F0E708B505
:103FB00001680A6849680091FFF765FF04F054FF43
:103FC000BDE8084005F03AB870B5040004D094F894
:103FD0003900002510B106E0012070BD84F838508A
:103FE000204600F021F8022084F839002068C168DA
:103FF00021F40051C160204606F0BEF82068016936
:1040000021F4904101612068416921F02A01416158
:104010002068C16841F40051C160E563012084F863
:104020003900002070BD00002DE9F04F87B0044634
:1040300014216846FCF720F97D4F7C482168002553
:10404000DFF8ECA1143F4FF002084FF003094FF4E2
:10405000806B81424DD1DAF8001041F02001CAF89E
:104060000010DAF8000000F020000590386840F0F9
:10407000040038603868029500F004000590C02004
:10408000CDE900080820CDE9039069466948FDF7AD
:104090002FFF6A4E684830608005C6E90105C6E911
:1040A000035B7561B561F561356230467562FDF798
:1040B000B1FE66636048B4635836783030604FF0C4
:1040C0002060706006F10801402081E821087561D8
:1040D000B561F561356230467562FDF79BFE26637A
:1040E000002211464720B463FEF7B8F94720FEF7D7
:1040F000A9F9534920680722524B884220D1DAF8A7
:10410000001041F01001CAF80010DAF8000000F0C9
:1041100010000590386840F001003860386802955A
:1041200000F0010005904FF4C060CDE90008CDE932
:10413000039269461846FDF7DBFE07B0BDE8F08F35
:104140003B49414E091FB04220D1086840F400307D
:104150000860086800F400300590386840F00100FD
:1041600038603868029500F0010005900C20CDE918
:104170000008CDE9039269461846FDF7B9FE002212
:1041800011462620FEF76AF926204BE02F4B984275
:10419000D3D1086840F480200860086800F48020CB
:1041A0000590386840F0020038603868029500F0E9
:1041B000020005904FF44060CDE90008CDE903927C
:1041C00069462348FDF794FE1C4E2248B03E4FF04E
:1041D00000683060C6E90185C6E9035B7561B561B9
:1041E000F56135625F4630467562FDF713FE666322
:1041F0001848B46358363030E6E802084020A1C6BB
:104200000E4846F814595838B561F5613562756243
:10421000FDF700FE2663002211462720B463FEF757
:104220001DF92720FEF70EF987E700000014014072
:10423000443802400008024028640240B0030020D5
:1042400000100140000002400044004000480040CF
:10425000000402402860024037B5044690F8390057
:104260001346012801D012282FD1019A4AB343B333
:1042700094F83800012828D0012084F83800A26280
:10428000A3850025E56394F8390012281BD022206D
:1042900084F83900616B0E48C863616B0D4808648F
:1042A000616B0D4888642168606B091DFDF7EEFDA8
:1042B0002068416941F04001416184F83850002094
:1042C0003EBD01203EBD3220E2E702203EBD00009F
:1042D0005BA000088FA000083DA0000890F83930CE
:1042E000012B01D0122B2BD131B32AB390F83830E7
:1042F000012B25D0012380F8383081628285C28568
:104300000022C26390F83910122917D0222180F8B8
:1043100039100168CB6843F48073CB6001684B6946
:1043200043F001034B6180F838200068C16841F018
:104330002001C16000207047012070473221E6E76C
:10434000022070472DE9F04F04462DED028BE5B0B9
:104350004FF4C8716846FBF78FFF002767483E4659
:10436000844203D104F080FD04F068FE64492068B3
:10437000096888427DD10024DFF888A1DFF888B180
:10438000A146DFF8888118F80410532920D108EBE2
:104390000405687874281BD1A878612818D1E878BA
:1043A000742815D12879652812D1574808F0D0FF14
:1043B0006978554808F0CCFFA978534808F0C8FF41
:1043C000E978514808F0C4FF29794F4808F0C0FF48
:1043D0009BF800005D46532873D16878742870D12B
:1043E00018F8041040466D2910D0021952786D2A31
:1043F0005ED0454808F0ACFF2878532861D1687832
:1044000074285ED118F804006D2851D14146A044AB
:1044100098F801006D284BD1095D3B4808F098FFE2
:1044200098F80110384808F093FF374808F085FFE6
:10443000354808F082FF24E03046761CFCF7DBF8B4
:1044400041EC110B9FED320B06F076FC686EB0EE7E
:10445000408AF0EE608A285C3038FCF7BBF853ECF9
:10446000182BFBF7D6FF41EC180B3846FCF7C3F8C6
:1044700000E03EE053EC182BFBF724FFFCF7C8F8F4
:1044800087B2214808F059FF686E285C2028D3D1F4
:10449000642269461C48FBF7D6FEC5F86490CAF84A
:1044A00000702978002653290BD16878742808D128
:1044B0003F2C06D1642269461348FBF7C4FEC5F8B9
:1044C0006490641CE4B2402CFFF45BAF1349124BC0
:1044D000DAF80020887843F82020401CC0B28870A9
:1044E000042801D181F80290402208490448FFF7CE
:1044F000F5FE65B0BDEC028BBDE8F08F40020020F8
:10450000C00200201C00002058010020C001002033
:104510000000000000002440BC060020B80000207D
:1045200070472DE9F047044690F8390099460D464A
:10453000012801D0222856D125B31AB394F83800A7
:10454000012850D0012684F838600027E76394F8EA
:104550003900222819D0122084F83900A284E2847C
:104560004FF48058E08C4B46401EE084A0684FF02A
:10457000000240454FF08001204613D105F0E9FECE
:1045800008BB04E00120BDE8F0873220E4E728887A
:104590002168C0F308004860206908B16D1C08E07C
:1045A000AD1C06E005F0D5FE68B9216815F8010BD1
:1045B0004860E08C0028D5D14B460022402120469F
:1045C00005F0C7FE08B10320DDE794F83900322872
:1045D00005D084F8396084F838700020D3E72220B1
:1045E00084F83900F7E70220CDE70000F7B504466C
:1045F00090F83900012801D0222837D1019981B3E0
:104600007AB394F83800012830D0012084F83800BB
:104610002162A284E2840025E56394F8390022280F
:1046200022D0122084F83900236B1148D863236B01
:1046300010481864236B1048986420681346266B52
:10464000021D3046FDF722FC21686FF04000086033
:104650002068416941F08001416184F838500020B0
:10466000FEBDFFE70120FBE73220DBE70220F7E792
:1046700099A00008C7A000083DA00008034988428F
:1046800002D1034901200870704700004002002059
:10469000B80000207047FEE770B50D4C0025C4F847
:1046A00090520C48016821F440610160016841F4B6
:1046B00080610160C4F89452022004F5247407F06C
:1046C0000BFF01202060022007F006FF256070BD6F
:1046D00000804342001C02400E4810B5016886B0BD
:1046E00041F0800101600068012400F08000059025
:1046F0003020CDE900040220CDE902406946064899
:10470000FDF7F6FB0548C0F89442C0F8904206B0A9
:1047100010BD000030380240001C024000804342BF
:1047200070B50D4C0026C4F890620C48016821F465
:1047300040610160016841F4806101600125C4F8B5
:104740009452022004F5247407F0C6FE256002206E
:1047500007F0C2FE266070BD00804342001C02408C
:104760002DE9F047814616480024016821F4406194
:10477000016001680160134E254627464FF001088D
:10478000C6F89072022007F0A7FEC6F89082600675
:10479000040ED6F8140208B1641CE4B2012007F03C
:1047A0009BFE6D1CEDB2082DEAD3B9F1000F04D0C9
:1047B000FFF772FF2046BDE8F087FFF7B1FFF9E78A
:1047C000001C0240008043422DE9F0410546144898
:1047D000016821F440610160016841F48061016079
:1047E000104E0027C6F890723C464FF00108E809C9
:1047F000C6F894026806050E022007F06DFEC6F8A2
:104800009082022007F068FEC6F89072022007F03E
:1048100063FE641CE4B2082CE9D3BDE8F08100001B
:10482000001C02400080434270B50D48016821F42D
:1048300040610160016841F480610160094C012020
:10484000C4F89402C4F89002042004F5247407F01C
:1048500043FE00256560042007F03EFE256070BD24
:10486000001C0240008043420E4810B5016821F44C
:1048700040610160016841F4806101600A4C0020E0
:10488000C4F89002C4F89402042004F5247407F0DC
:1048900023FE012020606060BDE81040042007F086
:1048A0001BBE0000001C02400080434270B512484D
:1048B0000024016821F440610160016801600F4D2E
:1048C0000126C5F89462304607F006FEC5F89062EE
:1048D000012007F001FE07E0641CE4B2FA2C03D9C2
:1048E000FFF7C2FF012070BDD5F814020028F3D1F4
:1048F000C5F8900270BD0000001C024000804342D9
:1049000000B5B0EE415A2DED088BF0EE605AB0EED6
:10491000406ADFED546A544A21EEA10AD2ED004A02
:1049200092ED014A02EE020AD2ED023A92ED033A0A
:1049300024EEA48A64EE848A24EEA3AA02EEA20ADC
:1049400024EE049A64EE03AA63EEA39A63EE83BA9C
:1049500023EE03BA07F006FF3AEECA1A21EE807A78
:1049600062EE007AF0EE000A22EE800A61EE202A62
:1049700038EEAB1A3C48143821EE202A78EE490A6A
:1049800070EEE90A30EE8B8AD0ED020A67EE881AE3
:1049900040EE421A27EE022A20EE220A07EEE22A11
:1049A000DFED322A07EE480A41EEA20AC0ED020A04
:1049B00090ED037A00EE227A80ED037A90ED041AEE
:1049C00002EE221A80ED041AD0ED002A02EEA16A4E
:1049D000D0ED011A42EE805A02EE825A01EEA06A30
:1049E00041EE875A01EE815A24EE460A03EEE50AAB
:1049F00003EE450A40EE264A24EE860A03EE850AB7
:104A000003EE650A00EE264A24EEA50A04EE450AE6
:104A100003EE060A40EE263A24EE850A04EE250A45
:104A200003EEC60A00EE263A24EEA40A04EE040AB7
:104A300003EEA30A03EE030A07F094FE64EE800A75
:104A4000C2ED000A64EE000AC2ED010A63EE800ABC
:104A500023EE000AC2ED020A82ED030ABDEC088BC8
:104A600000BD00000AD7233BD40000200AD7A33B97
:104A700070B54C4E05462DED068B96ED000B9FED67
:104A80004A8B51EC100B53EC182BFBF7C2FC41EC9A
:104A9000190B474890ED000AB8EEC00A9FED45AAF1
:104AA00020EE0A0A10EE100AFBF7CBFD53EC192B8F
:104AB000FBF708FCFBF708FE286096ED020B53ECB1
:104AC000182B51EC100BFBF7A4FC41EC190B3A48E6
:104AD00090ED000AB8EEC00A20EE0A0A10EE100AA5
:104AE000FBF7AFFD53EC192BFBF7ECFBFBF7ECFDF1
:104AF000686096ED040B53EC182B51EC100BFBF790
:104B000088FC41EC180B2D4890ED000AB8EEC00A65
:104B100020EE0A0A10EE100AFBF793FD53EC182B57
:104B2000FBF7D0FBFBF7D0FD0024A86055F824006C
:104B3000FBF787FD06EBC402641CC2E90001032CED
:104B4000F4DB1F4890ED000A2148F8EEC00A9FED03
:104B50001D0A20EE801ADFED1C0AC1EE201A9FED1F
:104B60001B1A81EE812A85ED032AD0ED001A19481F
:104B7000F8EEE11A21EE802AC2EE201A81EE812A97
:104B800085ED042AD0ED001AF8EEE11A61EE801AE4
:104B900081EEA00AC0EE010AC5ED050ABDEC068B48
:104BA00070BD0000D0060020000000C0CCCCE43F67
:104BB000F00000203333B33EF4000020F800002062
:104BC000E4000020560E4940000034433333834153
:104BD000E8000020EC00002010B54E482DED0E8BB3
:104BE000FFF746FF4B4800F10C01D0EC031A91ECA3
:104BF000030AFFF785FE4848F8EE00DAB0EE00DA67
:104C000090ED019AD0ED000AD0ED038A29EE2DCA6D
:104C100060EE8D9A90ED028A2CEE280A09EE880A41
:104C200010EE100AFBF70DFD41EC100B05F070FCC7
:104C30009FED3AAB51EC100B53EC1A2BFBF7E9FB51
:104C40009FED38BB53EC1B2BFBF755FCFBF73CFDF2
:104C50002CEE090A68EE0DEA2E4CB7EE00EA0C3C89
:104C60000EEEC80A206030EE0E0A10EE100AFBF7B6
:104C7000E8FC2EEEA80A41EC1C0B09EE890A10EEA6
:104C8000100AFBF7DEFC41EC100BB0EE4C1AF0EE14
:104C90006C1A05F059FF53EC1A2B51EC100BFBF773
:104CA000B8FB53EC1B2BFBF726FCFBF70DFD28EEA6
:104CB0002D0A68EE8D0A606020EE080A00EEE80A10
:104CC00030EE0E0A10EE100AFBF7BBFC29EE0D0ABF
:104CD00041EC1C0B20EE080A09EEA80A10EE100A9F
:104CE000FBF7AFFC41EC100BB0EE4C1AF0EE6C1A77
:104CF00005F02AFF53EC1A2B51EC100BFBF789FB44
:104D000053EC1B2BFBF7F7FBFBF7DEFCA060BDECC5
:104D10000E8B10BDF4060020D4000020000000001F
:104D200000806640000000C0CA2109401CB54FF653
:104D3000FF7000F0F3FA0E4C1F204FF4EB7320606D
:104D4000FA2240F2B3115F2000F0EAFB47F6FF7051
:104D5000206008A11820CDE900017823C8224FF473
:104D6000DC71642003F0D7F80649012008801CBDDF
:104D70004C0000206261636B20746F20696E69745F
:104D800000000000280000201CB54FF6FF7000F066
:104D9000C5FA114C1F204FF4EB732060FA2240F249
:104DA000B3115F2000F0BCFB47F6FF7020600BA141
:104DB0001820CDE900017823C8224FF4DC7164206B
:104DC00003F0A9F8002005F051FB08490120087004
:104DD0000749002008801CBD4C0000206261636B05
:104DE00020746F20696E69740000000008010020C3
:104DF0002A0000201CB54FF6FF7000F08FFA0E4C11
:104E00001F204FF4EB732060FA2240F2B3115F20B1
:104E100000F086FB47F6FF70206008A11820CDE95E
:104E200000017823C8224FF4DC71642003F073F88A
:104E30000649012008801CBD4C0000206261636BA4
:104E400020746F20696E6974000000002C0000203F
:104E50002DE9FC5F4FF6FF7000F060FAF648002184
:104E6000F74DC0E90011F5481F274FF48C78C0E9D1
:104E700000114346B422F0218C202F6000F050FB3B
:104E80004346DC22F021B42000F04AFB4FF4827448
:104E900043462246F021DC2000F042FB4FF4A0798B
:104EA0004B46B42241468C2000F03AFB4B46DC22B4
:104EB0004146B42000F034FB4B4622464146DC20FC
:104EC00000F02EFB4FF4B47A5346B42249468C20AE
:104ED00000F026FB5346DC224946B42000F020FBBC
:104EE000534622464946DC2000F01AFB4FF4C87BAB
:104EF0005B46DC225146B42000F012FB5B462246A2
:104F00005146DC2000F00CFB5B46B42251468C205D
:104F100000F006FB47F6FF76CAA018242E60CDE904
:104F2000004078231A46C821962002F0F4FFC8A05A
:104F3000CDE9004078231A46F521912002F0EBFFDD
:104F4000C4A0CDE9004078231A46F521B92002F02B
:104F5000E2FFC1A0CDE9004078231A46F521E12007
:104F600002F0D9FFBDA0CDE9004078231A4640F2F7
:104F70001D11912002F0CFFFB9A0CDE900407823A8
:104F80001A4640F21D11B92002F0C5FFB5A0CDE9C7
:104F9000004078231A4640F21D11E12002F0BBFFC9
:104FA000B1A0CDE9004078231A4640F24511912086
:104FB00002F0B1FFADA0CDE9004078231A4640F2DF
:104FC0004511B92002F0A7FFA9A0CDE90040782340
:104FD0001A4640F24511E12002F09DFFA5A0CDE95F
:104FE000004078231A4640F26D11B92002F093FF79
:104FF000A1A0CDE9004078231A4640F26D11E120CE
:1050000002F089FF9DA0CDE9004078231A4640F2C6
:105010006D11912002F07FFF43463222F0210A20D9
:105020002F6000F07DFA43465A22F021322000F032
:1050300077FA43468222F0215A2000F071FA4B465B
:10504000322241460A2000F06BFA4B465A22414672
:10505000322000F065FA4B46822241465A2000F089
:105060005FFA5346322249460A2000F059FA534665
:105070005A224946322000F053FA534682224946CA
:105080005A2000F04DFA5B465A225146322000F079
:1050900047FA5B46822251465A2000F041FA5B46AD
:1050A000322251460A2000F03BFA4FF4EB73FA2209
:1050B00040F2B3115F2000F033FAAA23C822822104
:1050C000462000F02DFA6EA02E60CDE90040782336
:1050D0001A46C821142002F01EFF5DA0CDE9004051
:1050E00078231A46F5210F2002F015FF59A0CDE9CB
:1050F000004078231A46F521372002F00CFF56A015
:10510000CDE9004078231A46F5215F2002F003FF25
:1051100052A0CDE9004078231A4640F21D110F201D
:1051200002F0F9FE4EA0CDE9004078231A4640F285
:105130001D11372002F0EFFE4AA0CDE90040782390
:105140001A4640F21D115F2002F0E5FE46A0CDE9AF
:10515000004078231A4640F245110F2002F0DBFE92
:1051600042A0CDE9004078231A4640F2451137208D
:1051700002F0D1FE3EA0CDE9004078231A4640F26D
:1051800045115F2002F0C7FE3AA0CDE90040782328
:105190001A4640F26D11372002F0BDFE36A0CDE96F
:1051A000004078231A4640F26D115F2002F0B3FEF2
:1051B00032A0CDE9004078231A4640F26D110F204D
:1051C00002F0A9FE30A0CDE900407823C8224FF4B8
:1051D000DC71642002F09FFE2FA0CDE9004078230F
:1051E000C82287216E2002F096FE2DA0CDE9004056
:1051F00078231A463C21142002F08DFE2AA0CDE926
:10520000004078231A465A21142002F084FE29A077
:10521000CDE9004078231A463C21E62002F07BFECF
:1052200025A0CDE9004078231A465A21E62002F055
:1052300072FEBDE8FC9F0000080000201000002066
:105240004C00002044697374616E636500000000C7
:105250003100000032000000330000003400000084
:105260003500000036000000370000003800000064
:10527000390000003000000042610000436C000073
:10528000416E676C650000006261636B20746F2083
:10529000696E6974000000004669726500000000D4
:1052A000416E676C653A000044697374616E6365B2
:1052B0003A000000647500006D6D000070B5144880
:1052C00086B00025016841F001010160016801F02C
:1052D00001010591016841F080010160006803242B
:1052E00000F08000059002200126CDE90204CDE9FE
:1052F000006569460748FCF7FBFD0C2003948DE828
:10530000610069460448FCF7F3FD06B070BD00007B
:105310003038024000000240001C024070B50E49C7
:105320000E4A064608881268002422B13046BDE8BD
:10533000704002F0ADBE4D8800214543084602F0A2
:10534000BFFC02F06DFEB1B2054801E00180641CB3
:10535000AC42FBD370BD0000B00400209C050020CF
:10536000000008602DE9F05F394C3A4DA0712968C2
:1053700039B102F0ADFEE88A2080288B6080BDE85C
:10538000F09F33492C232A2589884FF0F00949F2F0
:10539000413A2B2645F2105B4FF4305E4FF44877CC
:1053A0004FF4A07845F2103C4FF4F07258B1A4F8D5
:1053B0000080A4F80290514501D0614529D1238194
:1053C0006581A68139E0A4F80090A4F802805145D7
:1053D00001D0614508D123816581A681614531D124
:1053E000A4F8008062802DE0594508D1A4F808E0B7
:1053F0004FF4285060814FF42C50A08106E0A1F5B5
:10540000C85063381ED123816681A58122806780C0
:1054100018E0594508D1A4F808E04FF428506081FD
:105420004FF42C50A08106E0A1F5C850633804D198
:1054300023816581A68127806280614502D1228017
:10544000A4F80280BDE8F05F002002F05DBB000020
:10545000B00400209C0500202DE9FE4F0026A2EBA1
:10546000000882465F1A701E35468946B8F1000F63
:1054700002DD4FF0010102E003D14FF00001019184
:1054800002E0C8F100080190002F02DD4FF001009A
:1054900002E003D14FF00000009002E0C7F10007E6
:1054A00000904046B84501DD044600E03C46601CE3
:1054B0004FF0000B029015E01FFA89F11FFA8AF0F5
:1054C00000F016F846443D44A64202DD0199361B21
:1054D0008A44A54202DD00992D1B89440BF101008D
:1054E0001FFA80FB02998B45E6DDBDE8FE8F0000C8
:1054F00010B5084A084C126822B12268BDE8104075
:1055000002F0FABD02F0DCFB02F08AFD03492088BC
:10551000088010BD9C0500204C00002000000860A1
:105520002DE9F0411C4615460E4607460B46FFF78F
:1055300093FF3A46234631461046FFF78DFF234638
:105540002A4619463846FFF787FF2A462346314642
:10555000BDE8F0411046FFF77FBF2DE9FC5F8046B4
:105560000024154603200F46A0EB450649E0781BB2
:1055700081B208EB040A01901FFA8AF0FFF7B8FF26
:10558000381B81B208EB050900901FFA89F0FFF77C
:10559000AFFF07EB040B1FFA8BF11FFA89F0FFF73F
:1055A000A7FF07EB05091FFA89F11FFA8AF0FFF739
:1055B0009FFFA8EB040A1FFA89F11FFA8AF0FFF790
:1055C00097FFA8EB05091FFA8BF11FFA89F0FFF787
:1055D0008FFF019881B21FFA8AF0FFF789FF0098C8
:1055E00081B21FFA89F0FFF783FF641C002E03DAF3
:1055F00006EB8406B61D04E0601B06EB80066D1EFC
:105600000A36AC42B3DDBDE8FC9F00002DE9F04155
:1056100004463A480D46006820B12046BDE8F041F6
:1056200002F06ABD364E270A3146B0884989A0F596
:1056300013434FEA1528413B0CD0A0F5A643103B7D
:1056400008D0A0F5AA43103B11D0A0F5C853633B86
:1056500027D04BE0084602F0D7FC384602F0C8FCE1
:10566000E0B202F0C5FCB08902F0CEFC38E008469A
:1056700002F0CAFC384602F0BBFC7089401C80B2C4
:1056800002F0C2FCE0B202F0B3FCB08902F0BCFC54
:10569000404602F0ADFCB089401C80B202F0B4FC80
:1056A00021E0B07918B93088001B401E84B208464A
:1056B00002F0AAFC270A384602F09AFCE0B202F097
:1056C00097FC384602F094FCE0B202F091FCB089FD
:1056D00002F09AFC404602F08BFCE8B202F088FC33
:1056E000404602F085FCE8B202F082FC05493089B0
:1056F0000880881C0280BDE8F08100009C05002025
:10570000B0040020FEFF07602DE9F04F95B002F0D5
:10571000A3FEFE4D4FF0010AA5F15009A88049F201
:10572000413B45F2103645F2105441F6631818B16A
:1057300002F05AFD02F08BB9F5480027016841F0EC
:1057400002010160006810A900F002000090202012
:10575000CDE9100A0320CDE912A0EE48FCF7C8FB02
:105760004FF020414846C9F80010EB49C0E9011745
:105770001021C9F80C70C0E90471C9F81870090249
:10578000C9F81C70C0E909718900C0E90B71C9F83A
:1057900034708901C9E90E7146210B910F20CDE9C2
:1057A0000907CDE902070490D8480F9702AA09A972
:1057B00008975038FDF753FE322006F07FFED320C5
:1057C00002F022FC02F06EF9A88002F06BF9A880CA
:1057D00002F068F94FF6FF7202EA0020A88002F09A
:1057E00061F9A9885F460843A880B84248D0D42010
:1057F00002F00AFC02F056F9A88002F053F9A880E2
:1058000002F050F902EA0020A88002F04BF9A988C2
:105810000843A880B04233D04FF45A4002F0F4FB62
:1058200002F040F9A8804FF45B4002F0EDFB02F07B
:1058300039F902EA0020A8804FF45C4002F0E4FB52
:1058400002F030F9A9880843A880B0F5004F7DD058
:10585000A04215D0A12002F0D7FB02F023F9A880C6
:1058600002F020F902EA0020A88002F01BF9A988C2
:105870000843A0F5AE41A880613901D1A5F80480A4
:10588000A988A6A004F018FEA888B8427ED1CF202F
:1058900002F0BAFB002002F0ABFBC12002F0A8FB33
:1058A000302002F0A5FBED2002F0AEFB642002F0F8
:1058B0009FFB032002F09CFB122002F099FB812049
:1058C00002F096FBE82002F09FFB852002F090FB9F
:1058D000102002F08DFB7A2002F08AFBCB2002F030
:1058E00093FB392002F084FB2C2002F081FB002086
:1058F00002F07EFB342002F07BFB022002F078FBFA
:10590000F72002F081FB202002F072FBEA2002F077
:105910007BFB002002F06CFB002002F069FBC02042
:1059200002F072FB1B2002F063FBC12002F06CFB53
:10593000012002F05DFBC52002F066FB302002F082
:1059400057FB302002F054FBC72000E0B7E002F024
:105950005BFBB72002F04CFB362002F055FB4820E1
:1059600002F046FB3A2002F04FFB552002F040FBCC
:10597000B12002F049FB002002F03AFB1A2002F0AD
:1059800037FBB62002F040FB0A2000E099E002F06D
:105990002FFBA22002F02CFBF22002F035FB0020AE
:1059A00002F026FB262002F02FFB012002F020FB54
:1059B000E02002F029FB0F2002F01AFB2A2002F05F
:1059C00017FB282002F014FB082002F011FB0E2028
:1059D00002F00EFB082002F00BFB542002F008FB43
:1059E000A92002F005FB432002F002FB0A2002F08E
:1059F000FFFA0F2002F0FCFA002002F0F9FA002072
:105A000002F0F6FA002002F0F3FA002002F0F0FAB9
:105A1000E12002F0F9FA002002F0EAFA152002F083
:105A2000E7FA172002F0E4FA072002F0E1FA112069
:105A300002F0DEFA062002F0DBFA2B2002F0D8FAA0
:105A4000562002F0D5FA3C2002F0D2FA052002F0EE
:105A5000CFFA102002F0CCFA0F2002F0C9FA3F2052
:105A600002F0C6FA3F2002F0C3FA0F2002F0C0FA9B
:105A70002B2002F0C9FA002002F0BAFA002002F04E
:105A8000B7FA012002F0B4FA3F2002F0B1FA2A205E
:105A900002F0BAFA002002F0ABFA002002F0A8FAF5
:105AA000002002F0A5FAEF2002F0A2FA112002F085
:105AB000ABFA782006F002FD292001F00BBFAC8084
:105AC000DEE6B0427ED1ED2002F09EFA012002F027
:105AD0008FFAFE2002F08CFAEE2002F095FADE201A
